{
	"contracts/Fiduciary.sol": {
		"Fiduciary": {
			"abi": [
				{
					"inputs": [],
					"stateMutability": "nonpayable",
					"type": "constructor"
				},
				{
					"inputs": [
						{
							"internalType": "address",
							"name": "_beneficiary",
							"type": "address"
						},
						{
							"internalType": "uint256",
							"name": "_percentage",
							"type": "uint256"
						}
					],
					"name": "addBeneficiary",
					"outputs": [],
					"stateMutability": "nonpayable",
					"type": "function"
				},
				{
					"inputs": [
						{
							"internalType": "uint256",
							"name": "_deadline",
							"type": "uint256"
						}
					],
					"name": "addDeadline",
					"outputs": [],
					"stateMutability": "nonpayable",
					"type": "function"
				},
				{
					"inputs": [
						{
							"internalType": "address",
							"name": "_settlor",
							"type": "address"
						}
					],
					"name": "createFiduciaryRelationship",
					"outputs": [],
					"stateMutability": "nonpayable",
					"type": "function"
				},
				{
					"inputs": [],
					"name": "getFiduciaryBalance",
					"outputs": [
						{
							"internalType": "uint256",
							"name": "",
							"type": "uint256"
						}
					],
					"stateMutability": "view",
					"type": "function"
				},
				{
					"inputs": [],
					"name": "isRegulator",
					"outputs": [
						{
							"internalType": "bool",
							"name": "",
							"type": "bool"
						}
					],
					"stateMutability": "view",
					"type": "function"
				},
				{
					"inputs": [],
					"name": "isSettlor",
					"outputs": [
						{
							"internalType": "bool",
							"name": "",
							"type": "bool"
						}
					],
					"stateMutability": "view",
					"type": "function"
				},
				{
					"inputs": [
						{
							"internalType": "address",
							"name": "_settlor",
							"type": "address"
						}
					],
					"name": "liquidateFiduciaryRelationship",
					"outputs": [],
					"stateMutability": "payable",
					"type": "function"
				},
				{
					"inputs": [],
					"name": "transferRemainingBalance",
					"outputs": [],
					"stateMutability": "payable",
					"type": "function"
				},
				{
					"inputs": [],
					"name": "transferToRelationship",
					"outputs": [],
					"stateMutability": "payable",
					"type": "function"
				},
				{
					"inputs": [
						{
							"internalType": "address",
							"name": "_settlor",
							"type": "address"
						}
					],
					"name": "withdraw",
					"outputs": [
						{
							"internalType": "bool",
							"name": "",
							"type": "bool"
						}
					],
					"stateMutability": "payable",
					"type": "function"
				}
			],
			"devdoc": {
				"kind": "dev",
				"methods": {},
				"version": 1
			},
			"evm": {
				"assembly": "    /* \"contracts/Fiduciary.sol\":65:7230  contract Fiduciary {... */\n  mstore(0x40, 0x80)\n    /* \"contracts/Fiduciary.sol\":609:692  constructor () {... */\n  callvalue\n  dup1\n  iszero\n  tag_1\n  jumpi\n  0x00\n  dup1\n  revert\ntag_1:\n  pop\n    /* \"contracts/Fiduciary.sol\":647:657  msg.sender */\n  caller\n    /* \"contracts/Fiduciary.sol\":635:644  regulator */\n  0x00\n  dup1\n    /* \"contracts/Fiduciary.sol\":635:657  regulator = msg.sender */\n  0x0100\n  exp\n  dup2\n  sload\n  dup2\n  0xffffffffffffffffffffffffffffffffffffffff\n  mul\n  not\n  and\n  swap1\n  dup4\n  0xffffffffffffffffffffffffffffffffffffffff\n  and\n  mul\n  or\n  swap1\n  sstore\n  pop\n    /* \"contracts/Fiduciary.sol\":683:684  0 */\n  0x00\n    /* \"contracts/Fiduciary.sol\":668:680  totalBalance */\n  0x03\n    /* \"contracts/Fiduciary.sol\":668:684  totalBalance = 0 */\n  dup2\n  swap1\n  sstore\n  pop\n    /* \"contracts/Fiduciary.sol\":65:7230  contract Fiduciary {... */\n  dataSize(sub_0)\n  dup1\n  dataOffset(sub_0)\n  0x00\n  codecopy\n  0x00\n  return\nstop\n\nsub_0: assembly {\n        /* \"contracts/Fiduciary.sol\":65:7230  contract Fiduciary {... */\n      mstore(0x40, 0x80)\n      jumpi(tag_1, lt(calldatasize, 0x04))\n      shr(0xe0, calldataload(0x00))\n      dup1\n      0x51cff8d9\n      gt\n      tag_12\n      jumpi\n      dup1\n      0x51cff8d9\n      eq\n      tag_7\n      jumpi\n      dup1\n      0x54ac3e0e\n      eq\n      tag_8\n      jumpi\n      dup1\n      0x96074e70\n      eq\n      tag_9\n      jumpi\n      dup1\n      0x98ee61af\n      eq\n      tag_10\n      jumpi\n      dup1\n      0xa55453ea\n      eq\n      tag_11\n      jumpi\n      jump(tag_1)\n    tag_12:\n      dup1\n      0x02550b78\n      eq\n      tag_2\n      jumpi\n      dup1\n      0x0f25077b\n      eq\n      tag_3\n      jumpi\n      dup1\n      0x28d99d42\n      eq\n      tag_4\n      jumpi\n      dup1\n      0x3595771b\n      eq\n      tag_5\n      jumpi\n      dup1\n      0x3bbca190\n      eq\n      tag_6\n      jumpi\n    tag_1:\n      0x00\n      dup1\n      revert\n        /* \"contracts/Fiduciary.sol\":2237:2739  function createFiduciaryRelationship(address _settlor) public onlyRegulator{... */\n    tag_2:\n      callvalue\n      dup1\n      iszero\n      tag_13\n      jumpi\n      0x00\n      dup1\n      revert\n    tag_13:\n      pop\n      tag_14\n      0x04\n      dup1\n      calldatasize\n      sub\n      dup2\n      add\n      swap1\n      tag_15\n      swap2\n      swap1\n      tag_16\n      jump\t// in\n    tag_15:\n      tag_17\n      jump\t// in\n    tag_14:\n      stop\n        /* \"contracts/Fiduciary.sol\":1396:1563  function isSettlor() public view returns (bool) {... */\n    tag_3:\n      callvalue\n      dup1\n      iszero\n      tag_18\n      jumpi\n      0x00\n      dup1\n      revert\n    tag_18:\n      pop\n      tag_19\n      tag_20\n      jump\t// in\n    tag_19:\n      mload(0x40)\n      tag_21\n      swap2\n      swap1\n      tag_22\n      jump\t// in\n    tag_21:\n      mload(0x40)\n      dup1\n      swap2\n      sub\n      swap1\n      return\n        /* \"contracts/Fiduciary.sol\":702:857  function getFiduciaryBalance () public view returns (uint) {    ... */\n    tag_4:\n      callvalue\n      dup1\n      iszero\n      tag_23\n      jumpi\n      0x00\n      dup1\n      revert\n    tag_23:\n      pop\n      tag_24\n      tag_25\n      jump\t// in\n    tag_24:\n      mload(0x40)\n      tag_26\n      swap2\n      swap1\n      tag_27\n      jump\t// in\n    tag_26:\n      mload(0x40)\n      dup1\n      swap2\n      sub\n      swap1\n      return\n        /* \"contracts/Fiduciary.sol\":4097:4766  function transferToRelationship() public payable onlySettlor{... */\n    tag_5:\n      tag_28\n      tag_29\n      jump\t// in\n    tag_28:\n      stop\n        /* \"contracts/Fiduciary.sol\":2812:3118  function addDeadline(uint _deadline) public onlySettlor{... */\n    tag_6:\n      callvalue\n      dup1\n      iszero\n      tag_30\n      jumpi\n      0x00\n      dup1\n      revert\n    tag_30:\n      pop\n      tag_31\n      0x04\n      dup1\n      calldatasize\n      sub\n      dup2\n      add\n      swap1\n      tag_32\n      swap2\n      swap1\n      tag_33\n      jump\t// in\n    tag_32:\n      tag_34\n      jump\t// in\n    tag_31:\n      stop\n        /* \"contracts/Fiduciary.sol\":4865:5878  function withdraw(address _settlor) public payable returns (bool) {... */\n    tag_7:\n      tag_35\n      0x04\n      dup1\n      calldatasize\n      sub\n      dup2\n      add\n      swap1\n      tag_36\n      swap2\n      swap1\n      tag_16\n      jump\t// in\n    tag_36:\n      tag_37\n      jump\t// in\n    tag_35:\n      mload(0x40)\n      tag_38\n      swap2\n      swap1\n      tag_22\n      jump\t// in\n    tag_38:\n      mload(0x40)\n      dup1\n      swap2\n      sub\n      swap1\n      return\n        /* \"contracts/Fiduciary.sol\":927:1026  function isRegulator() public view returns (bool) {... */\n    tag_8:\n      callvalue\n      dup1\n      iszero\n      tag_39\n      jumpi\n      0x00\n      dup1\n      revert\n    tag_39:\n      pop\n      tag_40\n      tag_41\n      jump\t// in\n    tag_40:\n      mload(0x40)\n      tag_42\n      swap2\n      swap1\n      tag_22\n      jump\t// in\n    tag_42:\n      mload(0x40)\n      dup1\n      swap2\n      sub\n      swap1\n      return\n        /* \"contracts/Fiduciary.sol\":3212:4005  function addBeneficiary(address _beneficiary, uint _percentage) public onlySettlor{... */\n    tag_9:\n      callvalue\n      dup1\n      iszero\n      tag_43\n      jumpi\n      0x00\n      dup1\n      revert\n    tag_43:\n      pop\n      tag_44\n      0x04\n      dup1\n      calldatasize\n      sub\n      dup2\n      add\n      swap1\n      tag_45\n      swap2\n      swap1\n      tag_46\n      jump\t// in\n    tag_45:\n      tag_47\n      jump\t// in\n    tag_44:\n      stop\n        /* \"contracts/Fiduciary.sol\":6663:7225  function transferRemainingBalance() public payable onlySettlor {... */\n    tag_10:\n      tag_48\n      tag_49\n      jump\t// in\n    tag_48:\n      stop\n        /* \"contracts/Fiduciary.sol\":5967:6542  function liquidateFiduciaryRelationship(address _settlor) public payable onlyRegulator{... */\n    tag_11:\n      tag_50\n      0x04\n      dup1\n      calldatasize\n      sub\n      dup2\n      add\n      swap1\n      tag_51\n      swap2\n      swap1\n      tag_16\n      jump\t// in\n    tag_51:\n      tag_52\n      jump\t// in\n    tag_50:\n      stop\n        /* \"contracts/Fiduciary.sol\":2237:2739  function createFiduciaryRelationship(address _settlor) public onlyRegulator{... */\n    tag_17:\n        /* \"contracts/Fiduciary.sol\":1899:1912  isRegulator() */\n      tag_54\n        /* \"contracts/Fiduciary.sol\":1899:1910  isRegulator */\n      tag_41\n        /* \"contracts/Fiduciary.sol\":1899:1912  isRegulator() */\n      jump\t// in\n    tag_54:\n        /* \"contracts/Fiduciary.sol\":1891:1954  require(isRegulator(), \"Only regulator can call this function\") */\n      tag_55\n      jumpi\n      mload(0x40)\n      0x08c379a000000000000000000000000000000000000000000000000000000000\n      dup2\n      mstore\n      0x04\n      add\n      tag_56\n      swap1\n      tag_57\n      jump\t// in\n    tag_56:\n      mload(0x40)\n      dup1\n      swap2\n      sub\n      swap1\n      revert\n    tag_55:\n        /* \"contracts/Fiduciary.sol\":2353:2354  0 */\n      0x00\n        /* \"contracts/Fiduciary.sol\":2331:2339  settlors */\n      0x02\n        /* \"contracts/Fiduciary.sol\":2331:2349  settlors[_settlor] */\n      0x00\n        /* \"contracts/Fiduciary.sol\":2340:2348  _settlor */\n      dup4\n        /* \"contracts/Fiduciary.sol\":2331:2349  settlors[_settlor] */\n      0xffffffffffffffffffffffffffffffffffffffff\n      and\n      0xffffffffffffffffffffffffffffffffffffffff\n      and\n      dup2\n      mstore\n      0x20\n      add\n      swap1\n      dup2\n      mstore\n      0x20\n      add\n      0x00\n      keccak256\n      sload\n        /* \"contracts/Fiduciary.sol\":2331:2354  settlors[_settlor] == 0 */\n      eq\n        /* \"contracts/Fiduciary.sol\":2323:2418  require(settlors[_settlor] == 0, \"A settlor can only be settlor of one fiduciary relationship\") */\n      tag_59\n      jumpi\n      mload(0x40)\n      0x08c379a000000000000000000000000000000000000000000000000000000000\n      dup2\n      mstore\n      0x04\n      add\n      tag_60\n      swap1\n      tag_61\n      jump\t// in\n    tag_60:\n      mload(0x40)\n      dup1\n      swap2\n      sub\n      swap1\n      revert\n    tag_59:\n        /* \"contracts/Fiduciary.sol\":2431:2473  FiduciaryRelationship storage relationship */\n      0x00\n        /* \"contracts/Fiduciary.sol\":2476:2485  relations */\n      0x01\n        /* \"contracts/Fiduciary.sol\":2476:2495  relations[_settlor] */\n      0x00\n        /* \"contracts/Fiduciary.sol\":2486:2494  _settlor */\n      dup4\n        /* \"contracts/Fiduciary.sol\":2476:2495  relations[_settlor] */\n      0xffffffffffffffffffffffffffffffffffffffff\n      and\n      0xffffffffffffffffffffffffffffffffffffffff\n      and\n      dup2\n      mstore\n      0x20\n      add\n      swap1\n      dup2\n      mstore\n      0x20\n      add\n      0x00\n      keccak256\n        /* \"contracts/Fiduciary.sol\":2431:2495  FiduciaryRelationship storage relationship = relations[_settlor] */\n      swap1\n      pop\n        /* \"contracts/Fiduciary.sol\":2531:2539  _settlor */\n      dup2\n        /* \"contracts/Fiduciary.sol\":2508:2520  relationship */\n      dup2\n        /* \"contracts/Fiduciary.sol\":2508:2528  relationship.settlor */\n      0x00\n      add\n      0x00\n        /* \"contracts/Fiduciary.sol\":2508:2539  relationship.settlor = _settlor */\n      0x0100\n      exp\n      dup2\n      sload\n      dup2\n      0xffffffffffffffffffffffffffffffffffffffff\n      mul\n      not\n      and\n      swap1\n      dup4\n      0xffffffffffffffffffffffffffffffffffffffff\n      and\n      mul\n      or\n      swap1\n      sstore\n      pop\n        /* \"contracts/Fiduciary.sol\":2576:2577  0 */\n      0x00\n        /* \"contracts/Fiduciary.sol\":2550:2562  relationship */\n      dup2\n        /* \"contracts/Fiduciary.sol\":2550:2573  relationship.percentage */\n      0x04\n      add\n        /* \"contracts/Fiduciary.sol\":2550:2577  relationship.percentage = 0 */\n      dup2\n      swap1\n      sstore\n      pop\n        /* \"contracts/Fiduciary.sol\":2612:2613  0 */\n      0x00\n        /* \"contracts/Fiduciary.sol\":2588:2600  relationship */\n      dup2\n        /* \"contracts/Fiduciary.sol\":2588:2609  relationship.deadline */\n      0x06\n      add\n        /* \"contracts/Fiduciary.sol\":2588:2613  relationship.deadline = 0 */\n      dup2\n      swap1\n      sstore\n      pop\n        /* \"contracts/Fiduciary.sol\":2652:2653  0 */\n      0x00\n        /* \"contracts/Fiduciary.sol\":2624:2636  relationship */\n      dup2\n        /* \"contracts/Fiduciary.sol\":2624:2649  relationship.trustBalance */\n      0x02\n      add\n        /* \"contracts/Fiduciary.sol\":2624:2653  relationship.trustBalance = 0 */\n      dup2\n      swap1\n      sstore\n      pop\n        /* \"contracts/Fiduciary.sol\":2695:2696  0 */\n      0x00\n        /* \"contracts/Fiduciary.sol\":2664:2676  relationship */\n      dup2\n        /* \"contracts/Fiduciary.sol\":2664:2692  relationship.auxiliarBalance */\n      0x03\n      add\n        /* \"contracts/Fiduciary.sol\":2664:2696  relationship.auxiliarBalance = 0 */\n      dup2\n      swap1\n      sstore\n      pop\n        /* \"contracts/Fiduciary.sol\":2730:2731  0 */\n      0x00\n        /* \"contracts/Fiduciary.sol\":2709:2717  settlors */\n      0x02\n        /* \"contracts/Fiduciary.sol\":2709:2727  settlors[_settlor] */\n      0x00\n        /* \"contracts/Fiduciary.sol\":2718:2726  _settlor */\n      dup5\n        /* \"contracts/Fiduciary.sol\":2709:2727  settlors[_settlor] */\n      0xffffffffffffffffffffffffffffffffffffffff\n      and\n      0xffffffffffffffffffffffffffffffffffffffff\n      and\n      dup2\n      mstore\n      0x20\n      add\n      swap1\n      dup2\n      mstore\n      0x20\n      add\n      0x00\n      keccak256\n        /* \"contracts/Fiduciary.sol\":2709:2731  settlors[_settlor] = 0 */\n      dup2\n      swap1\n      sstore\n      pop\n        /* \"contracts/Fiduciary.sol\":2312:2739  {... */\n      pop\n        /* \"contracts/Fiduciary.sol\":2237:2739  function createFiduciaryRelationship(address _settlor) public onlyRegulator{... */\n      pop\n      jump\t// out\n        /* \"contracts/Fiduciary.sol\":1396:1563  function isSettlor() public view returns (bool) {... */\n    tag_20:\n        /* \"contracts/Fiduciary.sol\":1438:1442  bool */\n      0x00\n        /* \"contracts/Fiduciary.sol\":1455:1477  address settlorAddress */\n      dup1\n        /* \"contracts/Fiduciary.sol\":1480:1489  relations */\n      0x01\n        /* \"contracts/Fiduciary.sol\":1480:1501  relations[msg.sender] */\n      0x00\n        /* \"contracts/Fiduciary.sol\":1490:1500  msg.sender */\n      caller\n        /* \"contracts/Fiduciary.sol\":1480:1501  relations[msg.sender] */\n      0xffffffffffffffffffffffffffffffffffffffff\n      and\n      0xffffffffffffffffffffffffffffffffffffffff\n      and\n      dup2\n      mstore\n      0x20\n      add\n      swap1\n      dup2\n      mstore\n      0x20\n      add\n      0x00\n      keccak256\n        /* \"contracts/Fiduciary.sol\":1480:1509  relations[msg.sender].settlor */\n      0x00\n      add\n      0x00\n      swap1\n      sload\n      swap1\n      0x0100\n      exp\n      swap1\n      div\n      0xffffffffffffffffffffffffffffffffffffffff\n      and\n        /* \"contracts/Fiduciary.sol\":1455:1509  address settlorAddress = relations[msg.sender].settlor */\n      swap1\n      pop\n        /* \"contracts/Fiduciary.sol\":1545:1555  msg.sender */\n      caller\n        /* \"contracts/Fiduciary.sol\":1527:1555  settlorAddress == msg.sender */\n      0xffffffffffffffffffffffffffffffffffffffff\n      and\n        /* \"contracts/Fiduciary.sol\":1527:1541  settlorAddress */\n      dup2\n        /* \"contracts/Fiduciary.sol\":1527:1555  settlorAddress == msg.sender */\n      0xffffffffffffffffffffffffffffffffffffffff\n      and\n      eq\n        /* \"contracts/Fiduciary.sol\":1520:1555  return settlorAddress == msg.sender */\n      swap2\n      pop\n      pop\n        /* \"contracts/Fiduciary.sol\":1396:1563  function isSettlor() public view returns (bool) {... */\n      swap1\n      jump\t// out\n        /* \"contracts/Fiduciary.sol\":702:857  function getFiduciaryBalance () public view returns (uint) {    ... */\n    tag_25:\n        /* \"contracts/Fiduciary.sol\":755:759  uint */\n      0x00\n        /* \"contracts/Fiduciary.sol\":797:818  address(this).balance */\n      selfbalance\n        /* \"contracts/Fiduciary.sol\":783:795  totalBalance */\n      sload(0x03)\n        /* \"contracts/Fiduciary.sol\":783:818  totalBalance==address(this).balance */\n      eq\n        /* \"contracts/Fiduciary.sol\":776:819  assert(totalBalance==address(this).balance) */\n      tag_64\n      jumpi\n      tag_65\n      tag_66\n      jump\t// in\n    tag_65:\n    tag_64:\n        /* \"contracts/Fiduciary.sol\":837:849  totalBalance */\n      sload(0x03)\n        /* \"contracts/Fiduciary.sol\":830:849  return totalBalance */\n      swap1\n      pop\n        /* \"contracts/Fiduciary.sol\":702:857  function getFiduciaryBalance () public view returns (uint) {    ... */\n      swap1\n      jump\t// out\n        /* \"contracts/Fiduciary.sol\":4097:4766  function transferToRelationship() public payable onlySettlor{... */\n    tag_29:\n        /* \"contracts/Fiduciary.sol\":2098:2109  isSettlor() */\n      tag_68\n        /* \"contracts/Fiduciary.sol\":2098:2107  isSettlor */\n      tag_20\n        /* \"contracts/Fiduciary.sol\":2098:2109  isSettlor() */\n      jump\t// in\n    tag_68:\n        /* \"contracts/Fiduciary.sol\":2090:2151  require(isSettlor(), \"Only a settlor can call this function\") */\n      tag_69\n      jumpi\n      mload(0x40)\n      0x08c379a000000000000000000000000000000000000000000000000000000000\n      dup2\n      mstore\n      0x04\n      add\n      tag_70\n      swap1\n      tag_71\n      jump\t// in\n    tag_70:\n      mload(0x40)\n      dup1\n      swap2\n      sub\n      swap1\n      revert\n    tag_69:\n        /* \"contracts/Fiduciary.sol\":4210:4211  0 */\n      0x00\n        /* \"contracts/Fiduciary.sol\":4176:4185  relations */\n      0x01\n        /* \"contracts/Fiduciary.sol\":4176:4197  relations[msg.sender] */\n      0x00\n        /* \"contracts/Fiduciary.sol\":4186:4196  msg.sender */\n      caller\n        /* \"contracts/Fiduciary.sol\":4176:4197  relations[msg.sender] */\n      0xffffffffffffffffffffffffffffffffffffffff\n      and\n      0xffffffffffffffffffffffffffffffffffffffff\n      and\n      dup2\n      mstore\n      0x20\n      add\n      swap1\n      dup2\n      mstore\n      0x20\n      add\n      0x00\n      keccak256\n        /* \"contracts/Fiduciary.sol\":4176:4206  relations[msg.sender].deadline */\n      0x06\n      add\n      sload\n        /* \"contracts/Fiduciary.sol\":4176:4211  relations[msg.sender].deadline != 0 */\n      eq\n      iszero\n        /* \"contracts/Fiduciary.sol\":4176:4264  relations[msg.sender].deadline != 0 && block.timestamp <= relations[msg.sender].deadline */\n      dup1\n      iszero\n      tag_73\n      jumpi\n      pop\n        /* \"contracts/Fiduciary.sol\":4234:4243  relations */\n      0x01\n        /* \"contracts/Fiduciary.sol\":4234:4255  relations[msg.sender] */\n      0x00\n        /* \"contracts/Fiduciary.sol\":4244:4254  msg.sender */\n      caller\n        /* \"contracts/Fiduciary.sol\":4234:4255  relations[msg.sender] */\n      0xffffffffffffffffffffffffffffffffffffffff\n      and\n      0xffffffffffffffffffffffffffffffffffffffff\n      and\n      dup2\n      mstore\n      0x20\n      add\n      swap1\n      dup2\n      mstore\n      0x20\n      add\n      0x00\n      keccak256\n        /* \"contracts/Fiduciary.sol\":4234:4264  relations[msg.sender].deadline */\n      0x06\n      add\n      sload\n        /* \"contracts/Fiduciary.sol\":4215:4230  block.timestamp */\n      timestamp\n        /* \"contracts/Fiduciary.sol\":4215:4264  block.timestamp <= relations[msg.sender].deadline */\n      gt\n      iszero\n        /* \"contracts/Fiduciary.sol\":4176:4264  relations[msg.sender].deadline != 0 && block.timestamp <= relations[msg.sender].deadline */\n    tag_73:\n        /* \"contracts/Fiduciary.sol\":4168:4288  require(relations[msg.sender].deadline != 0 && block.timestamp <= relations[msg.sender].deadline, \"Deadline has passed\") */\n      tag_74\n      jumpi\n      mload(0x40)\n      0x08c379a000000000000000000000000000000000000000000000000000000000\n      dup2\n      mstore\n      0x04\n      add\n      tag_75\n      swap1\n      tag_76\n      jump\t// in\n    tag_75:\n      mload(0x40)\n      dup1\n      swap2\n      sub\n      swap1\n      revert\n    tag_74:\n        /* \"contracts/Fiduciary.sol\":4551:4560  msg.value */\n      callvalue\n        /* \"contracts/Fiduciary.sol\":4513:4522  relations */\n      0x01\n        /* \"contracts/Fiduciary.sol\":4513:4534  relations[msg.sender] */\n      0x00\n        /* \"contracts/Fiduciary.sol\":4523:4533  msg.sender */\n      caller\n        /* \"contracts/Fiduciary.sol\":4513:4534  relations[msg.sender] */\n      0xffffffffffffffffffffffffffffffffffffffff\n      and\n      0xffffffffffffffffffffffffffffffffffffffff\n      and\n      dup2\n      mstore\n      0x20\n      add\n      swap1\n      dup2\n      mstore\n      0x20\n      add\n      0x00\n      keccak256\n        /* \"contracts/Fiduciary.sol\":4513:4547  relations[msg.sender].trustBalance */\n      0x02\n      add\n      0x00\n        /* \"contracts/Fiduciary.sol\":4513:4560  relations[msg.sender].trustBalance += msg.value */\n      dup3\n      dup3\n      sload\n      tag_77\n      swap2\n      swap1\n      tag_78\n      jump\t// in\n    tag_77:\n      swap3\n      pop\n      pop\n      dup2\n      swap1\n      sstore\n      pop\n        /* \"contracts/Fiduciary.sol\":4612:4621  msg.value */\n      callvalue\n        /* \"contracts/Fiduciary.sol\":4571:4580  relations */\n      0x01\n        /* \"contracts/Fiduciary.sol\":4571:4592  relations[msg.sender] */\n      0x00\n        /* \"contracts/Fiduciary.sol\":4581:4591  msg.sender */\n      caller\n        /* \"contracts/Fiduciary.sol\":4571:4592  relations[msg.sender] */\n      0xffffffffffffffffffffffffffffffffffffffff\n      and\n      0xffffffffffffffffffffffffffffffffffffffff\n      and\n      dup2\n      mstore\n      0x20\n      add\n      swap1\n      dup2\n      mstore\n      0x20\n      add\n      0x00\n      keccak256\n        /* \"contracts/Fiduciary.sol\":4571:4608  relations[msg.sender].auxiliarBalance */\n      0x03\n      add\n      0x00\n        /* \"contracts/Fiduciary.sol\":4571:4621  relations[msg.sender].auxiliarBalance += msg.value */\n      dup3\n      dup3\n      sload\n      tag_79\n      swap2\n      swap1\n      tag_78\n      jump\t// in\n    tag_79:\n      swap3\n      pop\n      pop\n      dup2\n      swap1\n      sstore\n      pop\n        /* \"contracts/Fiduciary.sol\":4695:4704  msg.value */\n      callvalue\n        /* \"contracts/Fiduciary.sol\":4679:4691  totalBalance */\n      0x03\n      0x00\n        /* \"contracts/Fiduciary.sol\":4679:4704  totalBalance += msg.value */\n      dup3\n      dup3\n      sload\n      tag_80\n      swap2\n      swap1\n      tag_78\n      jump\t// in\n    tag_80:\n      swap3\n      pop\n      pop\n      dup2\n      swap1\n      sstore\n      pop\n        /* \"contracts/Fiduciary.sol\":4736:4757  address(this).balance */\n      selfbalance\n        /* \"contracts/Fiduciary.sol\":4722:4734  totalBalance */\n      sload(0x03)\n        /* \"contracts/Fiduciary.sol\":4722:4757  totalBalance==address(this).balance */\n      eq\n        /* \"contracts/Fiduciary.sol\":4715:4758  assert(totalBalance==address(this).balance) */\n      tag_81\n      jumpi\n      tag_82\n      tag_66\n      jump\t// in\n    tag_82:\n    tag_81:\n        /* \"contracts/Fiduciary.sol\":4097:4766  function transferToRelationship() public payable onlySettlor{... */\n      jump\t// out\n        /* \"contracts/Fiduciary.sol\":2812:3118  function addDeadline(uint _deadline) public onlySettlor{... */\n    tag_34:\n        /* \"contracts/Fiduciary.sol\":2098:2109  isSettlor() */\n      tag_84\n        /* \"contracts/Fiduciary.sol\":2098:2107  isSettlor */\n      tag_20\n        /* \"contracts/Fiduciary.sol\":2098:2109  isSettlor() */\n      jump\t// in\n    tag_84:\n        /* \"contracts/Fiduciary.sol\":2090:2151  require(isSettlor(), \"Only a settlor can call this function\") */\n      tag_85\n      jumpi\n      mload(0x40)\n      0x08c379a000000000000000000000000000000000000000000000000000000000\n      dup2\n      mstore\n      0x04\n      add\n      tag_86\n      swap1\n      tag_71\n      jump\t// in\n    tag_86:\n      mload(0x40)\n      dup1\n      swap2\n      sub\n      swap1\n      revert\n    tag_85:\n        /* \"contracts/Fiduciary.sol\":2886:2912  isValidDeadline(_deadline) */\n      tag_88\n        /* \"contracts/Fiduciary.sol\":2902:2911  _deadline */\n      dup2\n        /* \"contracts/Fiduciary.sol\":2886:2901  isValidDeadline */\n      tag_89\n        /* \"contracts/Fiduciary.sol\":2886:2912  isValidDeadline(_deadline) */\n      jump\t// in\n    tag_88:\n        /* \"contracts/Fiduciary.sol\":2878:2933  require(isValidDeadline(_deadline), \"Deadline invalid\") */\n      tag_90\n      jumpi\n      mload(0x40)\n      0x08c379a000000000000000000000000000000000000000000000000000000000\n      dup2\n      mstore\n      0x04\n      add\n      tag_91\n      swap1\n      tag_92\n      jump\t// in\n    tag_91:\n      mload(0x40)\n      dup1\n      swap2\n      sub\n      swap1\n      revert\n    tag_90:\n        /* \"contracts/Fiduciary.sol\":2986:2987  0 */\n      0x00\n        /* \"contracts/Fiduciary.sol\":2952:2961  relations */\n      0x01\n        /* \"contracts/Fiduciary.sol\":2952:2973  relations[msg.sender] */\n      0x00\n        /* \"contracts/Fiduciary.sol\":2962:2972  msg.sender */\n      caller\n        /* \"contracts/Fiduciary.sol\":2952:2973  relations[msg.sender] */\n      0xffffffffffffffffffffffffffffffffffffffff\n      and\n      0xffffffffffffffffffffffffffffffffffffffff\n      and\n      dup2\n      mstore\n      0x20\n      add\n      swap1\n      dup2\n      mstore\n      0x20\n      add\n      0x00\n      keccak256\n        /* \"contracts/Fiduciary.sol\":2952:2982  relations[msg.sender].deadline */\n      0x06\n      add\n      sload\n        /* \"contracts/Fiduciary.sol\":2952:2987  relations[msg.sender].deadline == 0 */\n      eq\n        /* \"contracts/Fiduciary.sol\":2944:3039  require(relations[msg.sender].deadline == 0, \"A deadline already exists for this relationship\") */\n      tag_93\n      jumpi\n      mload(0x40)\n      0x08c379a000000000000000000000000000000000000000000000000000000000\n      dup2\n      mstore\n      0x04\n      add\n      tag_94\n      swap1\n      tag_95\n      jump\t// in\n    tag_94:\n      mload(0x40)\n      dup1\n      swap2\n      sub\n      swap1\n      revert\n    tag_93:\n        /* \"contracts/Fiduciary.sol\":3101:3110  _deadline */\n      dup1\n        /* \"contracts/Fiduciary.sol\":3083:3098  block.timestamp */\n      timestamp\n        /* \"contracts/Fiduciary.sol\":3083:3110  block.timestamp + _deadline */\n      tag_96\n      swap2\n      swap1\n      tag_78\n      jump\t// in\n    tag_96:\n        /* \"contracts/Fiduciary.sol\":3050:3059  relations */\n      0x01\n        /* \"contracts/Fiduciary.sol\":3050:3071  relations[msg.sender] */\n      0x00\n        /* \"contracts/Fiduciary.sol\":3060:3070  msg.sender */\n      caller\n        /* \"contracts/Fiduciary.sol\":3050:3071  relations[msg.sender] */\n      0xffffffffffffffffffffffffffffffffffffffff\n      and\n      0xffffffffffffffffffffffffffffffffffffffff\n      and\n      dup2\n      mstore\n      0x20\n      add\n      swap1\n      dup2\n      mstore\n      0x20\n      add\n      0x00\n      keccak256\n        /* \"contracts/Fiduciary.sol\":3050:3080  relations[msg.sender].deadline */\n      0x06\n      add\n        /* \"contracts/Fiduciary.sol\":3050:3110  relations[msg.sender].deadline = block.timestamp + _deadline */\n      dup2\n      swap1\n      sstore\n      pop\n        /* \"contracts/Fiduciary.sol\":2812:3118  function addDeadline(uint _deadline) public onlySettlor{... */\n      pop\n      jump\t// out\n        /* \"contracts/Fiduciary.sol\":4865:5878  function withdraw(address _settlor) public payable returns (bool) {... */\n    tag_37:\n        /* \"contracts/Fiduciary.sol\":4925:4929  bool */\n      0x00\n        /* \"contracts/Fiduciary.sol\":4942:4970  address payable _beneficiary */\n      dup1\n        /* \"contracts/Fiduciary.sol\":4982:4992  msg.sender */\n      caller\n        /* \"contracts/Fiduciary.sol\":4942:4993  address payable _beneficiary = payable (msg.sender) */\n      swap1\n      pop\n        /* \"contracts/Fiduciary.sol\":5004:5046  FiduciaryRelationship storage relationship */\n      0x00\n        /* \"contracts/Fiduciary.sol\":5049:5058  relations */\n      0x01\n        /* \"contracts/Fiduciary.sol\":5049:5068  relations[_settlor] */\n      0x00\n        /* \"contracts/Fiduciary.sol\":5059:5067  _settlor */\n      dup6\n        /* \"contracts/Fiduciary.sol\":5049:5068  relations[_settlor] */\n      0xffffffffffffffffffffffffffffffffffffffff\n      and\n      0xffffffffffffffffffffffffffffffffffffffff\n      and\n      dup2\n      mstore\n      0x20\n      add\n      swap1\n      dup2\n      mstore\n      0x20\n      add\n      0x00\n      keccak256\n        /* \"contracts/Fiduciary.sol\":5004:5068  FiduciaryRelationship storage relationship = relations[_settlor] */\n      swap1\n      pop\n        /* \"contracts/Fiduciary.sol\":5088:5131  containsBeneficiary(_settlor, _beneficiary) */\n      tag_98\n        /* \"contracts/Fiduciary.sol\":5108:5116  _settlor */\n      dup5\n        /* \"contracts/Fiduciary.sol\":5118:5130  _beneficiary */\n      dup4\n        /* \"contracts/Fiduciary.sol\":5088:5107  containsBeneficiary */\n      tag_99\n        /* \"contracts/Fiduciary.sol\":5088:5131  containsBeneficiary(_settlor, _beneficiary) */\n      jump\t// in\n    tag_98:\n        /* \"contracts/Fiduciary.sol\":5080:5182  require(containsBeneficiary(_settlor, _beneficiary), \"Beneficiary doesn't exists in the relationship\") */\n      tag_100\n      jumpi\n      mload(0x40)\n      0x08c379a000000000000000000000000000000000000000000000000000000000\n      dup2\n      mstore\n      0x04\n      add\n      tag_101\n      swap1\n      tag_102\n      jump\t// in\n    tag_101:\n      mload(0x40)\n      dup1\n      swap2\n      sub\n      swap1\n      revert\n    tag_100:\n        /* \"contracts/Fiduciary.sol\":5220:5232  relationship */\n      dup1\n        /* \"contracts/Fiduciary.sol\":5220:5241  relationship.deadline */\n      0x06\n      add\n      sload\n        /* \"contracts/Fiduciary.sol\":5202:5217  block.timestamp */\n      timestamp\n        /* \"contracts/Fiduciary.sol\":5202:5241  block.timestamp > relationship.deadline */\n      gt\n        /* \"contracts/Fiduciary.sol\":5194:5277  require(block.timestamp > relationship.deadline, \"The deadline hasn't been passed\") */\n      tag_103\n      jumpi\n      mload(0x40)\n      0x08c379a000000000000000000000000000000000000000000000000000000000\n      dup2\n      mstore\n      0x04\n      add\n      tag_104\n      swap1\n      tag_105\n      jump\t// in\n    tag_104:\n      mload(0x40)\n      dup1\n      swap2\n      sub\n      swap1\n      revert\n    tag_103:\n        /* \"contracts/Fiduciary.sol\":5289:5310  uint withdrawalAmount */\n      0x00\n        /* \"contracts/Fiduciary.sol\":5401:5404  100 */\n      0x64\n        /* \"contracts/Fiduciary.sol\":5345:5357  relationship */\n      dup3\n        /* \"contracts/Fiduciary.sol\":5345:5372  relationship.beneficiariesP */\n      0x01\n      add\n        /* \"contracts/Fiduciary.sol\":5345:5386  relationship.beneficiariesP[_beneficiary] */\n      0x00\n        /* \"contracts/Fiduciary.sol\":5373:5385  _beneficiary */\n      dup6\n        /* \"contracts/Fiduciary.sol\":5345:5386  relationship.beneficiariesP[_beneficiary] */\n      0xffffffffffffffffffffffffffffffffffffffff\n      and\n      0xffffffffffffffffffffffffffffffffffffffff\n      and\n      dup2\n      mstore\n      0x20\n      add\n      swap1\n      dup2\n      mstore\n      0x20\n      add\n      0x00\n      keccak256\n        /* \"contracts/Fiduciary.sol\":5345:5397  relationship.beneficiariesP[_beneficiary].percentage */\n      0x00\n      add\n      sload\n        /* \"contracts/Fiduciary.sol\":5314:5326  relationship */\n      dup4\n        /* \"contracts/Fiduciary.sol\":5314:5342  relationship.auxiliarBalance */\n      0x03\n      add\n      sload\n        /* \"contracts/Fiduciary.sol\":5314:5397  relationship.auxiliarBalance * relationship.beneficiariesP[_beneficiary].percentage */\n      tag_106\n      swap2\n      swap1\n      tag_107\n      jump\t// in\n    tag_106:\n        /* \"contracts/Fiduciary.sol\":5313:5404  (relationship.auxiliarBalance * relationship.beneficiariesP[_beneficiary].percentage) / 100 */\n      tag_108\n      swap2\n      swap1\n      tag_109\n      jump\t// in\n    tag_108:\n        /* \"contracts/Fiduciary.sol\":5289:5404  uint withdrawalAmount = (relationship.auxiliarBalance * relationship.beneficiariesP[_beneficiary].percentage) / 100 */\n      swap1\n      pop\n        /* \"contracts/Fiduciary.sol\":5478:5500  bool operationExecuted */\n      0x00\n        /* \"contracts/Fiduciary.sol\":5503:5515  _beneficiary */\n      dup4\n        /* \"contracts/Fiduciary.sol\":5503:5520  _beneficiary.send */\n      0xffffffffffffffffffffffffffffffffffffffff\n      and\n        /* \"contracts/Fiduciary.sol\":5503:5538  _beneficiary.send(withdrawalAmount) */\n      0x08fc\n        /* \"contracts/Fiduciary.sol\":5521:5537  withdrawalAmount */\n      dup4\n        /* \"contracts/Fiduciary.sol\":5503:5538  _beneficiary.send(withdrawalAmount) */\n      swap1\n      dup2\n      iszero\n      mul\n      swap1\n      mload(0x40)\n      0x00\n      mload(0x40)\n      dup1\n      dup4\n      sub\n      dup2\n      dup6\n      dup9\n      dup9\n      call\n      swap4\n      pop\n      pop\n      pop\n      pop\n        /* \"contracts/Fiduciary.sol\":5478:5538  bool operationExecuted = _beneficiary.send(withdrawalAmount) */\n      swap1\n      pop\n        /* \"contracts/Fiduciary.sol\":5558:5575  operationExecuted */\n      dup1\n        /* \"contracts/Fiduciary.sol\":5549:5614  require (operationExecuted, \"The balance could not be withdrawn\") */\n      tag_111\n      jumpi\n      mload(0x40)\n      0x08c379a000000000000000000000000000000000000000000000000000000000\n      dup2\n      mstore\n      0x04\n      add\n      tag_112\n      swap1\n      tag_113\n      jump\t// in\n    tag_112:\n      mload(0x40)\n      dup1\n      swap2\n      sub\n      swap1\n      revert\n    tag_111:\n        /* \"contracts/Fiduciary.sol\":5679:5695  withdrawalAmount */\n      dup2\n        /* \"contracts/Fiduciary.sol\":5626:5638  relationship */\n      dup4\n        /* \"contracts/Fiduciary.sol\":5626:5653  relationship.beneficiariesP */\n      0x01\n      add\n        /* \"contracts/Fiduciary.sol\":5626:5667  relationship.beneficiariesP[_beneficiary] */\n      0x00\n        /* \"contracts/Fiduciary.sol\":5654:5666  _beneficiary */\n      dup7\n        /* \"contracts/Fiduciary.sol\":5626:5667  relationship.beneficiariesP[_beneficiary] */\n      0xffffffffffffffffffffffffffffffffffffffff\n      and\n      0xffffffffffffffffffffffffffffffffffffffff\n      and\n      dup2\n      mstore\n      0x20\n      add\n      swap1\n      dup2\n      mstore\n      0x20\n      add\n      0x00\n      keccak256\n        /* \"contracts/Fiduciary.sol\":5626:5675  relationship.beneficiariesP[_beneficiary].balance */\n      0x01\n      add\n      0x00\n        /* \"contracts/Fiduciary.sol\":5626:5695  relationship.beneficiariesP[_beneficiary].balance += withdrawalAmount */\n      dup3\n      dup3\n      sload\n      tag_114\n      swap2\n      swap1\n      tag_78\n      jump\t// in\n    tag_114:\n      swap3\n      pop\n      pop\n      dup2\n      swap1\n      sstore\n      pop\n        /* \"contracts/Fiduciary.sol\":5735:5751  withdrawalAmount */\n      dup2\n        /* \"contracts/Fiduciary.sol\":5706:5718  relationship */\n      dup4\n        /* \"contracts/Fiduciary.sol\":5706:5731  relationship.trustBalance */\n      0x02\n      add\n      0x00\n        /* \"contracts/Fiduciary.sol\":5706:5751  relationship.trustBalance -= withdrawalAmount */\n      dup3\n      dup3\n      sload\n      tag_115\n      swap2\n      swap1\n      tag_116\n      jump\t// in\n    tag_115:\n      swap3\n      pop\n      pop\n      dup2\n      swap1\n      sstore\n      pop\n        /* \"contracts/Fiduciary.sol\":5778:5794  withdrawalAmount */\n      dup2\n        /* \"contracts/Fiduciary.sol\":5762:5774  totalBalance */\n      0x03\n      0x00\n        /* \"contracts/Fiduciary.sol\":5762:5794  totalBalance -= withdrawalAmount */\n      dup3\n      dup3\n      sload\n      tag_117\n      swap2\n      swap1\n      tag_116\n      jump\t// in\n    tag_117:\n      swap3\n      pop\n      pop\n      dup2\n      swap1\n      sstore\n      pop\n        /* \"contracts/Fiduciary.sol\":5826:5847  address(this).balance */\n      selfbalance\n        /* \"contracts/Fiduciary.sol\":5812:5824  totalBalance */\n      sload(0x03)\n        /* \"contracts/Fiduciary.sol\":5812:5847  totalBalance==address(this).balance */\n      eq\n        /* \"contracts/Fiduciary.sol\":5805:5848  assert(totalBalance==address(this).balance) */\n      tag_118\n      jumpi\n      tag_119\n      tag_66\n      jump\t// in\n    tag_119:\n    tag_118:\n        /* \"contracts/Fiduciary.sol\":5866:5870  true */\n      0x01\n        /* \"contracts/Fiduciary.sol\":5859:5870  return true */\n      swap5\n      pop\n      pop\n      pop\n      pop\n      pop\n        /* \"contracts/Fiduciary.sol\":4865:5878  function withdraw(address _settlor) public payable returns (bool) {... */\n      swap2\n      swap1\n      pop\n      jump\t// out\n        /* \"contracts/Fiduciary.sol\":927:1026  function isRegulator() public view returns (bool) {... */\n    tag_41:\n        /* \"contracts/Fiduciary.sol\":971:975  bool */\n      0x00\n        /* \"contracts/Fiduciary.sol\":1009:1018  regulator */\n      dup1\n      0x00\n      swap1\n      sload\n      swap1\n      0x0100\n      exp\n      swap1\n      div\n      0xffffffffffffffffffffffffffffffffffffffff\n      and\n        /* \"contracts/Fiduciary.sol\":995:1018  msg.sender == regulator */\n      0xffffffffffffffffffffffffffffffffffffffff\n      and\n        /* \"contracts/Fiduciary.sol\":995:1005  msg.sender */\n      caller\n        /* \"contracts/Fiduciary.sol\":995:1018  msg.sender == regulator */\n      0xffffffffffffffffffffffffffffffffffffffff\n      and\n      eq\n        /* \"contracts/Fiduciary.sol\":988:1018  return msg.sender == regulator */\n      swap1\n      pop\n        /* \"contracts/Fiduciary.sol\":927:1026  function isRegulator() public view returns (bool) {... */\n      swap1\n      jump\t// out\n        /* \"contracts/Fiduciary.sol\":3212:4005  function addBeneficiary(address _beneficiary, uint _percentage) public onlySettlor{... */\n    tag_47:\n        /* \"contracts/Fiduciary.sol\":2098:2109  isSettlor() */\n      tag_122\n        /* \"contracts/Fiduciary.sol\":2098:2107  isSettlor */\n      tag_20\n        /* \"contracts/Fiduciary.sol\":2098:2109  isSettlor() */\n      jump\t// in\n    tag_122:\n        /* \"contracts/Fiduciary.sol\":2090:2151  require(isSettlor(), \"Only a settlor can call this function\") */\n      tag_123\n      jumpi\n      mload(0x40)\n      0x08c379a000000000000000000000000000000000000000000000000000000000\n      dup2\n      mstore\n      0x04\n      add\n      tag_124\n      swap1\n      tag_71\n      jump\t// in\n    tag_124:\n      mload(0x40)\n      dup1\n      swap2\n      sub\n      swap1\n      revert\n    tag_123:\n        /* \"contracts/Fiduciary.sol\":3347:3348  0 */\n      0x00\n        /* \"contracts/Fiduciary.sol\":3313:3322  relations */\n      0x01\n        /* \"contracts/Fiduciary.sol\":3313:3334  relations[msg.sender] */\n      0x00\n        /* \"contracts/Fiduciary.sol\":3323:3333  msg.sender */\n      caller\n        /* \"contracts/Fiduciary.sol\":3313:3334  relations[msg.sender] */\n      0xffffffffffffffffffffffffffffffffffffffff\n      and\n      0xffffffffffffffffffffffffffffffffffffffff\n      and\n      dup2\n      mstore\n      0x20\n      add\n      swap1\n      dup2\n      mstore\n      0x20\n      add\n      0x00\n      keccak256\n        /* \"contracts/Fiduciary.sol\":3313:3343  relations[msg.sender].deadline */\n      0x06\n      add\n      sload\n        /* \"contracts/Fiduciary.sol\":3313:3348  relations[msg.sender].deadline != 0 */\n      sub\n        /* \"contracts/Fiduciary.sol\":3305:3372  require(relations[msg.sender].deadline != 0, \"Deadline has passed\") */\n      tag_126\n      jumpi\n      mload(0x40)\n      0x08c379a000000000000000000000000000000000000000000000000000000000\n      dup2\n      mstore\n      0x04\n      add\n      tag_127\n      swap1\n      tag_76\n      jump\t// in\n    tag_127:\n      mload(0x40)\n      dup1\n      swap2\n      sub\n      swap1\n      revert\n    tag_126:\n        /* \"contracts/Fiduciary.sol\":3392:3437  containsBeneficiary(msg.sender, _beneficiary) */\n      tag_128\n        /* \"contracts/Fiduciary.sol\":3412:3422  msg.sender */\n      caller\n        /* \"contracts/Fiduciary.sol\":3424:3436  _beneficiary */\n      dup4\n        /* \"contracts/Fiduciary.sol\":3392:3411  containsBeneficiary */\n      tag_99\n        /* \"contracts/Fiduciary.sol\":3392:3437  containsBeneficiary(msg.sender, _beneficiary) */\n      jump\t// in\n    tag_128:\n        /* \"contracts/Fiduciary.sol\":3391:3437  !containsBeneficiary(msg.sender, _beneficiary) */\n      iszero\n        /* \"contracts/Fiduciary.sol\":3383:3488  require(!containsBeneficiary(msg.sender, _beneficiary), \"Beneficiary already exists in the relationship\") */\n      tag_129\n      jumpi\n      mload(0x40)\n      0x08c379a000000000000000000000000000000000000000000000000000000000\n      dup2\n      mstore\n      0x04\n      add\n      tag_130\n      swap1\n      tag_131\n      jump\t// in\n    tag_130:\n      mload(0x40)\n      dup1\n      swap2\n      sub\n      swap1\n      revert\n    tag_129:\n        /* \"contracts/Fiduciary.sol\":3522:3525  100 */\n      0x64\n        /* \"contracts/Fiduciary.sol\":3507:3518  _percentage */\n      dup2\n        /* \"contracts/Fiduciary.sol\":3507:3525  _percentage <= 100 */\n      gt\n      iszero\n        /* \"contracts/Fiduciary.sol\":3499:3579  require(_percentage <= 100, \"Beneficiary percentage cannot be greater than 100\") */\n      tag_132\n      jumpi\n      mload(0x40)\n      0x08c379a000000000000000000000000000000000000000000000000000000000\n      dup2\n      mstore\n      0x04\n      add\n      tag_133\n      swap1\n      tag_134\n      jump\t// in\n    tag_133:\n      mload(0x40)\n      dup1\n      swap2\n      sub\n      swap1\n      revert\n    tag_132:\n        /* \"contracts/Fiduciary.sol\":3648:3651  100 */\n      0x64\n        /* \"contracts/Fiduciary.sol\":3633:3644  _percentage */\n      dup2\n        /* \"contracts/Fiduciary.sol\":3598:3607  relations */\n      0x01\n        /* \"contracts/Fiduciary.sol\":3598:3619  relations[msg.sender] */\n      0x00\n        /* \"contracts/Fiduciary.sol\":3608:3618  msg.sender */\n      caller\n        /* \"contracts/Fiduciary.sol\":3598:3619  relations[msg.sender] */\n      0xffffffffffffffffffffffffffffffffffffffff\n      and\n      0xffffffffffffffffffffffffffffffffffffffff\n      and\n      dup2\n      mstore\n      0x20\n      add\n      swap1\n      dup2\n      mstore\n      0x20\n      add\n      0x00\n      keccak256\n        /* \"contracts/Fiduciary.sol\":3598:3630  relations[msg.sender].percentage */\n      0x04\n      add\n      sload\n        /* \"contracts/Fiduciary.sol\":3598:3644  relations[msg.sender].percentage + _percentage */\n      tag_135\n      swap2\n      swap1\n      tag_78\n      jump\t// in\n    tag_135:\n        /* \"contracts/Fiduciary.sol\":3598:3651  relations[msg.sender].percentage + _percentage <= 100 */\n      gt\n      iszero\n        /* \"contracts/Fiduciary.sol\":3590:3707  require(relations[msg.sender].percentage + _percentage <= 100, \"Total percentage of beneficiaries cannot exceed 100\") */\n      tag_136\n      jumpi\n      mload(0x40)\n      0x08c379a000000000000000000000000000000000000000000000000000000000\n      dup2\n      mstore\n      0x04\n      add\n      tag_137\n      swap1\n      tag_138\n      jump\t// in\n    tag_137:\n      mload(0x40)\n      dup1\n      swap2\n      sub\n      swap1\n      revert\n    tag_136:\n        /* \"contracts/Fiduciary.sol\":3825:3852  Beneficiary(_percentage, 0) */\n      mload(0x40)\n      dup1\n      0x40\n      add\n      0x40\n      mstore\n      dup1\n        /* \"contracts/Fiduciary.sol\":3837:3848  _percentage */\n      dup3\n        /* \"contracts/Fiduciary.sol\":3825:3852  Beneficiary(_percentage, 0) */\n      dup2\n      mstore\n      0x20\n      add\n        /* \"contracts/Fiduciary.sol\":3850:3851  0 */\n      0x00\n        /* \"contracts/Fiduciary.sol\":3825:3852  Beneficiary(_percentage, 0) */\n      dup2\n      mstore\n      pop\n        /* \"contracts/Fiduciary.sol\":3772:3781  relations */\n      0x01\n        /* \"contracts/Fiduciary.sol\":3772:3793  relations[msg.sender] */\n      0x00\n        /* \"contracts/Fiduciary.sol\":3782:3792  msg.sender */\n      caller\n        /* \"contracts/Fiduciary.sol\":3772:3793  relations[msg.sender] */\n      0xffffffffffffffffffffffffffffffffffffffff\n      and\n      0xffffffffffffffffffffffffffffffffffffffff\n      and\n      dup2\n      mstore\n      0x20\n      add\n      swap1\n      dup2\n      mstore\n      0x20\n      add\n      0x00\n      keccak256\n        /* \"contracts/Fiduciary.sol\":3772:3808  relations[msg.sender].beneficiariesP */\n      0x01\n      add\n        /* \"contracts/Fiduciary.sol\":3772:3822  relations[msg.sender].beneficiariesP[_beneficiary] */\n      0x00\n        /* \"contracts/Fiduciary.sol\":3809:3821  _beneficiary */\n      dup5\n        /* \"contracts/Fiduciary.sol\":3772:3822  relations[msg.sender].beneficiariesP[_beneficiary] */\n      0xffffffffffffffffffffffffffffffffffffffff\n      and\n      0xffffffffffffffffffffffffffffffffffffffff\n      and\n      dup2\n      mstore\n      0x20\n      add\n      swap1\n      dup2\n      mstore\n      0x20\n      add\n      0x00\n      keccak256\n        /* \"contracts/Fiduciary.sol\":3772:3852  relations[msg.sender].beneficiariesP[_beneficiary] = Beneficiary(_percentage, 0) */\n      0x00\n      dup3\n      add\n      mload\n      dup2\n      0x00\n      add\n      sstore\n      0x20\n      dup3\n      add\n      mload\n      dup2\n      0x01\n      add\n      sstore\n      swap1\n      pop\n      pop\n        /* \"contracts/Fiduciary.sol\":3933:3944  _percentage */\n      dup1\n        /* \"contracts/Fiduciary.sol\":3898:3907  relations */\n      0x01\n        /* \"contracts/Fiduciary.sol\":3898:3919  relations[msg.sender] */\n      0x00\n        /* \"contracts/Fiduciary.sol\":3908:3918  msg.sender */\n      caller\n        /* \"contracts/Fiduciary.sol\":3898:3919  relations[msg.sender] */\n      0xffffffffffffffffffffffffffffffffffffffff\n      and\n      0xffffffffffffffffffffffffffffffffffffffff\n      and\n      dup2\n      mstore\n      0x20\n      add\n      swap1\n      dup2\n      mstore\n      0x20\n      add\n      0x00\n      keccak256\n        /* \"contracts/Fiduciary.sol\":3898:3930  relations[msg.sender].percentage */\n      0x04\n      add\n      sload\n        /* \"contracts/Fiduciary.sol\":3898:3944  relations[msg.sender].percentage + _percentage */\n      tag_139\n      swap2\n      swap1\n      tag_78\n      jump\t// in\n    tag_139:\n        /* \"contracts/Fiduciary.sol\":3863:3872  relations */\n      0x01\n        /* \"contracts/Fiduciary.sol\":3863:3884  relations[msg.sender] */\n      0x00\n        /* \"contracts/Fiduciary.sol\":3873:3883  msg.sender */\n      caller\n        /* \"contracts/Fiduciary.sol\":3863:3884  relations[msg.sender] */\n      0xffffffffffffffffffffffffffffffffffffffff\n      and\n      0xffffffffffffffffffffffffffffffffffffffff\n      and\n      dup2\n      mstore\n      0x20\n      add\n      swap1\n      dup2\n      mstore\n      0x20\n      add\n      0x00\n      keccak256\n        /* \"contracts/Fiduciary.sol\":3863:3895  relations[msg.sender].percentage */\n      0x04\n      add\n        /* \"contracts/Fiduciary.sol\":3863:3944  relations[msg.sender].percentage = relations[msg.sender].percentage + _percentage */\n      dup2\n      swap1\n      sstore\n      pop\n        /* \"contracts/Fiduciary.sol\":3955:3964  relations */\n      0x01\n        /* \"contracts/Fiduciary.sol\":3955:3976  relations[msg.sender] */\n      0x00\n        /* \"contracts/Fiduciary.sol\":3965:3975  msg.sender */\n      caller\n        /* \"contracts/Fiduciary.sol\":3955:3976  relations[msg.sender] */\n      0xffffffffffffffffffffffffffffffffffffffff\n      and\n      0xffffffffffffffffffffffffffffffffffffffff\n      and\n      dup2\n      mstore\n      0x20\n      add\n      swap1\n      dup2\n      mstore\n      0x20\n      add\n      0x00\n      keccak256\n        /* \"contracts/Fiduciary.sol\":3955:3995  relations[msg.sender].totalBeneficiaries */\n      0x05\n      add\n      0x00\n        /* \"contracts/Fiduciary.sol\":3955:3997  relations[msg.sender].totalBeneficiaries++ */\n      dup2\n      sload\n      dup1\n      swap3\n      swap2\n      swap1\n      tag_140\n      swap1\n      tag_141\n      jump\t// in\n    tag_140:\n      swap2\n      swap1\n      pop\n      sstore\n      pop\n        /* \"contracts/Fiduciary.sol\":3212:4005  function addBeneficiary(address _beneficiary, uint _percentage) public onlySettlor{... */\n      pop\n      pop\n      jump\t// out\n        /* \"contracts/Fiduciary.sol\":6663:7225  function transferRemainingBalance() public payable onlySettlor {... */\n    tag_49:\n        /* \"contracts/Fiduciary.sol\":2098:2109  isSettlor() */\n      tag_143\n        /* \"contracts/Fiduciary.sol\":2098:2107  isSettlor */\n      tag_20\n        /* \"contracts/Fiduciary.sol\":2098:2109  isSettlor() */\n      jump\t// in\n    tag_143:\n        /* \"contracts/Fiduciary.sol\":2090:2151  require(isSettlor(), \"Only a settlor can call this function\") */\n      tag_144\n      jumpi\n      mload(0x40)\n      0x08c379a000000000000000000000000000000000000000000000000000000000\n      dup2\n      mstore\n      0x04\n      add\n      tag_145\n      swap1\n      tag_71\n      jump\t// in\n    tag_145:\n      mload(0x40)\n      dup1\n      swap2\n      sub\n      swap1\n      revert\n    tag_144:\n        /* \"contracts/Fiduciary.sol\":6737:6779  FiduciaryRelationship storage relationship */\n      0x00\n        /* \"contracts/Fiduciary.sol\":6782:6791  relations */\n      0x01\n        /* \"contracts/Fiduciary.sol\":6782:6803  relations[msg.sender] */\n      0x00\n        /* \"contracts/Fiduciary.sol\":6792:6802  msg.sender */\n      caller\n        /* \"contracts/Fiduciary.sol\":6782:6803  relations[msg.sender] */\n      0xffffffffffffffffffffffffffffffffffffffff\n      and\n      0xffffffffffffffffffffffffffffffffffffffff\n      and\n      dup2\n      mstore\n      0x20\n      add\n      swap1\n      dup2\n      mstore\n      0x20\n      add\n      0x00\n      keccak256\n        /* \"contracts/Fiduciary.sol\":6737:6803  FiduciaryRelationship storage relationship = relations[msg.sender] */\n      swap1\n      pop\n        /* \"contracts/Fiduciary.sol\":6840:6852  relationship */\n      dup1\n        /* \"contracts/Fiduciary.sol\":6840:6861  relationship.deadline */\n      0x06\n      add\n      sload\n        /* \"contracts/Fiduciary.sol\":6822:6837  block.timestamp */\n      timestamp\n        /* \"contracts/Fiduciary.sol\":6822:6861  block.timestamp > relationship.deadline */\n      gt\n        /* \"contracts/Fiduciary.sol\":6814:6897  require(block.timestamp > relationship.deadline, \"The deadline hasn't been passed\") */\n      tag_147\n      jumpi\n      mload(0x40)\n      0x08c379a000000000000000000000000000000000000000000000000000000000\n      dup2\n      mstore\n      0x04\n      add\n      tag_148\n      swap1\n      tag_105\n      jump\t// in\n    tag_148:\n      mload(0x40)\n      dup1\n      swap2\n      sub\n      swap1\n      revert\n    tag_147:\n        /* \"contracts/Fiduciary.sol\":6951:6952  0 */\n      0x00\n        /* \"contracts/Fiduciary.sol\":6916:6928  relationship */\n      dup2\n        /* \"contracts/Fiduciary.sol\":6916:6947  relationship.totalBeneficiaries */\n      0x05\n      add\n      sload\n        /* \"contracts/Fiduciary.sol\":6916:6952  relationship.totalBeneficiaries == 0 */\n      eq\n        /* \"contracts/Fiduciary.sol\":6908:7006  require(relationship.totalBeneficiaries == 0, \"There are still beneficiaries in the relationship\") */\n      tag_149\n      jumpi\n      mload(0x40)\n      0x08c379a000000000000000000000000000000000000000000000000000000000\n      dup2\n      mstore\n      0x04\n      add\n      tag_150\n      swap1\n      tag_151\n      jump\t// in\n    tag_150:\n      mload(0x40)\n      dup1\n      swap2\n      sub\n      swap1\n      revert\n    tag_149:\n        /* \"contracts/Fiduciary.sol\":7027:7037  msg.sender */\n      caller\n        /* \"contracts/Fiduciary.sol\":7019:7047  payable(msg.sender).transfer */\n      0xffffffffffffffffffffffffffffffffffffffff\n      and\n        /* \"contracts/Fiduciary.sol\":7019:7077  payable(msg.sender).transfer(relationship.auxiliarBalance) */\n      0x08fc\n        /* \"contracts/Fiduciary.sol\":7048:7060  relationship */\n      dup3\n        /* \"contracts/Fiduciary.sol\":7048:7076  relationship.auxiliarBalance */\n      0x03\n      add\n      sload\n        /* \"contracts/Fiduciary.sol\":7019:7077  payable(msg.sender).transfer(relationship.auxiliarBalance) */\n      swap1\n      dup2\n      iszero\n      mul\n      swap1\n      mload(0x40)\n      0x00\n      mload(0x40)\n      dup1\n      dup4\n      sub\n      dup2\n      dup6\n      dup9\n      dup9\n      call\n      swap4\n      pop\n      pop\n      pop\n      pop\n      iszero\n      dup1\n      iszero\n      tag_153\n      jumpi\n      returndatasize\n      0x00\n      dup1\n      returndatacopy\n      revert(0x00, returndatasize)\n    tag_153:\n      pop\n        /* \"contracts/Fiduciary.sol\":7118:7119  0 */\n      0x00\n        /* \"contracts/Fiduciary.sol\":7090:7102  relationship */\n      dup2\n        /* \"contracts/Fiduciary.sol\":7090:7115  relationship.trustBalance */\n      0x02\n      add\n        /* \"contracts/Fiduciary.sol\":7090:7119  relationship.trustBalance = 0 */\n      dup2\n      swap1\n      sstore\n      pop\n        /* \"contracts/Fiduciary.sol\":7161:7162  0 */\n      0x00\n        /* \"contracts/Fiduciary.sol\":7130:7142  relationship */\n      dup2\n        /* \"contracts/Fiduciary.sol\":7130:7158  relationship.auxiliarBalance */\n      0x03\n      add\n        /* \"contracts/Fiduciary.sol\":7130:7162  relationship.auxiliarBalance = 0 */\n      dup2\n      swap1\n      sstore\n      pop\n        /* \"contracts/Fiduciary.sol\":7189:7201  relationship */\n      dup1\n        /* \"contracts/Fiduciary.sol\":7189:7217  relationship.auxiliarBalance */\n      0x03\n      add\n      sload\n        /* \"contracts/Fiduciary.sol\":7173:7185  totalBalance */\n      0x03\n      0x00\n        /* \"contracts/Fiduciary.sol\":7173:7217  totalBalance -= relationship.auxiliarBalance */\n      dup3\n      dup3\n      sload\n      tag_154\n      swap2\n      swap1\n      tag_116\n      jump\t// in\n    tag_154:\n      swap3\n      pop\n      pop\n      dup2\n      swap1\n      sstore\n      pop\n        /* \"contracts/Fiduciary.sol\":6726:7225  {... */\n      pop\n        /* \"contracts/Fiduciary.sol\":6663:7225  function transferRemainingBalance() public payable onlySettlor {... */\n      jump\t// out\n        /* \"contracts/Fiduciary.sol\":5967:6542  function liquidateFiduciaryRelationship(address _settlor) public payable onlyRegulator{... */\n    tag_52:\n        /* \"contracts/Fiduciary.sol\":1899:1912  isRegulator() */\n      tag_156\n        /* \"contracts/Fiduciary.sol\":1899:1910  isRegulator */\n      tag_41\n        /* \"contracts/Fiduciary.sol\":1899:1912  isRegulator() */\n      jump\t// in\n    tag_156:\n        /* \"contracts/Fiduciary.sol\":1891:1954  require(isRegulator(), \"Only regulator can call this function\") */\n      tag_157\n      jumpi\n      mload(0x40)\n      0x08c379a000000000000000000000000000000000000000000000000000000000\n      dup2\n      mstore\n      0x04\n      add\n      tag_158\n      swap1\n      tag_57\n      jump\t// in\n    tag_158:\n      mload(0x40)\n      dup1\n      swap2\n      sub\n      swap1\n      revert\n    tag_157:\n        /* \"contracts/Fiduciary.sol\":6104:6112  _settlor */\n      dup1\n        /* \"contracts/Fiduciary.sol\":6073:6112  relations[_settlor].settlor == _settlor */\n      0xffffffffffffffffffffffffffffffffffffffff\n      and\n        /* \"contracts/Fiduciary.sol\":6073:6082  relations */\n      0x01\n        /* \"contracts/Fiduciary.sol\":6073:6092  relations[_settlor] */\n      0x00\n        /* \"contracts/Fiduciary.sol\":6083:6091  _settlor */\n      dup4\n        /* \"contracts/Fiduciary.sol\":6073:6092  relations[_settlor] */\n      0xffffffffffffffffffffffffffffffffffffffff\n      and\n      0xffffffffffffffffffffffffffffffffffffffff\n      and\n      dup2\n      mstore\n      0x20\n      add\n      swap1\n      dup2\n      mstore\n      0x20\n      add\n      0x00\n      keccak256\n        /* \"contracts/Fiduciary.sol\":6073:6100  relations[_settlor].settlor */\n      0x00\n      add\n      0x00\n      swap1\n      sload\n      swap1\n      0x0100\n      exp\n      swap1\n      div\n      0xffffffffffffffffffffffffffffffffffffffff\n      and\n        /* \"contracts/Fiduciary.sol\":6073:6112  relations[_settlor].settlor == _settlor */\n      0xffffffffffffffffffffffffffffffffffffffff\n      and\n      eq\n        /* \"contracts/Fiduciary.sol\":6064:6132  require (relations[_settlor].settlor == _settlor, \"Isn't a settlor\") */\n      tag_160\n      jumpi\n      mload(0x40)\n      0x08c379a000000000000000000000000000000000000000000000000000000000\n      dup2\n      mstore\n      0x04\n      add\n      tag_161\n      swap1\n      tag_162\n      jump\t// in\n    tag_161:\n      mload(0x40)\n      dup1\n      swap2\n      sub\n      swap1\n      revert\n    tag_160:\n        /* \"contracts/Fiduciary.sol\":6143:6164  uint withdrawalAmount */\n      0x00\n        /* \"contracts/Fiduciary.sol\":6167:6176  relations */\n      0x01\n        /* \"contracts/Fiduciary.sol\":6167:6186  relations[_settlor] */\n      0x00\n        /* \"contracts/Fiduciary.sol\":6177:6185  _settlor */\n      dup4\n        /* \"contracts/Fiduciary.sol\":6167:6186  relations[_settlor] */\n      0xffffffffffffffffffffffffffffffffffffffff\n      and\n      0xffffffffffffffffffffffffffffffffffffffff\n      and\n      dup2\n      mstore\n      0x20\n      add\n      swap1\n      dup2\n      mstore\n      0x20\n      add\n      0x00\n      keccak256\n        /* \"contracts/Fiduciary.sol\":6167:6199  relations[_settlor].trustBalance */\n      0x02\n      add\n      sload\n        /* \"contracts/Fiduciary.sol\":6143:6199  uint withdrawalAmount = relations[_settlor].trustBalance */\n      swap1\n      pop\n        /* \"contracts/Fiduciary.sol\":6226:6242  withdrawalAmount */\n      dup1\n        /* \"contracts/Fiduciary.sol\":6210:6222  totalBalance */\n      0x03\n      0x00\n        /* \"contracts/Fiduciary.sol\":6210:6242  totalBalance -= withdrawalAmount */\n      dup3\n      dup3\n      sload\n      tag_163\n      swap2\n      swap1\n      tag_116\n      jump\t// in\n    tag_163:\n      swap3\n      pop\n      pop\n      dup2\n      swap1\n      sstore\n      pop\n        /* \"contracts/Fiduciary.sol\":6253:6275  bool operationExecuted */\n      0x00\n        /* \"contracts/Fiduciary.sol\":6286:6294  _settlor */\n      dup3\n        /* \"contracts/Fiduciary.sol\":6278:6300  payable(_settlor).send */\n      0xffffffffffffffffffffffffffffffffffffffff\n      and\n        /* \"contracts/Fiduciary.sol\":6278:6318  payable(_settlor).send(withdrawalAmount) */\n      0x08fc\n        /* \"contracts/Fiduciary.sol\":6301:6317  withdrawalAmount */\n      dup4\n        /* \"contracts/Fiduciary.sol\":6278:6318  payable(_settlor).send(withdrawalAmount) */\n      swap1\n      dup2\n      iszero\n      mul\n      swap1\n      mload(0x40)\n      0x00\n      mload(0x40)\n      dup1\n      dup4\n      sub\n      dup2\n      dup6\n      dup9\n      dup9\n      call\n      swap4\n      pop\n      pop\n      pop\n      pop\n        /* \"contracts/Fiduciary.sol\":6253:6318  bool operationExecuted = payable(_settlor).send(withdrawalAmount) */\n      swap1\n      pop\n        /* \"contracts/Fiduciary.sol\":6337:6354  operationExecuted */\n      dup1\n        /* \"contracts/Fiduciary.sol\":6329:6394  require(operationExecuted, \"Failed to transfer funds to settlor\") */\n      tag_165\n      jumpi\n      mload(0x40)\n      0x08c379a000000000000000000000000000000000000000000000000000000000\n      dup2\n      mstore\n      0x04\n      add\n      tag_166\n      swap1\n      tag_167\n      jump\t// in\n    tag_166:\n      mload(0x40)\n      dup1\n      swap2\n      sub\n      swap1\n      revert\n    tag_165:\n        /* \"contracts/Fiduciary.sol\":6440:6441  0 */\n      0x00\n        /* \"contracts/Fiduciary.sol\":6405:6414  relations */\n      0x01\n        /* \"contracts/Fiduciary.sol\":6405:6424  relations[_settlor] */\n      0x00\n        /* \"contracts/Fiduciary.sol\":6415:6423  _settlor */\n      dup6\n        /* \"contracts/Fiduciary.sol\":6405:6424  relations[_settlor] */\n      0xffffffffffffffffffffffffffffffffffffffff\n      and\n      0xffffffffffffffffffffffffffffffffffffffff\n      and\n      dup2\n      mstore\n      0x20\n      add\n      swap1\n      dup2\n      mstore\n      0x20\n      add\n      0x00\n      keccak256\n        /* \"contracts/Fiduciary.sol\":6405:6437  relations[_settlor].trustBalance */\n      0x02\n      add\n        /* \"contracts/Fiduciary.sol\":6405:6441  relations[_settlor].trustBalance = 0 */\n      dup2\n      swap1\n      sstore\n      pop\n        /* \"contracts/Fiduciary.sol\":6490:6491  0 */\n      0x00\n        /* \"contracts/Fiduciary.sol\":6452:6461  relations */\n      0x01\n        /* \"contracts/Fiduciary.sol\":6452:6471  relations[_settlor] */\n      0x00\n        /* \"contracts/Fiduciary.sol\":6462:6470  _settlor */\n      dup6\n        /* \"contracts/Fiduciary.sol\":6452:6471  relations[_settlor] */\n      0xffffffffffffffffffffffffffffffffffffffff\n      and\n      0xffffffffffffffffffffffffffffffffffffffff\n      and\n      dup2\n      mstore\n      0x20\n      add\n      swap1\n      dup2\n      mstore\n      0x20\n      add\n      0x00\n      keccak256\n        /* \"contracts/Fiduciary.sol\":6452:6487  relations[_settlor].auxiliarBalance */\n      0x03\n      add\n        /* \"contracts/Fiduciary.sol\":6452:6491  relations[_settlor].auxiliarBalance = 0 */\n      dup2\n      swap1\n      sstore\n      pop\n        /* \"contracts/Fiduciary.sol\":6533:6534  0 */\n      0x00\n        /* \"contracts/Fiduciary.sol\":6502:6511  relations */\n      0x01\n        /* \"contracts/Fiduciary.sol\":6502:6521  relations[_settlor] */\n      0x00\n        /* \"contracts/Fiduciary.sol\":6512:6520  _settlor */\n      dup6\n        /* \"contracts/Fiduciary.sol\":6502:6521  relations[_settlor] */\n      0xffffffffffffffffffffffffffffffffffffffff\n      and\n      0xffffffffffffffffffffffffffffffffffffffff\n      and\n      dup2\n      mstore\n      0x20\n      add\n      swap1\n      dup2\n      mstore\n      0x20\n      add\n      0x00\n      keccak256\n        /* \"contracts/Fiduciary.sol\":6502:6530  relations[_settlor].deadline */\n      0x06\n      add\n        /* \"contracts/Fiduciary.sol\":6502:6534  relations[_settlor].deadline = 0 */\n      dup2\n      swap1\n      sstore\n      pop\n        /* \"contracts/Fiduciary.sol\":6053:6542  {... */\n      pop\n      pop\n        /* \"contracts/Fiduciary.sol\":5967:6542  function liquidateFiduciaryRelationship(address _settlor) public payable onlyRegulator{... */\n      pop\n      jump\t// out\n        /* \"contracts/Fiduciary.sol\":1629:1787  function isValidDeadline(uint256 _deadline) private pure returns (bool) {... */\n    tag_89:\n        /* \"contracts/Fiduciary.sol\":1695:1699  bool */\n      0x00\n        /* \"contracts/Fiduciary.sol\":1729:1730  0 */\n      dup1\n        /* \"contracts/Fiduciary.sol\":1716:1725  _deadline */\n      dup3\n        /* \"contracts/Fiduciary.sol\":1716:1730  _deadline == 0 */\n      sub\n        /* \"contracts/Fiduciary.sol\":1712:1757  if (_deadline == 0)... */\n      tag_169\n      jumpi\n        /* \"contracts/Fiduciary.sol\":1752:1757  false */\n      0x00\n        /* \"contracts/Fiduciary.sol\":1745:1757  return false */\n      swap1\n      pop\n      jump(tag_168)\n        /* \"contracts/Fiduciary.sol\":1712:1757  if (_deadline == 0)... */\n    tag_169:\n        /* \"contracts/Fiduciary.sol\":1775:1779  true */\n      0x01\n        /* \"contracts/Fiduciary.sol\":1768:1779  return true */\n      swap1\n      pop\n        /* \"contracts/Fiduciary.sol\":1629:1787  function isValidDeadline(uint256 _deadline) private pure returns (bool) {... */\n    tag_168:\n      swap2\n      swap1\n      pop\n      jump\t// out\n        /* \"contracts/Fiduciary.sol\":1116:1302  function containsBeneficiary(address _settlor, address _beneficiary) private view returns (bool) {... */\n    tag_99:\n        /* \"contracts/Fiduciary.sol\":1207:1211  bool */\n      0x00\n        /* \"contracts/Fiduciary.sol\":1293:1294  0 */\n      dup1\n        /* \"contracts/Fiduciary.sol\":1231:1240  relations */\n      0x01\n        /* \"contracts/Fiduciary.sol\":1231:1250  relations[_settlor] */\n      0x00\n        /* \"contracts/Fiduciary.sol\":1241:1249  _settlor */\n      dup6\n        /* \"contracts/Fiduciary.sol\":1231:1250  relations[_settlor] */\n      0xffffffffffffffffffffffffffffffffffffffff\n      and\n      0xffffffffffffffffffffffffffffffffffffffff\n      and\n      dup2\n      mstore\n      0x20\n      add\n      swap1\n      dup2\n      mstore\n      0x20\n      add\n      0x00\n      keccak256\n        /* \"contracts/Fiduciary.sol\":1231:1265  relations[_settlor].beneficiariesP */\n      0x01\n      add\n        /* \"contracts/Fiduciary.sol\":1231:1279  relations[_settlor].beneficiariesP[_beneficiary] */\n      0x00\n        /* \"contracts/Fiduciary.sol\":1266:1278  _beneficiary */\n      dup5\n        /* \"contracts/Fiduciary.sol\":1231:1279  relations[_settlor].beneficiariesP[_beneficiary] */\n      0xffffffffffffffffffffffffffffffffffffffff\n      and\n      0xffffffffffffffffffffffffffffffffffffffff\n      and\n      dup2\n      mstore\n      0x20\n      add\n      swap1\n      dup2\n      mstore\n      0x20\n      add\n      0x00\n      keccak256\n        /* \"contracts/Fiduciary.sol\":1231:1290  relations[_settlor].beneficiariesP[_beneficiary].percentage */\n      0x00\n      add\n      sload\n        /* \"contracts/Fiduciary.sol\":1231:1294  relations[_settlor].beneficiariesP[_beneficiary].percentage > 0 */\n      gt\n        /* \"contracts/Fiduciary.sol\":1224:1294  return relations[_settlor].beneficiariesP[_beneficiary].percentage > 0 */\n      swap1\n      pop\n        /* \"contracts/Fiduciary.sol\":1116:1302  function containsBeneficiary(address _settlor, address _beneficiary) private view returns (bool) {... */\n      swap3\n      swap2\n      pop\n      pop\n      jump\t// out\n        /* \"#utility.yul\":88:205   */\n    tag_172:\n        /* \"#utility.yul\":197:198   */\n      0x00\n        /* \"#utility.yul\":194:195   */\n      dup1\n        /* \"#utility.yul\":187:199   */\n      revert\n        /* \"#utility.yul\":334:460   */\n    tag_174:\n        /* \"#utility.yul\":371:378   */\n      0x00\n        /* \"#utility.yul\":411:453   */\n      0xffffffffffffffffffffffffffffffffffffffff\n        /* \"#utility.yul\":404:409   */\n      dup3\n        /* \"#utility.yul\":400:454   */\n      and\n        /* \"#utility.yul\":389:454   */\n      swap1\n      pop\n        /* \"#utility.yul\":334:460   */\n      swap2\n      swap1\n      pop\n      jump\t// out\n        /* \"#utility.yul\":466:562   */\n    tag_175:\n        /* \"#utility.yul\":503:510   */\n      0x00\n        /* \"#utility.yul\":532:556   */\n      tag_223\n        /* \"#utility.yul\":550:555   */\n      dup3\n        /* \"#utility.yul\":532:556   */\n      tag_174\n      jump\t// in\n    tag_223:\n        /* \"#utility.yul\":521:556   */\n      swap1\n      pop\n        /* \"#utility.yul\":466:562   */\n      swap2\n      swap1\n      pop\n      jump\t// out\n        /* \"#utility.yul\":568:690   */\n    tag_176:\n        /* \"#utility.yul\":641:665   */\n      tag_225\n        /* \"#utility.yul\":659:664   */\n      dup2\n        /* \"#utility.yul\":641:665   */\n      tag_175\n      jump\t// in\n    tag_225:\n        /* \"#utility.yul\":634:639   */\n      dup2\n        /* \"#utility.yul\":631:666   */\n      eq\n        /* \"#utility.yul\":621:684   */\n      tag_226\n      jumpi\n        /* \"#utility.yul\":680:681   */\n      0x00\n        /* \"#utility.yul\":677:678   */\n      dup1\n        /* \"#utility.yul\":670:682   */\n      revert\n        /* \"#utility.yul\":621:684   */\n    tag_226:\n        /* \"#utility.yul\":568:690   */\n      pop\n      jump\t// out\n        /* \"#utility.yul\":696:835   */\n    tag_177:\n        /* \"#utility.yul\":742:747   */\n      0x00\n        /* \"#utility.yul\":780:786   */\n      dup2\n        /* \"#utility.yul\":767:787   */\n      calldataload\n        /* \"#utility.yul\":758:787   */\n      swap1\n      pop\n        /* \"#utility.yul\":796:829   */\n      tag_228\n        /* \"#utility.yul\":823:828   */\n      dup2\n        /* \"#utility.yul\":796:829   */\n      tag_176\n      jump\t// in\n    tag_228:\n        /* \"#utility.yul\":696:835   */\n      swap3\n      swap2\n      pop\n      pop\n      jump\t// out\n        /* \"#utility.yul\":841:1170   */\n    tag_16:\n        /* \"#utility.yul\":900:906   */\n      0x00\n        /* \"#utility.yul\":949:951   */\n      0x20\n        /* \"#utility.yul\":937:946   */\n      dup3\n        /* \"#utility.yul\":928:935   */\n      dup5\n        /* \"#utility.yul\":924:947   */\n      sub\n        /* \"#utility.yul\":920:952   */\n      slt\n        /* \"#utility.yul\":917:1036   */\n      iszero\n      tag_230\n      jumpi\n        /* \"#utility.yul\":955:1034   */\n      tag_231\n      tag_172\n      jump\t// in\n    tag_231:\n        /* \"#utility.yul\":917:1036   */\n    tag_230:\n        /* \"#utility.yul\":1075:1076   */\n      0x00\n        /* \"#utility.yul\":1100:1153   */\n      tag_232\n        /* \"#utility.yul\":1145:1152   */\n      dup5\n        /* \"#utility.yul\":1136:1142   */\n      dup3\n        /* \"#utility.yul\":1125:1134   */\n      dup6\n        /* \"#utility.yul\":1121:1143   */\n      add\n        /* \"#utility.yul\":1100:1153   */\n      tag_177\n      jump\t// in\n    tag_232:\n        /* \"#utility.yul\":1090:1153   */\n      swap2\n      pop\n        /* \"#utility.yul\":1046:1163   */\n      pop\n        /* \"#utility.yul\":841:1170   */\n      swap3\n      swap2\n      pop\n      pop\n      jump\t// out\n        /* \"#utility.yul\":1176:1266   */\n    tag_178:\n        /* \"#utility.yul\":1210:1217   */\n      0x00\n        /* \"#utility.yul\":1253:1258   */\n      dup2\n        /* \"#utility.yul\":1246:1259   */\n      iszero\n        /* \"#utility.yul\":1239:1260   */\n      iszero\n        /* \"#utility.yul\":1228:1260   */\n      swap1\n      pop\n        /* \"#utility.yul\":1176:1266   */\n      swap2\n      swap1\n      pop\n      jump\t// out\n        /* \"#utility.yul\":1272:1381   */\n    tag_179:\n        /* \"#utility.yul\":1353:1374   */\n      tag_235\n        /* \"#utility.yul\":1368:1373   */\n      dup2\n        /* \"#utility.yul\":1353:1374   */\n      tag_178\n      jump\t// in\n    tag_235:\n        /* \"#utility.yul\":1348:1351   */\n      dup3\n        /* \"#utility.yul\":1341:1375   */\n      mstore\n        /* \"#utility.yul\":1272:1381   */\n      pop\n      pop\n      jump\t// out\n        /* \"#utility.yul\":1387:1597   */\n    tag_22:\n        /* \"#utility.yul\":1474:1478   */\n      0x00\n        /* \"#utility.yul\":1512:1514   */\n      0x20\n        /* \"#utility.yul\":1501:1510   */\n      dup3\n        /* \"#utility.yul\":1497:1515   */\n      add\n        /* \"#utility.yul\":1489:1515   */\n      swap1\n      pop\n        /* \"#utility.yul\":1525:1590   */\n      tag_237\n        /* \"#utility.yul\":1587:1588   */\n      0x00\n        /* \"#utility.yul\":1576:1585   */\n      dup4\n        /* \"#utility.yul\":1572:1589   */\n      add\n        /* \"#utility.yul\":1563:1569   */\n      dup5\n        /* \"#utility.yul\":1525:1590   */\n      tag_179\n      jump\t// in\n    tag_237:\n        /* \"#utility.yul\":1387:1597   */\n      swap3\n      swap2\n      pop\n      pop\n      jump\t// out\n        /* \"#utility.yul\":1603:1680   */\n    tag_180:\n        /* \"#utility.yul\":1640:1647   */\n      0x00\n        /* \"#utility.yul\":1669:1674   */\n      dup2\n        /* \"#utility.yul\":1658:1674   */\n      swap1\n      pop\n        /* \"#utility.yul\":1603:1680   */\n      swap2\n      swap1\n      pop\n      jump\t// out\n        /* \"#utility.yul\":1686:1804   */\n    tag_181:\n        /* \"#utility.yul\":1773:1797   */\n      tag_240\n        /* \"#utility.yul\":1791:1796   */\n      dup2\n        /* \"#utility.yul\":1773:1797   */\n      tag_180\n      jump\t// in\n    tag_240:\n        /* \"#utility.yul\":1768:1771   */\n      dup3\n        /* \"#utility.yul\":1761:1798   */\n      mstore\n        /* \"#utility.yul\":1686:1804   */\n      pop\n      pop\n      jump\t// out\n        /* \"#utility.yul\":1810:2032   */\n    tag_27:\n        /* \"#utility.yul\":1903:1907   */\n      0x00\n        /* \"#utility.yul\":1941:1943   */\n      0x20\n        /* \"#utility.yul\":1930:1939   */\n      dup3\n        /* \"#utility.yul\":1926:1944   */\n      add\n        /* \"#utility.yul\":1918:1944   */\n      swap1\n      pop\n        /* \"#utility.yul\":1954:2025   */\n      tag_242\n        /* \"#utility.yul\":2022:2023   */\n      0x00\n        /* \"#utility.yul\":2011:2020   */\n      dup4\n        /* \"#utility.yul\":2007:2024   */\n      add\n        /* \"#utility.yul\":1998:2004   */\n      dup5\n        /* \"#utility.yul\":1954:2025   */\n      tag_181\n      jump\t// in\n    tag_242:\n        /* \"#utility.yul\":1810:2032   */\n      swap3\n      swap2\n      pop\n      pop\n      jump\t// out\n        /* \"#utility.yul\":2038:2160   */\n    tag_182:\n        /* \"#utility.yul\":2111:2135   */\n      tag_244\n        /* \"#utility.yul\":2129:2134   */\n      dup2\n        /* \"#utility.yul\":2111:2135   */\n      tag_180\n      jump\t// in\n    tag_244:\n        /* \"#utility.yul\":2104:2109   */\n      dup2\n        /* \"#utility.yul\":2101:2136   */\n      eq\n        /* \"#utility.yul\":2091:2154   */\n      tag_245\n      jumpi\n        /* \"#utility.yul\":2150:2151   */\n      0x00\n        /* \"#utility.yul\":2147:2148   */\n      dup1\n        /* \"#utility.yul\":2140:2152   */\n      revert\n        /* \"#utility.yul\":2091:2154   */\n    tag_245:\n        /* \"#utility.yul\":2038:2160   */\n      pop\n      jump\t// out\n        /* \"#utility.yul\":2166:2305   */\n    tag_183:\n        /* \"#utility.yul\":2212:2217   */\n      0x00\n        /* \"#utility.yul\":2250:2256   */\n      dup2\n        /* \"#utility.yul\":2237:2257   */\n      calldataload\n        /* \"#utility.yul\":2228:2257   */\n      swap1\n      pop\n        /* \"#utility.yul\":2266:2299   */\n      tag_247\n        /* \"#utility.yul\":2293:2298   */\n      dup2\n        /* \"#utility.yul\":2266:2299   */\n      tag_182\n      jump\t// in\n    tag_247:\n        /* \"#utility.yul\":2166:2305   */\n      swap3\n      swap2\n      pop\n      pop\n      jump\t// out\n        /* \"#utility.yul\":2311:2640   */\n    tag_33:\n        /* \"#utility.yul\":2370:2376   */\n      0x00\n        /* \"#utility.yul\":2419:2421   */\n      0x20\n        /* \"#utility.yul\":2407:2416   */\n      dup3\n        /* \"#utility.yul\":2398:2405   */\n      dup5\n        /* \"#utility.yul\":2394:2417   */\n      sub\n        /* \"#utility.yul\":2390:2422   */\n      slt\n        /* \"#utility.yul\":2387:2506   */\n      iszero\n      tag_249\n      jumpi\n        /* \"#utility.yul\":2425:2504   */\n      tag_250\n      tag_172\n      jump\t// in\n    tag_250:\n        /* \"#utility.yul\":2387:2506   */\n    tag_249:\n        /* \"#utility.yul\":2545:2546   */\n      0x00\n        /* \"#utility.yul\":2570:2623   */\n      tag_251\n        /* \"#utility.yul\":2615:2622   */\n      dup5\n        /* \"#utility.yul\":2606:2612   */\n      dup3\n        /* \"#utility.yul\":2595:2604   */\n      dup6\n        /* \"#utility.yul\":2591:2613   */\n      add\n        /* \"#utility.yul\":2570:2623   */\n      tag_183\n      jump\t// in\n    tag_251:\n        /* \"#utility.yul\":2560:2623   */\n      swap2\n      pop\n        /* \"#utility.yul\":2516:2633   */\n      pop\n        /* \"#utility.yul\":2311:2640   */\n      swap3\n      swap2\n      pop\n      pop\n      jump\t// out\n        /* \"#utility.yul\":2646:3120   */\n    tag_46:\n        /* \"#utility.yul\":2714:2720   */\n      0x00\n        /* \"#utility.yul\":2722:2728   */\n      dup1\n        /* \"#utility.yul\":2771:2773   */\n      0x40\n        /* \"#utility.yul\":2759:2768   */\n      dup4\n        /* \"#utility.yul\":2750:2757   */\n      dup6\n        /* \"#utility.yul\":2746:2769   */\n      sub\n        /* \"#utility.yul\":2742:2774   */\n      slt\n        /* \"#utility.yul\":2739:2858   */\n      iszero\n      tag_253\n      jumpi\n        /* \"#utility.yul\":2777:2856   */\n      tag_254\n      tag_172\n      jump\t// in\n    tag_254:\n        /* \"#utility.yul\":2739:2858   */\n    tag_253:\n        /* \"#utility.yul\":2897:2898   */\n      0x00\n        /* \"#utility.yul\":2922:2975   */\n      tag_255\n        /* \"#utility.yul\":2967:2974   */\n      dup6\n        /* \"#utility.yul\":2958:2964   */\n      dup3\n        /* \"#utility.yul\":2947:2956   */\n      dup7\n        /* \"#utility.yul\":2943:2965   */\n      add\n        /* \"#utility.yul\":2922:2975   */\n      tag_177\n      jump\t// in\n    tag_255:\n        /* \"#utility.yul\":2912:2975   */\n      swap3\n      pop\n        /* \"#utility.yul\":2868:2985   */\n      pop\n        /* \"#utility.yul\":3024:3026   */\n      0x20\n        /* \"#utility.yul\":3050:3103   */\n      tag_256\n        /* \"#utility.yul\":3095:3102   */\n      dup6\n        /* \"#utility.yul\":3086:3092   */\n      dup3\n        /* \"#utility.yul\":3075:3084   */\n      dup7\n        /* \"#utility.yul\":3071:3093   */\n      add\n        /* \"#utility.yul\":3050:3103   */\n      tag_183\n      jump\t// in\n    tag_256:\n        /* \"#utility.yul\":3040:3103   */\n      swap2\n      pop\n        /* \"#utility.yul\":2995:3113   */\n      pop\n        /* \"#utility.yul\":2646:3120   */\n      swap3\n      pop\n      swap3\n      swap1\n      pop\n      jump\t// out\n        /* \"#utility.yul\":3126:3295   */\n    tag_184:\n        /* \"#utility.yul\":3210:3221   */\n      0x00\n        /* \"#utility.yul\":3244:3250   */\n      dup3\n        /* \"#utility.yul\":3239:3242   */\n      dup3\n        /* \"#utility.yul\":3232:3251   */\n      mstore\n        /* \"#utility.yul\":3284:3288   */\n      0x20\n        /* \"#utility.yul\":3279:3282   */\n      dup3\n        /* \"#utility.yul\":3275:3289   */\n      add\n        /* \"#utility.yul\":3260:3289   */\n      swap1\n      pop\n        /* \"#utility.yul\":3126:3295   */\n      swap3\n      swap2\n      pop\n      pop\n      jump\t// out\n        /* \"#utility.yul\":3301:3525   */\n    tag_185:\n        /* \"#utility.yul\":3441:3475   */\n      0x4f6e6c7920726567756c61746f722063616e2063616c6c20746869732066756e\n        /* \"#utility.yul\":3437:3438   */\n      0x00\n        /* \"#utility.yul\":3429:3435   */\n      dup3\n        /* \"#utility.yul\":3425:3439   */\n      add\n        /* \"#utility.yul\":3418:3476   */\n      mstore\n        /* \"#utility.yul\":3510:3517   */\n      0x6374696f6e000000000000000000000000000000000000000000000000000000\n        /* \"#utility.yul\":3505:3507   */\n      0x20\n        /* \"#utility.yul\":3497:3503   */\n      dup3\n        /* \"#utility.yul\":3493:3508   */\n      add\n        /* \"#utility.yul\":3486:3518   */\n      mstore\n        /* \"#utility.yul\":3301:3525   */\n      pop\n      jump\t// out\n        /* \"#utility.yul\":3531:3897   */\n    tag_186:\n        /* \"#utility.yul\":3673:3676   */\n      0x00\n        /* \"#utility.yul\":3694:3761   */\n      tag_260\n        /* \"#utility.yul\":3758:3760   */\n      0x25\n        /* \"#utility.yul\":3753:3756   */\n      dup4\n        /* \"#utility.yul\":3694:3761   */\n      tag_184\n      jump\t// in\n    tag_260:\n        /* \"#utility.yul\":3687:3761   */\n      swap2\n      pop\n        /* \"#utility.yul\":3770:3863   */\n      tag_261\n        /* \"#utility.yul\":3859:3862   */\n      dup3\n        /* \"#utility.yul\":3770:3863   */\n      tag_185\n      jump\t// in\n    tag_261:\n        /* \"#utility.yul\":3888:3890   */\n      0x40\n        /* \"#utility.yul\":3883:3886   */\n      dup3\n        /* \"#utility.yul\":3879:3891   */\n      add\n        /* \"#utility.yul\":3872:3891   */\n      swap1\n      pop\n        /* \"#utility.yul\":3531:3897   */\n      swap2\n      swap1\n      pop\n      jump\t// out\n        /* \"#utility.yul\":3903:4322   */\n    tag_57:\n        /* \"#utility.yul\":4069:4073   */\n      0x00\n        /* \"#utility.yul\":4107:4109   */\n      0x20\n        /* \"#utility.yul\":4096:4105   */\n      dup3\n        /* \"#utility.yul\":4092:4110   */\n      add\n        /* \"#utility.yul\":4084:4110   */\n      swap1\n      pop\n        /* \"#utility.yul\":4156:4165   */\n      dup2\n        /* \"#utility.yul\":4150:4154   */\n      dup2\n        /* \"#utility.yul\":4146:4166   */\n      sub\n        /* \"#utility.yul\":4142:4143   */\n      0x00\n        /* \"#utility.yul\":4131:4140   */\n      dup4\n        /* \"#utility.yul\":4127:4144   */\n      add\n        /* \"#utility.yul\":4120:4167   */\n      mstore\n        /* \"#utility.yul\":4184:4315   */\n      tag_263\n        /* \"#utility.yul\":4310:4314   */\n      dup2\n        /* \"#utility.yul\":4184:4315   */\n      tag_186\n      jump\t// in\n    tag_263:\n        /* \"#utility.yul\":4176:4315   */\n      swap1\n      pop\n        /* \"#utility.yul\":3903:4322   */\n      swap2\n      swap1\n      pop\n      jump\t// out\n        /* \"#utility.yul\":4328:4574   */\n    tag_187:\n        /* \"#utility.yul\":4468:4502   */\n      0x4120736574746c6f722063616e206f6e6c7920626520736574746c6f72206f66\n        /* \"#utility.yul\":4464:4465   */\n      0x00\n        /* \"#utility.yul\":4456:4462   */\n      dup3\n        /* \"#utility.yul\":4452:4466   */\n      add\n        /* \"#utility.yul\":4445:4503   */\n      mstore\n        /* \"#utility.yul\":4537:4566   */\n      0x206f6e65206669647563696172792072656c6174696f6e736869700000000000\n        /* \"#utility.yul\":4532:4534   */\n      0x20\n        /* \"#utility.yul\":4524:4530   */\n      dup3\n        /* \"#utility.yul\":4520:4535   */\n      add\n        /* \"#utility.yul\":4513:4567   */\n      mstore\n        /* \"#utility.yul\":4328:4574   */\n      pop\n      jump\t// out\n        /* \"#utility.yul\":4580:4946   */\n    tag_188:\n        /* \"#utility.yul\":4722:4725   */\n      0x00\n        /* \"#utility.yul\":4743:4810   */\n      tag_266\n        /* \"#utility.yul\":4807:4809   */\n      0x3b\n        /* \"#utility.yul\":4802:4805   */\n      dup4\n        /* \"#utility.yul\":4743:4810   */\n      tag_184\n      jump\t// in\n    tag_266:\n        /* \"#utility.yul\":4736:4810   */\n      swap2\n      pop\n        /* \"#utility.yul\":4819:4912   */\n      tag_267\n        /* \"#utility.yul\":4908:4911   */\n      dup3\n        /* \"#utility.yul\":4819:4912   */\n      tag_187\n      jump\t// in\n    tag_267:\n        /* \"#utility.yul\":4937:4939   */\n      0x40\n        /* \"#utility.yul\":4932:4935   */\n      dup3\n        /* \"#utility.yul\":4928:4940   */\n      add\n        /* \"#utility.yul\":4921:4940   */\n      swap1\n      pop\n        /* \"#utility.yul\":4580:4946   */\n      swap2\n      swap1\n      pop\n      jump\t// out\n        /* \"#utility.yul\":4952:5371   */\n    tag_61:\n        /* \"#utility.yul\":5118:5122   */\n      0x00\n        /* \"#utility.yul\":5156:5158   */\n      0x20\n        /* \"#utility.yul\":5145:5154   */\n      dup3\n        /* \"#utility.yul\":5141:5159   */\n      add\n        /* \"#utility.yul\":5133:5159   */\n      swap1\n      pop\n        /* \"#utility.yul\":5205:5214   */\n      dup2\n        /* \"#utility.yul\":5199:5203   */\n      dup2\n        /* \"#utility.yul\":5195:5215   */\n      sub\n        /* \"#utility.yul\":5191:5192   */\n      0x00\n        /* \"#utility.yul\":5180:5189   */\n      dup4\n        /* \"#utility.yul\":5176:5193   */\n      add\n        /* \"#utility.yul\":5169:5216   */\n      mstore\n        /* \"#utility.yul\":5233:5364   */\n      tag_269\n        /* \"#utility.yul\":5359:5363   */\n      dup2\n        /* \"#utility.yul\":5233:5364   */\n      tag_188\n      jump\t// in\n    tag_269:\n        /* \"#utility.yul\":5225:5364   */\n      swap1\n      pop\n        /* \"#utility.yul\":4952:5371   */\n      swap2\n      swap1\n      pop\n      jump\t// out\n        /* \"#utility.yul\":5377:5557   */\n    tag_66:\n        /* \"#utility.yul\":5425:5502   */\n      0x4e487b7100000000000000000000000000000000000000000000000000000000\n        /* \"#utility.yul\":5422:5423   */\n      0x00\n        /* \"#utility.yul\":5415:5503   */\n      mstore\n        /* \"#utility.yul\":5522:5526   */\n      0x01\n        /* \"#utility.yul\":5519:5520   */\n      0x04\n        /* \"#utility.yul\":5512:5527   */\n      mstore\n        /* \"#utility.yul\":5546:5550   */\n      0x24\n        /* \"#utility.yul\":5543:5544   */\n      0x00\n        /* \"#utility.yul\":5536:5551   */\n      revert\n        /* \"#utility.yul\":5563:5787   */\n    tag_189:\n        /* \"#utility.yul\":5703:5737   */\n      0x4f6e6c79206120736574746c6f722063616e2063616c6c20746869732066756e\n        /* \"#utility.yul\":5699:5700   */\n      0x00\n        /* \"#utility.yul\":5691:5697   */\n      dup3\n        /* \"#utility.yul\":5687:5701   */\n      add\n        /* \"#utility.yul\":5680:5738   */\n      mstore\n        /* \"#utility.yul\":5772:5779   */\n      0x6374696f6e000000000000000000000000000000000000000000000000000000\n        /* \"#utility.yul\":5767:5769   */\n      0x20\n        /* \"#utility.yul\":5759:5765   */\n      dup3\n        /* \"#utility.yul\":5755:5770   */\n      add\n        /* \"#utility.yul\":5748:5780   */\n      mstore\n        /* \"#utility.yul\":5563:5787   */\n      pop\n      jump\t// out\n        /* \"#utility.yul\":5793:6159   */\n    tag_190:\n        /* \"#utility.yul\":5935:5938   */\n      0x00\n        /* \"#utility.yul\":5956:6023   */\n      tag_273\n        /* \"#utility.yul\":6020:6022   */\n      0x25\n        /* \"#utility.yul\":6015:6018   */\n      dup4\n        /* \"#utility.yul\":5956:6023   */\n      tag_184\n      jump\t// in\n    tag_273:\n        /* \"#utility.yul\":5949:6023   */\n      swap2\n      pop\n        /* \"#utility.yul\":6032:6125   */\n      tag_274\n        /* \"#utility.yul\":6121:6124   */\n      dup3\n        /* \"#utility.yul\":6032:6125   */\n      tag_189\n      jump\t// in\n    tag_274:\n        /* \"#utility.yul\":6150:6152   */\n      0x40\n        /* \"#utility.yul\":6145:6148   */\n      dup3\n        /* \"#utility.yul\":6141:6153   */\n      add\n        /* \"#utility.yul\":6134:6153   */\n      swap1\n      pop\n        /* \"#utility.yul\":5793:6159   */\n      swap2\n      swap1\n      pop\n      jump\t// out\n        /* \"#utility.yul\":6165:6584   */\n    tag_71:\n        /* \"#utility.yul\":6331:6335   */\n      0x00\n        /* \"#utility.yul\":6369:6371   */\n      0x20\n        /* \"#utility.yul\":6358:6367   */\n      dup3\n        /* \"#utility.yul\":6354:6372   */\n      add\n        /* \"#utility.yul\":6346:6372   */\n      swap1\n      pop\n        /* \"#utility.yul\":6418:6427   */\n      dup2\n        /* \"#utility.yul\":6412:6416   */\n      dup2\n        /* \"#utility.yul\":6408:6428   */\n      sub\n        /* \"#utility.yul\":6404:6405   */\n      0x00\n        /* \"#utility.yul\":6393:6402   */\n      dup4\n        /* \"#utility.yul\":6389:6406   */\n      add\n        /* \"#utility.yul\":6382:6429   */\n      mstore\n        /* \"#utility.yul\":6446:6577   */\n      tag_276\n        /* \"#utility.yul\":6572:6576   */\n      dup2\n        /* \"#utility.yul\":6446:6577   */\n      tag_190\n      jump\t// in\n    tag_276:\n        /* \"#utility.yul\":6438:6577   */\n      swap1\n      pop\n        /* \"#utility.yul\":6165:6584   */\n      swap2\n      swap1\n      pop\n      jump\t// out\n        /* \"#utility.yul\":6590:6759   */\n    tag_191:\n        /* \"#utility.yul\":6730:6751   */\n      0x446561646c696e65206861732070617373656400000000000000000000000000\n        /* \"#utility.yul\":6726:6727   */\n      0x00\n        /* \"#utility.yul\":6718:6724   */\n      dup3\n        /* \"#utility.yul\":6714:6728   */\n      add\n        /* \"#utility.yul\":6707:6752   */\n      mstore\n        /* \"#utility.yul\":6590:6759   */\n      pop\n      jump\t// out\n        /* \"#utility.yul\":6765:7131   */\n    tag_192:\n        /* \"#utility.yul\":6907:6910   */\n      0x00\n        /* \"#utility.yul\":6928:6995   */\n      tag_279\n        /* \"#utility.yul\":6992:6994   */\n      0x13\n        /* \"#utility.yul\":6987:6990   */\n      dup4\n        /* \"#utility.yul\":6928:6995   */\n      tag_184\n      jump\t// in\n    tag_279:\n        /* \"#utility.yul\":6921:6995   */\n      swap2\n      pop\n        /* \"#utility.yul\":7004:7097   */\n      tag_280\n        /* \"#utility.yul\":7093:7096   */\n      dup3\n        /* \"#utility.yul\":7004:7097   */\n      tag_191\n      jump\t// in\n    tag_280:\n        /* \"#utility.yul\":7122:7124   */\n      0x20\n        /* \"#utility.yul\":7117:7120   */\n      dup3\n        /* \"#utility.yul\":7113:7125   */\n      add\n        /* \"#utility.yul\":7106:7125   */\n      swap1\n      pop\n        /* \"#utility.yul\":6765:7131   */\n      swap2\n      swap1\n      pop\n      jump\t// out\n        /* \"#utility.yul\":7137:7556   */\n    tag_76:\n        /* \"#utility.yul\":7303:7307   */\n      0x00\n        /* \"#utility.yul\":7341:7343   */\n      0x20\n        /* \"#utility.yul\":7330:7339   */\n      dup3\n        /* \"#utility.yul\":7326:7344   */\n      add\n        /* \"#utility.yul\":7318:7344   */\n      swap1\n      pop\n        /* \"#utility.yul\":7390:7399   */\n      dup2\n        /* \"#utility.yul\":7384:7388   */\n      dup2\n        /* \"#utility.yul\":7380:7400   */\n      sub\n        /* \"#utility.yul\":7376:7377   */\n      0x00\n        /* \"#utility.yul\":7365:7374   */\n      dup4\n        /* \"#utility.yul\":7361:7378   */\n      add\n        /* \"#utility.yul\":7354:7401   */\n      mstore\n        /* \"#utility.yul\":7418:7549   */\n      tag_282\n        /* \"#utility.yul\":7544:7548   */\n      dup2\n        /* \"#utility.yul\":7418:7549   */\n      tag_192\n      jump\t// in\n    tag_282:\n        /* \"#utility.yul\":7410:7549   */\n      swap1\n      pop\n        /* \"#utility.yul\":7137:7556   */\n      swap2\n      swap1\n      pop\n      jump\t// out\n        /* \"#utility.yul\":7562:7742   */\n    tag_193:\n        /* \"#utility.yul\":7610:7687   */\n      0x4e487b7100000000000000000000000000000000000000000000000000000000\n        /* \"#utility.yul\":7607:7608   */\n      0x00\n        /* \"#utility.yul\":7600:7688   */\n      mstore\n        /* \"#utility.yul\":7707:7711   */\n      0x11\n        /* \"#utility.yul\":7704:7705   */\n      0x04\n        /* \"#utility.yul\":7697:7712   */\n      mstore\n        /* \"#utility.yul\":7731:7735   */\n      0x24\n        /* \"#utility.yul\":7728:7729   */\n      0x00\n        /* \"#utility.yul\":7721:7736   */\n      revert\n        /* \"#utility.yul\":7748:7939   */\n    tag_78:\n        /* \"#utility.yul\":7788:7791   */\n      0x00\n        /* \"#utility.yul\":7807:7827   */\n      tag_285\n        /* \"#utility.yul\":7825:7826   */\n      dup3\n        /* \"#utility.yul\":7807:7827   */\n      tag_180\n      jump\t// in\n    tag_285:\n        /* \"#utility.yul\":7802:7827   */\n      swap2\n      pop\n        /* \"#utility.yul\":7841:7861   */\n      tag_286\n        /* \"#utility.yul\":7859:7860   */\n      dup4\n        /* \"#utility.yul\":7841:7861   */\n      tag_180\n      jump\t// in\n    tag_286:\n        /* \"#utility.yul\":7836:7861   */\n      swap3\n      pop\n        /* \"#utility.yul\":7884:7885   */\n      dup3\n        /* \"#utility.yul\":7881:7882   */\n      dup3\n        /* \"#utility.yul\":7877:7886   */\n      add\n        /* \"#utility.yul\":7870:7886   */\n      swap1\n      pop\n        /* \"#utility.yul\":7905:7908   */\n      dup1\n        /* \"#utility.yul\":7902:7903   */\n      dup3\n        /* \"#utility.yul\":7899:7909   */\n      gt\n        /* \"#utility.yul\":7896:7932   */\n      iszero\n      tag_287\n      jumpi\n        /* \"#utility.yul\":7912:7930   */\n      tag_288\n      tag_193\n      jump\t// in\n    tag_288:\n        /* \"#utility.yul\":7896:7932   */\n    tag_287:\n        /* \"#utility.yul\":7748:7939   */\n      swap3\n      swap2\n      pop\n      pop\n      jump\t// out\n        /* \"#utility.yul\":7945:8111   */\n    tag_194:\n        /* \"#utility.yul\":8085:8103   */\n      0x446561646c696e6520696e76616c696400000000000000000000000000000000\n        /* \"#utility.yul\":8081:8082   */\n      0x00\n        /* \"#utility.yul\":8073:8079   */\n      dup3\n        /* \"#utility.yul\":8069:8083   */\n      add\n        /* \"#utility.yul\":8062:8104   */\n      mstore\n        /* \"#utility.yul\":7945:8111   */\n      pop\n      jump\t// out\n        /* \"#utility.yul\":8117:8483   */\n    tag_195:\n        /* \"#utility.yul\":8259:8262   */\n      0x00\n        /* \"#utility.yul\":8280:8347   */\n      tag_291\n        /* \"#utility.yul\":8344:8346   */\n      0x10\n        /* \"#utility.yul\":8339:8342   */\n      dup4\n        /* \"#utility.yul\":8280:8347   */\n      tag_184\n      jump\t// in\n    tag_291:\n        /* \"#utility.yul\":8273:8347   */\n      swap2\n      pop\n        /* \"#utility.yul\":8356:8449   */\n      tag_292\n        /* \"#utility.yul\":8445:8448   */\n      dup3\n        /* \"#utility.yul\":8356:8449   */\n      tag_194\n      jump\t// in\n    tag_292:\n        /* \"#utility.yul\":8474:8476   */\n      0x20\n        /* \"#utility.yul\":8469:8472   */\n      dup3\n        /* \"#utility.yul\":8465:8477   */\n      add\n        /* \"#utility.yul\":8458:8477   */\n      swap1\n      pop\n        /* \"#utility.yul\":8117:8483   */\n      swap2\n      swap1\n      pop\n      jump\t// out\n        /* \"#utility.yul\":8489:8908   */\n    tag_92:\n        /* \"#utility.yul\":8655:8659   */\n      0x00\n        /* \"#utility.yul\":8693:8695   */\n      0x20\n        /* \"#utility.yul\":8682:8691   */\n      dup3\n        /* \"#utility.yul\":8678:8696   */\n      add\n        /* \"#utility.yul\":8670:8696   */\n      swap1\n      pop\n        /* \"#utility.yul\":8742:8751   */\n      dup2\n        /* \"#utility.yul\":8736:8740   */\n      dup2\n        /* \"#utility.yul\":8732:8752   */\n      sub\n        /* \"#utility.yul\":8728:8729   */\n      0x00\n        /* \"#utility.yul\":8717:8726   */\n      dup4\n        /* \"#utility.yul\":8713:8730   */\n      add\n        /* \"#utility.yul\":8706:8753   */\n      mstore\n        /* \"#utility.yul\":8770:8901   */\n      tag_294\n        /* \"#utility.yul\":8896:8900   */\n      dup2\n        /* \"#utility.yul\":8770:8901   */\n      tag_195\n      jump\t// in\n    tag_294:\n        /* \"#utility.yul\":8762:8901   */\n      swap1\n      pop\n        /* \"#utility.yul\":8489:8908   */\n      swap2\n      swap1\n      pop\n      jump\t// out\n        /* \"#utility.yul\":8914:9148   */\n    tag_196:\n        /* \"#utility.yul\":9054:9088   */\n      0x4120646561646c696e6520616c72656164792065786973747320666f72207468\n        /* \"#utility.yul\":9050:9051   */\n      0x00\n        /* \"#utility.yul\":9042:9048   */\n      dup3\n        /* \"#utility.yul\":9038:9052   */\n      add\n        /* \"#utility.yul\":9031:9089   */\n      mstore\n        /* \"#utility.yul\":9123:9140   */\n      0x69732072656c6174696f6e736869700000000000000000000000000000000000\n        /* \"#utility.yul\":9118:9120   */\n      0x20\n        /* \"#utility.yul\":9110:9116   */\n      dup3\n        /* \"#utility.yul\":9106:9121   */\n      add\n        /* \"#utility.yul\":9099:9141   */\n      mstore\n        /* \"#utility.yul\":8914:9148   */\n      pop\n      jump\t// out\n        /* \"#utility.yul\":9154:9520   */\n    tag_197:\n        /* \"#utility.yul\":9296:9299   */\n      0x00\n        /* \"#utility.yul\":9317:9384   */\n      tag_297\n        /* \"#utility.yul\":9381:9383   */\n      0x2f\n        /* \"#utility.yul\":9376:9379   */\n      dup4\n        /* \"#utility.yul\":9317:9384   */\n      tag_184\n      jump\t// in\n    tag_297:\n        /* \"#utility.yul\":9310:9384   */\n      swap2\n      pop\n        /* \"#utility.yul\":9393:9486   */\n      tag_298\n        /* \"#utility.yul\":9482:9485   */\n      dup3\n        /* \"#utility.yul\":9393:9486   */\n      tag_196\n      jump\t// in\n    tag_298:\n        /* \"#utility.yul\":9511:9513   */\n      0x40\n        /* \"#utility.yul\":9506:9509   */\n      dup3\n        /* \"#utility.yul\":9502:9514   */\n      add\n        /* \"#utility.yul\":9495:9514   */\n      swap1\n      pop\n        /* \"#utility.yul\":9154:9520   */\n      swap2\n      swap1\n      pop\n      jump\t// out\n        /* \"#utility.yul\":9526:9945   */\n    tag_95:\n        /* \"#utility.yul\":9692:9696   */\n      0x00\n        /* \"#utility.yul\":9730:9732   */\n      0x20\n        /* \"#utility.yul\":9719:9728   */\n      dup3\n        /* \"#utility.yul\":9715:9733   */\n      add\n        /* \"#utility.yul\":9707:9733   */\n      swap1\n      pop\n        /* \"#utility.yul\":9779:9788   */\n      dup2\n        /* \"#utility.yul\":9773:9777   */\n      dup2\n        /* \"#utility.yul\":9769:9789   */\n      sub\n        /* \"#utility.yul\":9765:9766   */\n      0x00\n        /* \"#utility.yul\":9754:9763   */\n      dup4\n        /* \"#utility.yul\":9750:9767   */\n      add\n        /* \"#utility.yul\":9743:9790   */\n      mstore\n        /* \"#utility.yul\":9807:9938   */\n      tag_300\n        /* \"#utility.yul\":9933:9937   */\n      dup2\n        /* \"#utility.yul\":9807:9938   */\n      tag_197\n      jump\t// in\n    tag_300:\n        /* \"#utility.yul\":9799:9938   */\n      swap1\n      pop\n        /* \"#utility.yul\":9526:9945   */\n      swap2\n      swap1\n      pop\n      jump\t// out\n        /* \"#utility.yul\":9951:10184   */\n    tag_198:\n        /* \"#utility.yul\":10091:10125   */\n      0x42656e656669636961727920646f65736e27742065786973747320696e207468\n        /* \"#utility.yul\":10087:10088   */\n      0x00\n        /* \"#utility.yul\":10079:10085   */\n      dup3\n        /* \"#utility.yul\":10075:10089   */\n      add\n        /* \"#utility.yul\":10068:10126   */\n      mstore\n        /* \"#utility.yul\":10160:10176   */\n      0x652072656c6174696f6e73686970000000000000000000000000000000000000\n        /* \"#utility.yul\":10155:10157   */\n      0x20\n        /* \"#utility.yul\":10147:10153   */\n      dup3\n        /* \"#utility.yul\":10143:10158   */\n      add\n        /* \"#utility.yul\":10136:10177   */\n      mstore\n        /* \"#utility.yul\":9951:10184   */\n      pop\n      jump\t// out\n        /* \"#utility.yul\":10190:10556   */\n    tag_199:\n        /* \"#utility.yul\":10332:10335   */\n      0x00\n        /* \"#utility.yul\":10353:10420   */\n      tag_303\n        /* \"#utility.yul\":10417:10419   */\n      0x2e\n        /* \"#utility.yul\":10412:10415   */\n      dup4\n        /* \"#utility.yul\":10353:10420   */\n      tag_184\n      jump\t// in\n    tag_303:\n        /* \"#utility.yul\":10346:10420   */\n      swap2\n      pop\n        /* \"#utility.yul\":10429:10522   */\n      tag_304\n        /* \"#utility.yul\":10518:10521   */\n      dup3\n        /* \"#utility.yul\":10429:10522   */\n      tag_198\n      jump\t// in\n    tag_304:\n        /* \"#utility.yul\":10547:10549   */\n      0x40\n        /* \"#utility.yul\":10542:10545   */\n      dup3\n        /* \"#utility.yul\":10538:10550   */\n      add\n        /* \"#utility.yul\":10531:10550   */\n      swap1\n      pop\n        /* \"#utility.yul\":10190:10556   */\n      swap2\n      swap1\n      pop\n      jump\t// out\n        /* \"#utility.yul\":10562:10981   */\n    tag_102:\n        /* \"#utility.yul\":10728:10732   */\n      0x00\n        /* \"#utility.yul\":10766:10768   */\n      0x20\n        /* \"#utility.yul\":10755:10764   */\n      dup3\n        /* \"#utility.yul\":10751:10769   */\n      add\n        /* \"#utility.yul\":10743:10769   */\n      swap1\n      pop\n        /* \"#utility.yul\":10815:10824   */\n      dup2\n        /* \"#utility.yul\":10809:10813   */\n      dup2\n        /* \"#utility.yul\":10805:10825   */\n      sub\n        /* \"#utility.yul\":10801:10802   */\n      0x00\n        /* \"#utility.yul\":10790:10799   */\n      dup4\n        /* \"#utility.yul\":10786:10803   */\n      add\n        /* \"#utility.yul\":10779:10826   */\n      mstore\n        /* \"#utility.yul\":10843:10974   */\n      tag_306\n        /* \"#utility.yul\":10969:10973   */\n      dup2\n        /* \"#utility.yul\":10843:10974   */\n      tag_199\n      jump\t// in\n    tag_306:\n        /* \"#utility.yul\":10835:10974   */\n      swap1\n      pop\n        /* \"#utility.yul\":10562:10981   */\n      swap2\n      swap1\n      pop\n      jump\t// out\n        /* \"#utility.yul\":10987:11168   */\n    tag_200:\n        /* \"#utility.yul\":11127:11160   */\n      0x54686520646561646c696e65206861736e2774206265656e2070617373656400\n        /* \"#utility.yul\":11123:11124   */\n      0x00\n        /* \"#utility.yul\":11115:11121   */\n      dup3\n        /* \"#utility.yul\":11111:11125   */\n      add\n        /* \"#utility.yul\":11104:11161   */\n      mstore\n        /* \"#utility.yul\":10987:11168   */\n      pop\n      jump\t// out\n        /* \"#utility.yul\":11174:11540   */\n    tag_201:\n        /* \"#utility.yul\":11316:11319   */\n      0x00\n        /* \"#utility.yul\":11337:11404   */\n      tag_309\n        /* \"#utility.yul\":11401:11403   */\n      0x1f\n        /* \"#utility.yul\":11396:11399   */\n      dup4\n        /* \"#utility.yul\":11337:11404   */\n      tag_184\n      jump\t// in\n    tag_309:\n        /* \"#utility.yul\":11330:11404   */\n      swap2\n      pop\n        /* \"#utility.yul\":11413:11506   */\n      tag_310\n        /* \"#utility.yul\":11502:11505   */\n      dup3\n        /* \"#utility.yul\":11413:11506   */\n      tag_200\n      jump\t// in\n    tag_310:\n        /* \"#utility.yul\":11531:11533   */\n      0x20\n        /* \"#utility.yul\":11526:11529   */\n      dup3\n        /* \"#utility.yul\":11522:11534   */\n      add\n        /* \"#utility.yul\":11515:11534   */\n      swap1\n      pop\n        /* \"#utility.yul\":11174:11540   */\n      swap2\n      swap1\n      pop\n      jump\t// out\n        /* \"#utility.yul\":11546:11965   */\n    tag_105:\n        /* \"#utility.yul\":11712:11716   */\n      0x00\n        /* \"#utility.yul\":11750:11752   */\n      0x20\n        /* \"#utility.yul\":11739:11748   */\n      dup3\n        /* \"#utility.yul\":11735:11753   */\n      add\n        /* \"#utility.yul\":11727:11753   */\n      swap1\n      pop\n        /* \"#utility.yul\":11799:11808   */\n      dup2\n        /* \"#utility.yul\":11793:11797   */\n      dup2\n        /* \"#utility.yul\":11789:11809   */\n      sub\n        /* \"#utility.yul\":11785:11786   */\n      0x00\n        /* \"#utility.yul\":11774:11783   */\n      dup4\n        /* \"#utility.yul\":11770:11787   */\n      add\n        /* \"#utility.yul\":11763:11810   */\n      mstore\n        /* \"#utility.yul\":11827:11958   */\n      tag_312\n        /* \"#utility.yul\":11953:11957   */\n      dup2\n        /* \"#utility.yul\":11827:11958   */\n      tag_201\n      jump\t// in\n    tag_312:\n        /* \"#utility.yul\":11819:11958   */\n      swap1\n      pop\n        /* \"#utility.yul\":11546:11965   */\n      swap2\n      swap1\n      pop\n      jump\t// out\n        /* \"#utility.yul\":11971:12381   */\n    tag_107:\n        /* \"#utility.yul\":12011:12018   */\n      0x00\n        /* \"#utility.yul\":12034:12054   */\n      tag_314\n        /* \"#utility.yul\":12052:12053   */\n      dup3\n        /* \"#utility.yul\":12034:12054   */\n      tag_180\n      jump\t// in\n    tag_314:\n        /* \"#utility.yul\":12029:12054   */\n      swap2\n      pop\n        /* \"#utility.yul\":12068:12088   */\n      tag_315\n        /* \"#utility.yul\":12086:12087   */\n      dup4\n        /* \"#utility.yul\":12068:12088   */\n      tag_180\n      jump\t// in\n    tag_315:\n        /* \"#utility.yul\":12063:12088   */\n      swap3\n      pop\n        /* \"#utility.yul\":12123:12124   */\n      dup3\n        /* \"#utility.yul\":12120:12121   */\n      dup3\n        /* \"#utility.yul\":12116:12125   */\n      mul\n        /* \"#utility.yul\":12145:12175   */\n      tag_316\n        /* \"#utility.yul\":12163:12174   */\n      dup2\n        /* \"#utility.yul\":12145:12175   */\n      tag_180\n      jump\t// in\n    tag_316:\n        /* \"#utility.yul\":12134:12175   */\n      swap2\n      pop\n        /* \"#utility.yul\":12324:12325   */\n      dup3\n        /* \"#utility.yul\":12315:12322   */\n      dup3\n        /* \"#utility.yul\":12311:12326   */\n      div\n        /* \"#utility.yul\":12308:12309   */\n      dup5\n        /* \"#utility.yul\":12305:12327   */\n      eq\n        /* \"#utility.yul\":12285:12286   */\n      dup4\n        /* \"#utility.yul\":12278:12287   */\n      iszero\n        /* \"#utility.yul\":12258:12341   */\n      or\n        /* \"#utility.yul\":12235:12374   */\n      tag_317\n      jumpi\n        /* \"#utility.yul\":12354:12372   */\n      tag_318\n      tag_193\n      jump\t// in\n    tag_318:\n        /* \"#utility.yul\":12235:12374   */\n    tag_317:\n        /* \"#utility.yul\":12019:12381   */\n      pop\n        /* \"#utility.yul\":11971:12381   */\n      swap3\n      swap2\n      pop\n      pop\n      jump\t// out\n        /* \"#utility.yul\":12387:12567   */\n    tag_202:\n        /* \"#utility.yul\":12435:12512   */\n      0x4e487b7100000000000000000000000000000000000000000000000000000000\n        /* \"#utility.yul\":12432:12433   */\n      0x00\n        /* \"#utility.yul\":12425:12513   */\n      mstore\n        /* \"#utility.yul\":12532:12536   */\n      0x12\n        /* \"#utility.yul\":12529:12530   */\n      0x04\n        /* \"#utility.yul\":12522:12537   */\n      mstore\n        /* \"#utility.yul\":12556:12560   */\n      0x24\n        /* \"#utility.yul\":12553:12554   */\n      0x00\n        /* \"#utility.yul\":12546:12561   */\n      revert\n        /* \"#utility.yul\":12573:12758   */\n    tag_109:\n        /* \"#utility.yul\":12613:12614   */\n      0x00\n        /* \"#utility.yul\":12630:12650   */\n      tag_321\n        /* \"#utility.yul\":12648:12649   */\n      dup3\n        /* \"#utility.yul\":12630:12650   */\n      tag_180\n      jump\t// in\n    tag_321:\n        /* \"#utility.yul\":12625:12650   */\n      swap2\n      pop\n        /* \"#utility.yul\":12664:12684   */\n      tag_322\n        /* \"#utility.yul\":12682:12683   */\n      dup4\n        /* \"#utility.yul\":12664:12684   */\n      tag_180\n      jump\t// in\n    tag_322:\n        /* \"#utility.yul\":12659:12684   */\n      swap3\n      pop\n        /* \"#utility.yul\":12703:12704   */\n      dup3\n        /* \"#utility.yul\":12693:12728   */\n      tag_323\n      jumpi\n        /* \"#utility.yul\":12708:12726   */\n      tag_324\n      tag_202\n      jump\t// in\n    tag_324:\n        /* \"#utility.yul\":12693:12728   */\n    tag_323:\n        /* \"#utility.yul\":12750:12751   */\n      dup3\n        /* \"#utility.yul\":12747:12748   */\n      dup3\n        /* \"#utility.yul\":12743:12752   */\n      div\n        /* \"#utility.yul\":12738:12752   */\n      swap1\n      pop\n        /* \"#utility.yul\":12573:12758   */\n      swap3\n      swap2\n      pop\n      pop\n      jump\t// out\n        /* \"#utility.yul\":12764:12985   */\n    tag_203:\n        /* \"#utility.yul\":12904:12938   */\n      0x5468652062616c616e636520636f756c64206e6f742062652077697468647261\n        /* \"#utility.yul\":12900:12901   */\n      0x00\n        /* \"#utility.yul\":12892:12898   */\n      dup3\n        /* \"#utility.yul\":12888:12902   */\n      add\n        /* \"#utility.yul\":12881:12939   */\n      mstore\n        /* \"#utility.yul\":12973:12977   */\n      0x776e000000000000000000000000000000000000000000000000000000000000\n        /* \"#utility.yul\":12968:12970   */\n      0x20\n        /* \"#utility.yul\":12960:12966   */\n      dup3\n        /* \"#utility.yul\":12956:12971   */\n      add\n        /* \"#utility.yul\":12949:12978   */\n      mstore\n        /* \"#utility.yul\":12764:12985   */\n      pop\n      jump\t// out\n        /* \"#utility.yul\":12991:13357   */\n    tag_204:\n        /* \"#utility.yul\":13133:13136   */\n      0x00\n        /* \"#utility.yul\":13154:13221   */\n      tag_327\n        /* \"#utility.yul\":13218:13220   */\n      0x22\n        /* \"#utility.yul\":13213:13216   */\n      dup4\n        /* \"#utility.yul\":13154:13221   */\n      tag_184\n      jump\t// in\n    tag_327:\n        /* \"#utility.yul\":13147:13221   */\n      swap2\n      pop\n        /* \"#utility.yul\":13230:13323   */\n      tag_328\n        /* \"#utility.yul\":13319:13322   */\n      dup3\n        /* \"#utility.yul\":13230:13323   */\n      tag_203\n      jump\t// in\n    tag_328:\n        /* \"#utility.yul\":13348:13350   */\n      0x40\n        /* \"#utility.yul\":13343:13346   */\n      dup3\n        /* \"#utility.yul\":13339:13351   */\n      add\n        /* \"#utility.yul\":13332:13351   */\n      swap1\n      pop\n        /* \"#utility.yul\":12991:13357   */\n      swap2\n      swap1\n      pop\n      jump\t// out\n        /* \"#utility.yul\":13363:13782   */\n    tag_113:\n        /* \"#utility.yul\":13529:13533   */\n      0x00\n        /* \"#utility.yul\":13567:13569   */\n      0x20\n        /* \"#utility.yul\":13556:13565   */\n      dup3\n        /* \"#utility.yul\":13552:13570   */\n      add\n        /* \"#utility.yul\":13544:13570   */\n      swap1\n      pop\n        /* \"#utility.yul\":13616:13625   */\n      dup2\n        /* \"#utility.yul\":13610:13614   */\n      dup2\n        /* \"#utility.yul\":13606:13626   */\n      sub\n        /* \"#utility.yul\":13602:13603   */\n      0x00\n        /* \"#utility.yul\":13591:13600   */\n      dup4\n        /* \"#utility.yul\":13587:13604   */\n      add\n        /* \"#utility.yul\":13580:13627   */\n      mstore\n        /* \"#utility.yul\":13644:13775   */\n      tag_330\n        /* \"#utility.yul\":13770:13774   */\n      dup2\n        /* \"#utility.yul\":13644:13775   */\n      tag_204\n      jump\t// in\n    tag_330:\n        /* \"#utility.yul\":13636:13775   */\n      swap1\n      pop\n        /* \"#utility.yul\":13363:13782   */\n      swap2\n      swap1\n      pop\n      jump\t// out\n        /* \"#utility.yul\":13788:13982   */\n    tag_116:\n        /* \"#utility.yul\":13828:13832   */\n      0x00\n        /* \"#utility.yul\":13848:13868   */\n      tag_332\n        /* \"#utility.yul\":13866:13867   */\n      dup3\n        /* \"#utility.yul\":13848:13868   */\n      tag_180\n      jump\t// in\n    tag_332:\n        /* \"#utility.yul\":13843:13868   */\n      swap2\n      pop\n        /* \"#utility.yul\":13882:13902   */\n      tag_333\n        /* \"#utility.yul\":13900:13901   */\n      dup4\n        /* \"#utility.yul\":13882:13902   */\n      tag_180\n      jump\t// in\n    tag_333:\n        /* \"#utility.yul\":13877:13902   */\n      swap3\n      pop\n        /* \"#utility.yul\":13926:13927   */\n      dup3\n        /* \"#utility.yul\":13923:13924   */\n      dup3\n        /* \"#utility.yul\":13919:13928   */\n      sub\n        /* \"#utility.yul\":13911:13928   */\n      swap1\n      pop\n        /* \"#utility.yul\":13950:13951   */\n      dup2\n        /* \"#utility.yul\":13944:13948   */\n      dup2\n        /* \"#utility.yul\":13941:13952   */\n      gt\n        /* \"#utility.yul\":13938:13975   */\n      iszero\n      tag_334\n      jumpi\n        /* \"#utility.yul\":13955:13973   */\n      tag_335\n      tag_193\n      jump\t// in\n    tag_335:\n        /* \"#utility.yul\":13938:13975   */\n    tag_334:\n        /* \"#utility.yul\":13788:13982   */\n      swap3\n      swap2\n      pop\n      pop\n      jump\t// out\n        /* \"#utility.yul\":13988:14221   */\n    tag_205:\n        /* \"#utility.yul\":14128:14162   */\n      0x42656e656669636961727920616c72656164792065786973747320696e207468\n        /* \"#utility.yul\":14124:14125   */\n      0x00\n        /* \"#utility.yul\":14116:14122   */\n      dup3\n        /* \"#utility.yul\":14112:14126   */\n      add\n        /* \"#utility.yul\":14105:14163   */\n      mstore\n        /* \"#utility.yul\":14197:14213   */\n      0x652072656c6174696f6e73686970000000000000000000000000000000000000\n        /* \"#utility.yul\":14192:14194   */\n      0x20\n        /* \"#utility.yul\":14184:14190   */\n      dup3\n        /* \"#utility.yul\":14180:14195   */\n      add\n        /* \"#utility.yul\":14173:14214   */\n      mstore\n        /* \"#utility.yul\":13988:14221   */\n      pop\n      jump\t// out\n        /* \"#utility.yul\":14227:14593   */\n    tag_206:\n        /* \"#utility.yul\":14369:14372   */\n      0x00\n        /* \"#utility.yul\":14390:14457   */\n      tag_338\n        /* \"#utility.yul\":14454:14456   */\n      0x2e\n        /* \"#utility.yul\":14449:14452   */\n      dup4\n        /* \"#utility.yul\":14390:14457   */\n      tag_184\n      jump\t// in\n    tag_338:\n        /* \"#utility.yul\":14383:14457   */\n      swap2\n      pop\n        /* \"#utility.yul\":14466:14559   */\n      tag_339\n        /* \"#utility.yul\":14555:14558   */\n      dup3\n        /* \"#utility.yul\":14466:14559   */\n      tag_205\n      jump\t// in\n    tag_339:\n        /* \"#utility.yul\":14584:14586   */\n      0x40\n        /* \"#utility.yul\":14579:14582   */\n      dup3\n        /* \"#utility.yul\":14575:14587   */\n      add\n        /* \"#utility.yul\":14568:14587   */\n      swap1\n      pop\n        /* \"#utility.yul\":14227:14593   */\n      swap2\n      swap1\n      pop\n      jump\t// out\n        /* \"#utility.yul\":14599:15018   */\n    tag_131:\n        /* \"#utility.yul\":14765:14769   */\n      0x00\n        /* \"#utility.yul\":14803:14805   */\n      0x20\n        /* \"#utility.yul\":14792:14801   */\n      dup3\n        /* \"#utility.yul\":14788:14806   */\n      add\n        /* \"#utility.yul\":14780:14806   */\n      swap1\n      pop\n        /* \"#utility.yul\":14852:14861   */\n      dup2\n        /* \"#utility.yul\":14846:14850   */\n      dup2\n        /* \"#utility.yul\":14842:14862   */\n      sub\n        /* \"#utility.yul\":14838:14839   */\n      0x00\n        /* \"#utility.yul\":14827:14836   */\n      dup4\n        /* \"#utility.yul\":14823:14840   */\n      add\n        /* \"#utility.yul\":14816:14863   */\n      mstore\n        /* \"#utility.yul\":14880:15011   */\n      tag_341\n        /* \"#utility.yul\":15006:15010   */\n      dup2\n        /* \"#utility.yul\":14880:15011   */\n      tag_206\n      jump\t// in\n    tag_341:\n        /* \"#utility.yul\":14872:15011   */\n      swap1\n      pop\n        /* \"#utility.yul\":14599:15018   */\n      swap2\n      swap1\n      pop\n      jump\t// out\n        /* \"#utility.yul\":15024:15260   */\n    tag_207:\n        /* \"#utility.yul\":15164:15198   */\n      0x42656e65666963696172792070657263656e746167652063616e6e6f74206265\n        /* \"#utility.yul\":15160:15161   */\n      0x00\n        /* \"#utility.yul\":15152:15158   */\n      dup3\n        /* \"#utility.yul\":15148:15162   */\n      add\n        /* \"#utility.yul\":15141:15199   */\n      mstore\n        /* \"#utility.yul\":15233:15252   */\n      0x2067726561746572207468616e20313030000000000000000000000000000000\n        /* \"#utility.yul\":15228:15230   */\n      0x20\n        /* \"#utility.yul\":15220:15226   */\n      dup3\n        /* \"#utility.yul\":15216:15231   */\n      add\n        /* \"#utility.yul\":15209:15253   */\n      mstore\n        /* \"#utility.yul\":15024:15260   */\n      pop\n      jump\t// out\n        /* \"#utility.yul\":15266:15632   */\n    tag_208:\n        /* \"#utility.yul\":15408:15411   */\n      0x00\n        /* \"#utility.yul\":15429:15496   */\n      tag_344\n        /* \"#utility.yul\":15493:15495   */\n      0x31\n        /* \"#utility.yul\":15488:15491   */\n      dup4\n        /* \"#utility.yul\":15429:15496   */\n      tag_184\n      jump\t// in\n    tag_344:\n        /* \"#utility.yul\":15422:15496   */\n      swap2\n      pop\n        /* \"#utility.yul\":15505:15598   */\n      tag_345\n        /* \"#utility.yul\":15594:15597   */\n      dup3\n        /* \"#utility.yul\":15505:15598   */\n      tag_207\n      jump\t// in\n    tag_345:\n        /* \"#utility.yul\":15623:15625   */\n      0x40\n        /* \"#utility.yul\":15618:15621   */\n      dup3\n        /* \"#utility.yul\":15614:15626   */\n      add\n        /* \"#utility.yul\":15607:15626   */\n      swap1\n      pop\n        /* \"#utility.yul\":15266:15632   */\n      swap2\n      swap1\n      pop\n      jump\t// out\n        /* \"#utility.yul\":15638:16057   */\n    tag_134:\n        /* \"#utility.yul\":15804:15808   */\n      0x00\n        /* \"#utility.yul\":15842:15844   */\n      0x20\n        /* \"#utility.yul\":15831:15840   */\n      dup3\n        /* \"#utility.yul\":15827:15845   */\n      add\n        /* \"#utility.yul\":15819:15845   */\n      swap1\n      pop\n        /* \"#utility.yul\":15891:15900   */\n      dup2\n        /* \"#utility.yul\":15885:15889   */\n      dup2\n        /* \"#utility.yul\":15881:15901   */\n      sub\n        /* \"#utility.yul\":15877:15878   */\n      0x00\n        /* \"#utility.yul\":15866:15875   */\n      dup4\n        /* \"#utility.yul\":15862:15879   */\n      add\n        /* \"#utility.yul\":15855:15902   */\n      mstore\n        /* \"#utility.yul\":15919:16050   */\n      tag_347\n        /* \"#utility.yul\":16045:16049   */\n      dup2\n        /* \"#utility.yul\":15919:16050   */\n      tag_208\n      jump\t// in\n    tag_347:\n        /* \"#utility.yul\":15911:16050   */\n      swap1\n      pop\n        /* \"#utility.yul\":15638:16057   */\n      swap2\n      swap1\n      pop\n      jump\t// out\n        /* \"#utility.yul\":16063:16301   */\n    tag_209:\n        /* \"#utility.yul\":16203:16237   */\n      0x546f74616c2070657263656e74616765206f662062656e656669636961726965\n        /* \"#utility.yul\":16199:16200   */\n      0x00\n        /* \"#utility.yul\":16191:16197   */\n      dup3\n        /* \"#utility.yul\":16187:16201   */\n      add\n        /* \"#utility.yul\":16180:16238   */\n      mstore\n        /* \"#utility.yul\":16272:16293   */\n      0x732063616e6e6f74206578636565642031303000000000000000000000000000\n        /* \"#utility.yul\":16267:16269   */\n      0x20\n        /* \"#utility.yul\":16259:16265   */\n      dup3\n        /* \"#utility.yul\":16255:16270   */\n      add\n        /* \"#utility.yul\":16248:16294   */\n      mstore\n        /* \"#utility.yul\":16063:16301   */\n      pop\n      jump\t// out\n        /* \"#utility.yul\":16307:16673   */\n    tag_210:\n        /* \"#utility.yul\":16449:16452   */\n      0x00\n        /* \"#utility.yul\":16470:16537   */\n      tag_350\n        /* \"#utility.yul\":16534:16536   */\n      0x33\n        /* \"#utility.yul\":16529:16532   */\n      dup4\n        /* \"#utility.yul\":16470:16537   */\n      tag_184\n      jump\t// in\n    tag_350:\n        /* \"#utility.yul\":16463:16537   */\n      swap2\n      pop\n        /* \"#utility.yul\":16546:16639   */\n      tag_351\n        /* \"#utility.yul\":16635:16638   */\n      dup3\n        /* \"#utility.yul\":16546:16639   */\n      tag_209\n      jump\t// in\n    tag_351:\n        /* \"#utility.yul\":16664:16666   */\n      0x40\n        /* \"#utility.yul\":16659:16662   */\n      dup3\n        /* \"#utility.yul\":16655:16667   */\n      add\n        /* \"#utility.yul\":16648:16667   */\n      swap1\n      pop\n        /* \"#utility.yul\":16307:16673   */\n      swap2\n      swap1\n      pop\n      jump\t// out\n        /* \"#utility.yul\":16679:17098   */\n    tag_138:\n        /* \"#utility.yul\":16845:16849   */\n      0x00\n        /* \"#utility.yul\":16883:16885   */\n      0x20\n        /* \"#utility.yul\":16872:16881   */\n      dup3\n        /* \"#utility.yul\":16868:16886   */\n      add\n        /* \"#utility.yul\":16860:16886   */\n      swap1\n      pop\n        /* \"#utility.yul\":16932:16941   */\n      dup2\n        /* \"#utility.yul\":16926:16930   */\n      dup2\n        /* \"#utility.yul\":16922:16942   */\n      sub\n        /* \"#utility.yul\":16918:16919   */\n      0x00\n        /* \"#utility.yul\":16907:16916   */\n      dup4\n        /* \"#utility.yul\":16903:16920   */\n      add\n        /* \"#utility.yul\":16896:16943   */\n      mstore\n        /* \"#utility.yul\":16960:17091   */\n      tag_353\n        /* \"#utility.yul\":17086:17090   */\n      dup2\n        /* \"#utility.yul\":16960:17091   */\n      tag_210\n      jump\t// in\n    tag_353:\n        /* \"#utility.yul\":16952:17091   */\n      swap1\n      pop\n        /* \"#utility.yul\":16679:17098   */\n      swap2\n      swap1\n      pop\n      jump\t// out\n        /* \"#utility.yul\":17104:17337   */\n    tag_141:\n        /* \"#utility.yul\":17143:17146   */\n      0x00\n        /* \"#utility.yul\":17166:17190   */\n      tag_355\n        /* \"#utility.yul\":17184:17189   */\n      dup3\n        /* \"#utility.yul\":17166:17190   */\n      tag_180\n      jump\t// in\n    tag_355:\n        /* \"#utility.yul\":17157:17190   */\n      swap2\n      pop\n        /* \"#utility.yul\":17212:17278   */\n      0xffffffffffffffffffffffffffffffffffffffffffffffffffffffffffffffff\n        /* \"#utility.yul\":17205:17210   */\n      dup3\n        /* \"#utility.yul\":17202:17279   */\n      sub\n        /* \"#utility.yul\":17199:17302   */\n      tag_356\n      jumpi\n        /* \"#utility.yul\":17282:17300   */\n      tag_357\n      tag_193\n      jump\t// in\n    tag_357:\n        /* \"#utility.yul\":17199:17302   */\n    tag_356:\n        /* \"#utility.yul\":17329:17330   */\n      0x01\n        /* \"#utility.yul\":17322:17327   */\n      dup3\n        /* \"#utility.yul\":17318:17331   */\n      add\n        /* \"#utility.yul\":17311:17331   */\n      swap1\n      pop\n        /* \"#utility.yul\":17104:17337   */\n      swap2\n      swap1\n      pop\n      jump\t// out\n        /* \"#utility.yul\":17343:17579   */\n    tag_211:\n        /* \"#utility.yul\":17483:17517   */\n      0x546865726520617265207374696c6c2062656e6566696369617269657320696e\n        /* \"#utility.yul\":17479:17480   */\n      0x00\n        /* \"#utility.yul\":17471:17477   */\n      dup3\n        /* \"#utility.yul\":17467:17481   */\n      add\n        /* \"#utility.yul\":17460:17518   */\n      mstore\n        /* \"#utility.yul\":17552:17571   */\n      0x207468652072656c6174696f6e73686970000000000000000000000000000000\n        /* \"#utility.yul\":17547:17549   */\n      0x20\n        /* \"#utility.yul\":17539:17545   */\n      dup3\n        /* \"#utility.yul\":17535:17550   */\n      add\n        /* \"#utility.yul\":17528:17572   */\n      mstore\n        /* \"#utility.yul\":17343:17579   */\n      pop\n      jump\t// out\n        /* \"#utility.yul\":17585:17951   */\n    tag_212:\n        /* \"#utility.yul\":17727:17730   */\n      0x00\n        /* \"#utility.yul\":17748:17815   */\n      tag_360\n        /* \"#utility.yul\":17812:17814   */\n      0x31\n        /* \"#utility.yul\":17807:17810   */\n      dup4\n        /* \"#utility.yul\":17748:17815   */\n      tag_184\n      jump\t// in\n    tag_360:\n        /* \"#utility.yul\":17741:17815   */\n      swap2\n      pop\n        /* \"#utility.yul\":17824:17917   */\n      tag_361\n        /* \"#utility.yul\":17913:17916   */\n      dup3\n        /* \"#utility.yul\":17824:17917   */\n      tag_211\n      jump\t// in\n    tag_361:\n        /* \"#utility.yul\":17942:17944   */\n      0x40\n        /* \"#utility.yul\":17937:17940   */\n      dup3\n        /* \"#utility.yul\":17933:17945   */\n      add\n        /* \"#utility.yul\":17926:17945   */\n      swap1\n      pop\n        /* \"#utility.yul\":17585:17951   */\n      swap2\n      swap1\n      pop\n      jump\t// out\n        /* \"#utility.yul\":17957:18376   */\n    tag_151:\n        /* \"#utility.yul\":18123:18127   */\n      0x00\n        /* \"#utility.yul\":18161:18163   */\n      0x20\n        /* \"#utility.yul\":18150:18159   */\n      dup3\n        /* \"#utility.yul\":18146:18164   */\n      add\n        /* \"#utility.yul\":18138:18164   */\n      swap1\n      pop\n        /* \"#utility.yul\":18210:18219   */\n      dup2\n        /* \"#utility.yul\":18204:18208   */\n      dup2\n        /* \"#utility.yul\":18200:18220   */\n      sub\n        /* \"#utility.yul\":18196:18197   */\n      0x00\n        /* \"#utility.yul\":18185:18194   */\n      dup4\n        /* \"#utility.yul\":18181:18198   */\n      add\n        /* \"#utility.yul\":18174:18221   */\n      mstore\n        /* \"#utility.yul\":18238:18369   */\n      tag_363\n        /* \"#utility.yul\":18364:18368   */\n      dup2\n        /* \"#utility.yul\":18238:18369   */\n      tag_212\n      jump\t// in\n    tag_363:\n        /* \"#utility.yul\":18230:18369   */\n      swap1\n      pop\n        /* \"#utility.yul\":17957:18376   */\n      swap2\n      swap1\n      pop\n      jump\t// out\n        /* \"#utility.yul\":18382:18547   */\n    tag_213:\n        /* \"#utility.yul\":18522:18539   */\n      0x49736e2774206120736574746c6f720000000000000000000000000000000000\n        /* \"#utility.yul\":18518:18519   */\n      0x00\n        /* \"#utility.yul\":18510:18516   */\n      dup3\n        /* \"#utility.yul\":18506:18520   */\n      add\n        /* \"#utility.yul\":18499:18540   */\n      mstore\n        /* \"#utility.yul\":18382:18547   */\n      pop\n      jump\t// out\n        /* \"#utility.yul\":18553:18919   */\n    tag_214:\n        /* \"#utility.yul\":18695:18698   */\n      0x00\n        /* \"#utility.yul\":18716:18783   */\n      tag_366\n        /* \"#utility.yul\":18780:18782   */\n      0x0f\n        /* \"#utility.yul\":18775:18778   */\n      dup4\n        /* \"#utility.yul\":18716:18783   */\n      tag_184\n      jump\t// in\n    tag_366:\n        /* \"#utility.yul\":18709:18783   */\n      swap2\n      pop\n        /* \"#utility.yul\":18792:18885   */\n      tag_367\n        /* \"#utility.yul\":18881:18884   */\n      dup3\n        /* \"#utility.yul\":18792:18885   */\n      tag_213\n      jump\t// in\n    tag_367:\n        /* \"#utility.yul\":18910:18912   */\n      0x20\n        /* \"#utility.yul\":18905:18908   */\n      dup3\n        /* \"#utility.yul\":18901:18913   */\n      add\n        /* \"#utility.yul\":18894:18913   */\n      swap1\n      pop\n        /* \"#utility.yul\":18553:18919   */\n      swap2\n      swap1\n      pop\n      jump\t// out\n        /* \"#utility.yul\":18925:19344   */\n    tag_162:\n        /* \"#utility.yul\":19091:19095   */\n      0x00\n        /* \"#utility.yul\":19129:19131   */\n      0x20\n        /* \"#utility.yul\":19118:19127   */\n      dup3\n        /* \"#utility.yul\":19114:19132   */\n      add\n        /* \"#utility.yul\":19106:19132   */\n      swap1\n      pop\n        /* \"#utility.yul\":19178:19187   */\n      dup2\n        /* \"#utility.yul\":19172:19176   */\n      dup2\n        /* \"#utility.yul\":19168:19188   */\n      sub\n        /* \"#utility.yul\":19164:19165   */\n      0x00\n        /* \"#utility.yul\":19153:19162   */\n      dup4\n        /* \"#utility.yul\":19149:19166   */\n      add\n        /* \"#utility.yul\":19142:19189   */\n      mstore\n        /* \"#utility.yul\":19206:19337   */\n      tag_369\n        /* \"#utility.yul\":19332:19336   */\n      dup2\n        /* \"#utility.yul\":19206:19337   */\n      tag_214\n      jump\t// in\n    tag_369:\n        /* \"#utility.yul\":19198:19337   */\n      swap1\n      pop\n        /* \"#utility.yul\":18925:19344   */\n      swap2\n      swap1\n      pop\n      jump\t// out\n        /* \"#utility.yul\":19350:19572   */\n    tag_215:\n        /* \"#utility.yul\":19490:19524   */\n      0x4661696c656420746f207472616e736665722066756e647320746f2073657474\n        /* \"#utility.yul\":19486:19487   */\n      0x00\n        /* \"#utility.yul\":19478:19484   */\n      dup3\n        /* \"#utility.yul\":19474:19488   */\n      add\n        /* \"#utility.yul\":19467:19525   */\n      mstore\n        /* \"#utility.yul\":19559:19564   */\n      0x6c6f720000000000000000000000000000000000000000000000000000000000\n        /* \"#utility.yul\":19554:19556   */\n      0x20\n        /* \"#utility.yul\":19546:19552   */\n      dup3\n        /* \"#utility.yul\":19542:19557   */\n      add\n        /* \"#utility.yul\":19535:19565   */\n      mstore\n        /* \"#utility.yul\":19350:19572   */\n      pop\n      jump\t// out\n        /* \"#utility.yul\":19578:19944   */\n    tag_216:\n        /* \"#utility.yul\":19720:19723   */\n      0x00\n        /* \"#utility.yul\":19741:19808   */\n      tag_372\n        /* \"#utility.yul\":19805:19807   */\n      0x23\n        /* \"#utility.yul\":19800:19803   */\n      dup4\n        /* \"#utility.yul\":19741:19808   */\n      tag_184\n      jump\t// in\n    tag_372:\n        /* \"#utility.yul\":19734:19808   */\n      swap2\n      pop\n        /* \"#utility.yul\":19817:19910   */\n      tag_373\n        /* \"#utility.yul\":19906:19909   */\n      dup3\n        /* \"#utility.yul\":19817:19910   */\n      tag_215\n      jump\t// in\n    tag_373:\n        /* \"#utility.yul\":19935:19937   */\n      0x40\n        /* \"#utility.yul\":19930:19933   */\n      dup3\n        /* \"#utility.yul\":19926:19938   */\n      add\n        /* \"#utility.yul\":19919:19938   */\n      swap1\n      pop\n        /* \"#utility.yul\":19578:19944   */\n      swap2\n      swap1\n      pop\n      jump\t// out\n        /* \"#utility.yul\":19950:20369   */\n    tag_167:\n        /* \"#utility.yul\":20116:20120   */\n      0x00\n        /* \"#utility.yul\":20154:20156   */\n      0x20\n        /* \"#utility.yul\":20143:20152   */\n      dup3\n        /* \"#utility.yul\":20139:20157   */\n      add\n        /* \"#utility.yul\":20131:20157   */\n      swap1\n      pop\n        /* \"#utility.yul\":20203:20212   */\n      dup2\n        /* \"#utility.yul\":20197:20201   */\n      dup2\n        /* \"#utility.yul\":20193:20213   */\n      sub\n        /* \"#utility.yul\":20189:20190   */\n      0x00\n        /* \"#utility.yul\":20178:20187   */\n      dup4\n        /* \"#utility.yul\":20174:20191   */\n      add\n        /* \"#utility.yul\":20167:20214   */\n      mstore\n        /* \"#utility.yul\":20231:20362   */\n      tag_375\n        /* \"#utility.yul\":20357:20361   */\n      dup2\n        /* \"#utility.yul\":20231:20362   */\n      tag_216\n      jump\t// in\n    tag_375:\n        /* \"#utility.yul\":20223:20362   */\n      swap1\n      pop\n        /* \"#utility.yul\":19950:20369   */\n      swap2\n      swap1\n      pop\n      jump\t// out\n\n    auxdata: 0xa2646970667358221220f87658975e9417e6fcdbc051fe1d4bd7cabe68727e8c8df7bf6e91f0e1aabadd64736f6c63430008130033\n}\n",
				"bytecode": {
					"linkReferences": {},
					"object": "608060405234801561001057600080fd5b50336000806101000a81548173ffffffffffffffffffffffffffffffffffffffff021916908373ffffffffffffffffffffffffffffffffffffffff1602179055506000600381905550611e9d806100686000396000f3fe6080604052600436106100915760003560e01c806351cff8d91161005957806351cff8d91461014857806354ac3e0e1461017857806396074e70146101a357806398ee61af146101cc578063a55453ea146101d657610091565b806302550b78146100965780630f25077b146100bf57806328d99d42146100ea5780633595771b146101155780633bbca1901461011f575b600080fd5b3480156100a257600080fd5b506100bd60048036038101906100b89190611380565b6101f2565b005b3480156100cb57600080fd5b506100d46103b2565b6040516100e191906113c8565b60405180910390f35b3480156100f657600080fd5b506100ff61044f565b60405161010c91906113fc565b60405180910390f35b61011d61046b565b005b34801561012b57600080fd5b5061014660048036038101906101419190611443565b610665565b005b610162600480360381019061015d9190611380565b6107ce565b60405161016f91906113c8565b60405180910390f35b34801561018457600080fd5b5061018d610a31565b60405161019a91906113c8565b60405180910390f35b3480156101af57600080fd5b506101ca60048036038101906101c59190611470565b610a88565b005b6101d4610e0f565b005b6101f060048036038101906101eb9190611380565b610fa5565b005b6101fa610a31565b610239576040517f08c379a000000000000000000000000000000000000000000000000000000000815260040161023090611533565b60405180910390fd5b6000600260008373ffffffffffffffffffffffffffffffffffffffff1673ffffffffffffffffffffffffffffffffffffffff16815260200190815260200160002054146102bb576040517f08c379a00000000000000000000000000000000000000000000000000000000081526004016102b2906115c5565b60405180910390fd5b6000600160008373ffffffffffffffffffffffffffffffffffffffff1673ffffffffffffffffffffffffffffffffffffffff1681526020019081526020016000209050818160000160006101000a81548173ffffffffffffffffffffffffffffffffffffffff021916908373ffffffffffffffffffffffffffffffffffffffff160217905550600081600401819055506000816006018190555060008160020181905550600081600301819055506000600260008473ffffffffffffffffffffffffffffffffffffffff1673ffffffffffffffffffffffffffffffffffffffff168152602001908152602001600020819055505050565b600080600160003373ffffffffffffffffffffffffffffffffffffffff1673ffffffffffffffffffffffffffffffffffffffff16815260200190815260200160002060000160009054906101000a900473ffffffffffffffffffffffffffffffffffffffff1690503373ffffffffffffffffffffffffffffffffffffffff168173ffffffffffffffffffffffffffffffffffffffff161491505090565b60004760035414610463576104626115e5565b5b600354905090565b6104736103b2565b6104b2576040517f08c379a00000000000000000000000000000000000000000000000000000000081526004016104a990611686565b60405180910390fd5b6000600160003373ffffffffffffffffffffffffffffffffffffffff1673ffffffffffffffffffffffffffffffffffffffff16815260200190815260200160002060060154141580156105475750600160003373ffffffffffffffffffffffffffffffffffffffff1673ffffffffffffffffffffffffffffffffffffffff168152602001908152602001600020600601544211155b610586576040517f08c379a000000000000000000000000000000000000000000000000000000000815260040161057d906116f2565b60405180910390fd5b34600160003373ffffffffffffffffffffffffffffffffffffffff1673ffffffffffffffffffffffffffffffffffffffff16815260200190815260200160002060020160008282546105d89190611741565b9250508190555034600160003373ffffffffffffffffffffffffffffffffffffffff1673ffffffffffffffffffffffffffffffffffffffff16815260200190815260200160002060030160008282546106319190611741565b92505081905550346003600082825461064a9190611741565b925050819055504760035414610663576106626115e5565b5b565b61066d6103b2565b6106ac576040517f08c379a00000000000000000000000000000000000000000000000000000000081526004016106a390611686565b60405180910390fd5b6106b581611272565b6106f4576040517f08c379a00000000000000000000000000000000000000000000000000000000081526004016106eb906117c1565b60405180910390fd5b6000600160003373ffffffffffffffffffffffffffffffffffffffff1673ffffffffffffffffffffffffffffffffffffffff1681526020019081526020016000206006015414610779576040517f08c379a000000000000000000000000000000000000000000000000000000000815260040161077090611853565b60405180910390fd5b80426107859190611741565b600160003373ffffffffffffffffffffffffffffffffffffffff1673ffffffffffffffffffffffffffffffffffffffff1681526020019081526020016000206006018190555050565b6000803390506000600160008573ffffffffffffffffffffffffffffffffffffffff1673ffffffffffffffffffffffffffffffffffffffff1681526020019081526020016000209050610821848361128e565b610860576040517f08c379a0000000000000000000000000000000000000000000000000000000008152600401610857906118e5565b60405180910390fd5b806006015442116108a6576040517f08c379a000000000000000000000000000000000000000000000000000000000815260040161089d90611951565b60405180910390fd5b600060648260010160008573ffffffffffffffffffffffffffffffffffffffff1673ffffffffffffffffffffffffffffffffffffffff1681526020019081526020016000206000015483600301546108fe9190611971565b61090891906119e2565b905060008373ffffffffffffffffffffffffffffffffffffffff166108fc839081150290604051600060405180830381858888f19350505050905080610983576040517f08c379a000000000000000000000000000000000000000000000000000000000815260040161097a90611a85565b60405180910390fd5b818360010160008673ffffffffffffffffffffffffffffffffffffffff1673ffffffffffffffffffffffffffffffffffffffff16815260200190815260200160002060010160008282546109d79190611741565b92505081905550818360020160008282546109f29190611aa5565b925050819055508160036000828254610a0b9190611aa5565b925050819055504760035414610a2457610a236115e5565b5b6001945050505050919050565b60008060009054906101000a900473ffffffffffffffffffffffffffffffffffffffff1673ffffffffffffffffffffffffffffffffffffffff163373ffffffffffffffffffffffffffffffffffffffff1614905090565b610a906103b2565b610acf576040517f08c379a0000000000000000000000000000000000000000000000000000000008152600401610ac690611686565b60405180910390fd5b6000600160003373ffffffffffffffffffffffffffffffffffffffff1673ffffffffffffffffffffffffffffffffffffffff1681526020019081526020016000206006015403610b54576040517f08c379a0000000000000000000000000000000000000000000000000000000008152600401610b4b906116f2565b60405180910390fd5b610b5e338361128e565b15610b9e576040517f08c379a0000000000000000000000000000000000000000000000000000000008152600401610b9590611b4b565b60405180910390fd5b6064811115610be2576040517f08c379a0000000000000000000000000000000000000000000000000000000008152600401610bd990611bdd565b60405180910390fd5b606481600160003373ffffffffffffffffffffffffffffffffffffffff1673ffffffffffffffffffffffffffffffffffffffff16815260200190815260200160002060040154610c329190611741565b1115610c73576040517f08c379a0000000000000000000000000000000000000000000000000000000008152600401610c6a90611c6f565b60405180910390fd5b60405180604001604052808281526020016000815250600160003373ffffffffffffffffffffffffffffffffffffffff1673ffffffffffffffffffffffffffffffffffffffff16815260200190815260200160002060010160008473ffffffffffffffffffffffffffffffffffffffff1673ffffffffffffffffffffffffffffffffffffffff168152602001908152602001600020600082015181600001556020820151816001015590505080600160003373ffffffffffffffffffffffffffffffffffffffff1673ffffffffffffffffffffffffffffffffffffffff16815260200190815260200160002060040154610d6d9190611741565b600160003373ffffffffffffffffffffffffffffffffffffffff1673ffffffffffffffffffffffffffffffffffffffff16815260200190815260200160002060040181905550600160003373ffffffffffffffffffffffffffffffffffffffff1673ffffffffffffffffffffffffffffffffffffffff1681526020019081526020016000206005016000815480929190610e0690611c8f565b91905055505050565b610e176103b2565b610e56576040517f08c379a0000000000000000000000000000000000000000000000000000000008152600401610e4d90611686565b60405180910390fd5b6000600160003373ffffffffffffffffffffffffffffffffffffffff1673ffffffffffffffffffffffffffffffffffffffff168152602001908152602001600020905080600601544211610edf576040517f08c379a0000000000000000000000000000000000000000000000000000000008152600401610ed690611951565b60405180910390fd5b6000816005015414610f26576040517f08c379a0000000000000000000000000000000000000000000000000000000008152600401610f1d90611d49565b60405180910390fd5b3373ffffffffffffffffffffffffffffffffffffffff166108fc82600301549081150290604051600060405180830381858888f19350505050158015610f70573d6000803e3d6000fd5b506000816002018190555060008160030181905550806003015460036000828254610f9b9190611aa5565b9250508190555050565b610fad610a31565b610fec576040517f08c379a0000000000000000000000000000000000000000000000000000000008152600401610fe390611533565b60405180910390fd5b8073ffffffffffffffffffffffffffffffffffffffff16600160008373ffffffffffffffffffffffffffffffffffffffff1673ffffffffffffffffffffffffffffffffffffffff16815260200190815260200160002060000160009054906101000a900473ffffffffffffffffffffffffffffffffffffffff1673ffffffffffffffffffffffffffffffffffffffff16146110bc576040517f08c379a00000000000000000000000000000000000000000000000000000000081526004016110b390611db5565b60405180910390fd5b6000600160008373ffffffffffffffffffffffffffffffffffffffff1673ffffffffffffffffffffffffffffffffffffffff16815260200190815260200160002060020154905080600360008282546111159190611aa5565b9250508190555060008273ffffffffffffffffffffffffffffffffffffffff166108fc839081150290604051600060405180830381858888f19350505050905080611195576040517f08c379a000000000000000000000000000000000000000000000000000000000815260040161118c90611e47565b60405180910390fd5b6000600160008573ffffffffffffffffffffffffffffffffffffffff1673ffffffffffffffffffffffffffffffffffffffff168152602001908152602001600020600201819055506000600160008573ffffffffffffffffffffffffffffffffffffffff1673ffffffffffffffffffffffffffffffffffffffff168152602001908152602001600020600301819055506000600160008573ffffffffffffffffffffffffffffffffffffffff1673ffffffffffffffffffffffffffffffffffffffff16815260200190815260200160002060060181905550505050565b60008082036112845760009050611289565b600190505b919050565b600080600160008573ffffffffffffffffffffffffffffffffffffffff1673ffffffffffffffffffffffffffffffffffffffff16815260200190815260200160002060010160008473ffffffffffffffffffffffffffffffffffffffff1673ffffffffffffffffffffffffffffffffffffffff1681526020019081526020016000206000015411905092915050565b600080fd5b600073ffffffffffffffffffffffffffffffffffffffff82169050919050565b600061134d82611322565b9050919050565b61135d81611342565b811461136857600080fd5b50565b60008135905061137a81611354565b92915050565b6000602082840312156113965761139561131d565b5b60006113a48482850161136b565b91505092915050565b60008115159050919050565b6113c2816113ad565b82525050565b60006020820190506113dd60008301846113b9565b92915050565b6000819050919050565b6113f6816113e3565b82525050565b600060208201905061141160008301846113ed565b92915050565b611420816113e3565b811461142b57600080fd5b50565b60008135905061143d81611417565b92915050565b6000602082840312156114595761145861131d565b5b60006114678482850161142e565b91505092915050565b600080604083850312156114875761148661131d565b5b60006114958582860161136b565b92505060206114a68582860161142e565b9150509250929050565b600082825260208201905092915050565b7f4f6e6c7920726567756c61746f722063616e2063616c6c20746869732066756e60008201527f6374696f6e000000000000000000000000000000000000000000000000000000602082015250565b600061151d6025836114b0565b9150611528826114c1565b604082019050919050565b6000602082019050818103600083015261154c81611510565b9050919050565b7f4120736574746c6f722063616e206f6e6c7920626520736574746c6f72206f6660008201527f206f6e65206669647563696172792072656c6174696f6e736869700000000000602082015250565b60006115af603b836114b0565b91506115ba82611553565b604082019050919050565b600060208201905081810360008301526115de816115a2565b9050919050565b7f4e487b7100000000000000000000000000000000000000000000000000000000600052600160045260246000fd5b7f4f6e6c79206120736574746c6f722063616e2063616c6c20746869732066756e60008201527f6374696f6e000000000000000000000000000000000000000000000000000000602082015250565b60006116706025836114b0565b915061167b82611614565b604082019050919050565b6000602082019050818103600083015261169f81611663565b9050919050565b7f446561646c696e65206861732070617373656400000000000000000000000000600082015250565b60006116dc6013836114b0565b91506116e7826116a6565b602082019050919050565b6000602082019050818103600083015261170b816116cf565b9050919050565b7f4e487b7100000000000000000000000000000000000000000000000000000000600052601160045260246000fd5b600061174c826113e3565b9150611757836113e3565b925082820190508082111561176f5761176e611712565b5b92915050565b7f446561646c696e6520696e76616c696400000000000000000000000000000000600082015250565b60006117ab6010836114b0565b91506117b682611775565b602082019050919050565b600060208201905081810360008301526117da8161179e565b9050919050565b7f4120646561646c696e6520616c72656164792065786973747320666f7220746860008201527f69732072656c6174696f6e736869700000000000000000000000000000000000602082015250565b600061183d602f836114b0565b9150611848826117e1565b604082019050919050565b6000602082019050818103600083015261186c81611830565b9050919050565b7f42656e656669636961727920646f65736e27742065786973747320696e20746860008201527f652072656c6174696f6e73686970000000000000000000000000000000000000602082015250565b60006118cf602e836114b0565b91506118da82611873565b604082019050919050565b600060208201905081810360008301526118fe816118c2565b9050919050565b7f54686520646561646c696e65206861736e2774206265656e2070617373656400600082015250565b600061193b601f836114b0565b915061194682611905565b602082019050919050565b6000602082019050818103600083015261196a8161192e565b9050919050565b600061197c826113e3565b9150611987836113e3565b9250828202611995816113e3565b915082820484148315176119ac576119ab611712565b5b5092915050565b7f4e487b7100000000000000000000000000000000000000000000000000000000600052601260045260246000fd5b60006119ed826113e3565b91506119f8836113e3565b925082611a0857611a076119b3565b5b828204905092915050565b7f5468652062616c616e636520636f756c64206e6f74206265207769746864726160008201527f776e000000000000000000000000000000000000000000000000000000000000602082015250565b6000611a6f6022836114b0565b9150611a7a82611a13565b604082019050919050565b60006020820190508181036000830152611a9e81611a62565b9050919050565b6000611ab0826113e3565b9150611abb836113e3565b9250828203905081811115611ad357611ad2611712565b5b92915050565b7f42656e656669636961727920616c72656164792065786973747320696e20746860008201527f652072656c6174696f6e73686970000000000000000000000000000000000000602082015250565b6000611b35602e836114b0565b9150611b4082611ad9565b604082019050919050565b60006020820190508181036000830152611b6481611b28565b9050919050565b7f42656e65666963696172792070657263656e746167652063616e6e6f7420626560008201527f2067726561746572207468616e20313030000000000000000000000000000000602082015250565b6000611bc76031836114b0565b9150611bd282611b6b565b604082019050919050565b60006020820190508181036000830152611bf681611bba565b9050919050565b7f546f74616c2070657263656e74616765206f662062656e65666963696172696560008201527f732063616e6e6f74206578636565642031303000000000000000000000000000602082015250565b6000611c596033836114b0565b9150611c6482611bfd565b604082019050919050565b60006020820190508181036000830152611c8881611c4c565b9050919050565b6000611c9a826113e3565b91507fffffffffffffffffffffffffffffffffffffffffffffffffffffffffffffffff8203611ccc57611ccb611712565b5b600182019050919050565b7f546865726520617265207374696c6c2062656e6566696369617269657320696e60008201527f207468652072656c6174696f6e73686970000000000000000000000000000000602082015250565b6000611d336031836114b0565b9150611d3e82611cd7565b604082019050919050565b60006020820190508181036000830152611d6281611d26565b9050919050565b7f49736e2774206120736574746c6f720000000000000000000000000000000000600082015250565b6000611d9f600f836114b0565b9150611daa82611d69565b602082019050919050565b60006020820190508181036000830152611dce81611d92565b9050919050565b7f4661696c656420746f207472616e736665722066756e647320746f207365747460008201527f6c6f720000000000000000000000000000000000000000000000000000000000602082015250565b6000611e316023836114b0565b9150611e3c82611dd5565b604082019050919050565b60006020820190508181036000830152611e6081611e24565b905091905056fea2646970667358221220f87658975e9417e6fcdbc051fe1d4bd7cabe68727e8c8df7bf6e91f0e1aabadd64736f6c63430008130033",
					"opcodes": "PUSH1 0x80 PUSH1 0x40 MSTORE CALLVALUE DUP1 ISZERO PUSH2 0x10 JUMPI PUSH1 0x0 DUP1 REVERT JUMPDEST POP CALLER PUSH1 0x0 DUP1 PUSH2 0x100 EXP DUP2 SLOAD DUP2 PUSH20 0xFFFFFFFFFFFFFFFFFFFFFFFFFFFFFFFFFFFFFFFF MUL NOT AND SWAP1 DUP4 PUSH20 0xFFFFFFFFFFFFFFFFFFFFFFFFFFFFFFFFFFFFFFFF AND MUL OR SWAP1 SSTORE POP PUSH1 0x0 PUSH1 0x3 DUP2 SWAP1 SSTORE POP PUSH2 0x1E9D DUP1 PUSH2 0x68 PUSH1 0x0 CODECOPY PUSH1 0x0 RETURN INVALID PUSH1 0x80 PUSH1 0x40 MSTORE PUSH1 0x4 CALLDATASIZE LT PUSH2 0x91 JUMPI PUSH1 0x0 CALLDATALOAD PUSH1 0xE0 SHR DUP1 PUSH4 0x51CFF8D9 GT PUSH2 0x59 JUMPI DUP1 PUSH4 0x51CFF8D9 EQ PUSH2 0x148 JUMPI DUP1 PUSH4 0x54AC3E0E EQ PUSH2 0x178 JUMPI DUP1 PUSH4 0x96074E70 EQ PUSH2 0x1A3 JUMPI DUP1 PUSH4 0x98EE61AF EQ PUSH2 0x1CC JUMPI DUP1 PUSH4 0xA55453EA EQ PUSH2 0x1D6 JUMPI PUSH2 0x91 JUMP JUMPDEST DUP1 PUSH4 0x2550B78 EQ PUSH2 0x96 JUMPI DUP1 PUSH4 0xF25077B EQ PUSH2 0xBF JUMPI DUP1 PUSH4 0x28D99D42 EQ PUSH2 0xEA JUMPI DUP1 PUSH4 0x3595771B EQ PUSH2 0x115 JUMPI DUP1 PUSH4 0x3BBCA190 EQ PUSH2 0x11F JUMPI JUMPDEST PUSH1 0x0 DUP1 REVERT JUMPDEST CALLVALUE DUP1 ISZERO PUSH2 0xA2 JUMPI PUSH1 0x0 DUP1 REVERT JUMPDEST POP PUSH2 0xBD PUSH1 0x4 DUP1 CALLDATASIZE SUB DUP2 ADD SWAP1 PUSH2 0xB8 SWAP2 SWAP1 PUSH2 0x1380 JUMP JUMPDEST PUSH2 0x1F2 JUMP JUMPDEST STOP JUMPDEST CALLVALUE DUP1 ISZERO PUSH2 0xCB JUMPI PUSH1 0x0 DUP1 REVERT JUMPDEST POP PUSH2 0xD4 PUSH2 0x3B2 JUMP JUMPDEST PUSH1 0x40 MLOAD PUSH2 0xE1 SWAP2 SWAP1 PUSH2 0x13C8 JUMP JUMPDEST PUSH1 0x40 MLOAD DUP1 SWAP2 SUB SWAP1 RETURN JUMPDEST CALLVALUE DUP1 ISZERO PUSH2 0xF6 JUMPI PUSH1 0x0 DUP1 REVERT JUMPDEST POP PUSH2 0xFF PUSH2 0x44F JUMP JUMPDEST PUSH1 0x40 MLOAD PUSH2 0x10C SWAP2 SWAP1 PUSH2 0x13FC JUMP JUMPDEST PUSH1 0x40 MLOAD DUP1 SWAP2 SUB SWAP1 RETURN JUMPDEST PUSH2 0x11D PUSH2 0x46B JUMP JUMPDEST STOP JUMPDEST CALLVALUE DUP1 ISZERO PUSH2 0x12B JUMPI PUSH1 0x0 DUP1 REVERT JUMPDEST POP PUSH2 0x146 PUSH1 0x4 DUP1 CALLDATASIZE SUB DUP2 ADD SWAP1 PUSH2 0x141 SWAP2 SWAP1 PUSH2 0x1443 JUMP JUMPDEST PUSH2 0x665 JUMP JUMPDEST STOP JUMPDEST PUSH2 0x162 PUSH1 0x4 DUP1 CALLDATASIZE SUB DUP2 ADD SWAP1 PUSH2 0x15D SWAP2 SWAP1 PUSH2 0x1380 JUMP JUMPDEST PUSH2 0x7CE JUMP JUMPDEST PUSH1 0x40 MLOAD PUSH2 0x16F SWAP2 SWAP1 PUSH2 0x13C8 JUMP JUMPDEST PUSH1 0x40 MLOAD DUP1 SWAP2 SUB SWAP1 RETURN JUMPDEST CALLVALUE DUP1 ISZERO PUSH2 0x184 JUMPI PUSH1 0x0 DUP1 REVERT JUMPDEST POP PUSH2 0x18D PUSH2 0xA31 JUMP JUMPDEST PUSH1 0x40 MLOAD PUSH2 0x19A SWAP2 SWAP1 PUSH2 0x13C8 JUMP JUMPDEST PUSH1 0x40 MLOAD DUP1 SWAP2 SUB SWAP1 RETURN JUMPDEST CALLVALUE DUP1 ISZERO PUSH2 0x1AF JUMPI PUSH1 0x0 DUP1 REVERT JUMPDEST POP PUSH2 0x1CA PUSH1 0x4 DUP1 CALLDATASIZE SUB DUP2 ADD SWAP1 PUSH2 0x1C5 SWAP2 SWAP1 PUSH2 0x1470 JUMP JUMPDEST PUSH2 0xA88 JUMP JUMPDEST STOP JUMPDEST PUSH2 0x1D4 PUSH2 0xE0F JUMP JUMPDEST STOP JUMPDEST PUSH2 0x1F0 PUSH1 0x4 DUP1 CALLDATASIZE SUB DUP2 ADD SWAP1 PUSH2 0x1EB SWAP2 SWAP1 PUSH2 0x1380 JUMP JUMPDEST PUSH2 0xFA5 JUMP JUMPDEST STOP JUMPDEST PUSH2 0x1FA PUSH2 0xA31 JUMP JUMPDEST PUSH2 0x239 JUMPI PUSH1 0x40 MLOAD PUSH32 0x8C379A000000000000000000000000000000000000000000000000000000000 DUP2 MSTORE PUSH1 0x4 ADD PUSH2 0x230 SWAP1 PUSH2 0x1533 JUMP JUMPDEST PUSH1 0x40 MLOAD DUP1 SWAP2 SUB SWAP1 REVERT JUMPDEST PUSH1 0x0 PUSH1 0x2 PUSH1 0x0 DUP4 PUSH20 0xFFFFFFFFFFFFFFFFFFFFFFFFFFFFFFFFFFFFFFFF AND PUSH20 0xFFFFFFFFFFFFFFFFFFFFFFFFFFFFFFFFFFFFFFFF AND DUP2 MSTORE PUSH1 0x20 ADD SWAP1 DUP2 MSTORE PUSH1 0x20 ADD PUSH1 0x0 KECCAK256 SLOAD EQ PUSH2 0x2BB JUMPI PUSH1 0x40 MLOAD PUSH32 0x8C379A000000000000000000000000000000000000000000000000000000000 DUP2 MSTORE PUSH1 0x4 ADD PUSH2 0x2B2 SWAP1 PUSH2 0x15C5 JUMP JUMPDEST PUSH1 0x40 MLOAD DUP1 SWAP2 SUB SWAP1 REVERT JUMPDEST PUSH1 0x0 PUSH1 0x1 PUSH1 0x0 DUP4 PUSH20 0xFFFFFFFFFFFFFFFFFFFFFFFFFFFFFFFFFFFFFFFF AND PUSH20 0xFFFFFFFFFFFFFFFFFFFFFFFFFFFFFFFFFFFFFFFF AND DUP2 MSTORE PUSH1 0x20 ADD SWAP1 DUP2 MSTORE PUSH1 0x20 ADD PUSH1 0x0 KECCAK256 SWAP1 POP DUP2 DUP2 PUSH1 0x0 ADD PUSH1 0x0 PUSH2 0x100 EXP DUP2 SLOAD DUP2 PUSH20 0xFFFFFFFFFFFFFFFFFFFFFFFFFFFFFFFFFFFFFFFF MUL NOT AND SWAP1 DUP4 PUSH20 0xFFFFFFFFFFFFFFFFFFFFFFFFFFFFFFFFFFFFFFFF AND MUL OR SWAP1 SSTORE POP PUSH1 0x0 DUP2 PUSH1 0x4 ADD DUP2 SWAP1 SSTORE POP PUSH1 0x0 DUP2 PUSH1 0x6 ADD DUP2 SWAP1 SSTORE POP PUSH1 0x0 DUP2 PUSH1 0x2 ADD DUP2 SWAP1 SSTORE POP PUSH1 0x0 DUP2 PUSH1 0x3 ADD DUP2 SWAP1 SSTORE POP PUSH1 0x0 PUSH1 0x2 PUSH1 0x0 DUP5 PUSH20 0xFFFFFFFFFFFFFFFFFFFFFFFFFFFFFFFFFFFFFFFF AND PUSH20 0xFFFFFFFFFFFFFFFFFFFFFFFFFFFFFFFFFFFFFFFF AND DUP2 MSTORE PUSH1 0x20 ADD SWAP1 DUP2 MSTORE PUSH1 0x20 ADD PUSH1 0x0 KECCAK256 DUP2 SWAP1 SSTORE POP POP POP JUMP JUMPDEST PUSH1 0x0 DUP1 PUSH1 0x1 PUSH1 0x0 CALLER PUSH20 0xFFFFFFFFFFFFFFFFFFFFFFFFFFFFFFFFFFFFFFFF AND PUSH20 0xFFFFFFFFFFFFFFFFFFFFFFFFFFFFFFFFFFFFFFFF AND DUP2 MSTORE PUSH1 0x20 ADD SWAP1 DUP2 MSTORE PUSH1 0x20 ADD PUSH1 0x0 KECCAK256 PUSH1 0x0 ADD PUSH1 0x0 SWAP1 SLOAD SWAP1 PUSH2 0x100 EXP SWAP1 DIV PUSH20 0xFFFFFFFFFFFFFFFFFFFFFFFFFFFFFFFFFFFFFFFF AND SWAP1 POP CALLER PUSH20 0xFFFFFFFFFFFFFFFFFFFFFFFFFFFFFFFFFFFFFFFF AND DUP2 PUSH20 0xFFFFFFFFFFFFFFFFFFFFFFFFFFFFFFFFFFFFFFFF AND EQ SWAP2 POP POP SWAP1 JUMP JUMPDEST PUSH1 0x0 SELFBALANCE PUSH1 0x3 SLOAD EQ PUSH2 0x463 JUMPI PUSH2 0x462 PUSH2 0x15E5 JUMP JUMPDEST JUMPDEST PUSH1 0x3 SLOAD SWAP1 POP SWAP1 JUMP JUMPDEST PUSH2 0x473 PUSH2 0x3B2 JUMP JUMPDEST PUSH2 0x4B2 JUMPI PUSH1 0x40 MLOAD PUSH32 0x8C379A000000000000000000000000000000000000000000000000000000000 DUP2 MSTORE PUSH1 0x4 ADD PUSH2 0x4A9 SWAP1 PUSH2 0x1686 JUMP JUMPDEST PUSH1 0x40 MLOAD DUP1 SWAP2 SUB SWAP1 REVERT JUMPDEST PUSH1 0x0 PUSH1 0x1 PUSH1 0x0 CALLER PUSH20 0xFFFFFFFFFFFFFFFFFFFFFFFFFFFFFFFFFFFFFFFF AND PUSH20 0xFFFFFFFFFFFFFFFFFFFFFFFFFFFFFFFFFFFFFFFF AND DUP2 MSTORE PUSH1 0x20 ADD SWAP1 DUP2 MSTORE PUSH1 0x20 ADD PUSH1 0x0 KECCAK256 PUSH1 0x6 ADD SLOAD EQ ISZERO DUP1 ISZERO PUSH2 0x547 JUMPI POP PUSH1 0x1 PUSH1 0x0 CALLER PUSH20 0xFFFFFFFFFFFFFFFFFFFFFFFFFFFFFFFFFFFFFFFF AND PUSH20 0xFFFFFFFFFFFFFFFFFFFFFFFFFFFFFFFFFFFFFFFF AND DUP2 MSTORE PUSH1 0x20 ADD SWAP1 DUP2 MSTORE PUSH1 0x20 ADD PUSH1 0x0 KECCAK256 PUSH1 0x6 ADD SLOAD TIMESTAMP GT ISZERO JUMPDEST PUSH2 0x586 JUMPI PUSH1 0x40 MLOAD PUSH32 0x8C379A000000000000000000000000000000000000000000000000000000000 DUP2 MSTORE PUSH1 0x4 ADD PUSH2 0x57D SWAP1 PUSH2 0x16F2 JUMP JUMPDEST PUSH1 0x40 MLOAD DUP1 SWAP2 SUB SWAP1 REVERT JUMPDEST CALLVALUE PUSH1 0x1 PUSH1 0x0 CALLER PUSH20 0xFFFFFFFFFFFFFFFFFFFFFFFFFFFFFFFFFFFFFFFF AND PUSH20 0xFFFFFFFFFFFFFFFFFFFFFFFFFFFFFFFFFFFFFFFF AND DUP2 MSTORE PUSH1 0x20 ADD SWAP1 DUP2 MSTORE PUSH1 0x20 ADD PUSH1 0x0 KECCAK256 PUSH1 0x2 ADD PUSH1 0x0 DUP3 DUP3 SLOAD PUSH2 0x5D8 SWAP2 SWAP1 PUSH2 0x1741 JUMP JUMPDEST SWAP3 POP POP DUP2 SWAP1 SSTORE POP CALLVALUE PUSH1 0x1 PUSH1 0x0 CALLER PUSH20 0xFFFFFFFFFFFFFFFFFFFFFFFFFFFFFFFFFFFFFFFF AND PUSH20 0xFFFFFFFFFFFFFFFFFFFFFFFFFFFFFFFFFFFFFFFF AND DUP2 MSTORE PUSH1 0x20 ADD SWAP1 DUP2 MSTORE PUSH1 0x20 ADD PUSH1 0x0 KECCAK256 PUSH1 0x3 ADD PUSH1 0x0 DUP3 DUP3 SLOAD PUSH2 0x631 SWAP2 SWAP1 PUSH2 0x1741 JUMP JUMPDEST SWAP3 POP POP DUP2 SWAP1 SSTORE POP CALLVALUE PUSH1 0x3 PUSH1 0x0 DUP3 DUP3 SLOAD PUSH2 0x64A SWAP2 SWAP1 PUSH2 0x1741 JUMP JUMPDEST SWAP3 POP POP DUP2 SWAP1 SSTORE POP SELFBALANCE PUSH1 0x3 SLOAD EQ PUSH2 0x663 JUMPI PUSH2 0x662 PUSH2 0x15E5 JUMP JUMPDEST JUMPDEST JUMP JUMPDEST PUSH2 0x66D PUSH2 0x3B2 JUMP JUMPDEST PUSH2 0x6AC JUMPI PUSH1 0x40 MLOAD PUSH32 0x8C379A000000000000000000000000000000000000000000000000000000000 DUP2 MSTORE PUSH1 0x4 ADD PUSH2 0x6A3 SWAP1 PUSH2 0x1686 JUMP JUMPDEST PUSH1 0x40 MLOAD DUP1 SWAP2 SUB SWAP1 REVERT JUMPDEST PUSH2 0x6B5 DUP2 PUSH2 0x1272 JUMP JUMPDEST PUSH2 0x6F4 JUMPI PUSH1 0x40 MLOAD PUSH32 0x8C379A000000000000000000000000000000000000000000000000000000000 DUP2 MSTORE PUSH1 0x4 ADD PUSH2 0x6EB SWAP1 PUSH2 0x17C1 JUMP JUMPDEST PUSH1 0x40 MLOAD DUP1 SWAP2 SUB SWAP1 REVERT JUMPDEST PUSH1 0x0 PUSH1 0x1 PUSH1 0x0 CALLER PUSH20 0xFFFFFFFFFFFFFFFFFFFFFFFFFFFFFFFFFFFFFFFF AND PUSH20 0xFFFFFFFFFFFFFFFFFFFFFFFFFFFFFFFFFFFFFFFF AND DUP2 MSTORE PUSH1 0x20 ADD SWAP1 DUP2 MSTORE PUSH1 0x20 ADD PUSH1 0x0 KECCAK256 PUSH1 0x6 ADD SLOAD EQ PUSH2 0x779 JUMPI PUSH1 0x40 MLOAD PUSH32 0x8C379A000000000000000000000000000000000000000000000000000000000 DUP2 MSTORE PUSH1 0x4 ADD PUSH2 0x770 SWAP1 PUSH2 0x1853 JUMP JUMPDEST PUSH1 0x40 MLOAD DUP1 SWAP2 SUB SWAP1 REVERT JUMPDEST DUP1 TIMESTAMP PUSH2 0x785 SWAP2 SWAP1 PUSH2 0x1741 JUMP JUMPDEST PUSH1 0x1 PUSH1 0x0 CALLER PUSH20 0xFFFFFFFFFFFFFFFFFFFFFFFFFFFFFFFFFFFFFFFF AND PUSH20 0xFFFFFFFFFFFFFFFFFFFFFFFFFFFFFFFFFFFFFFFF AND DUP2 MSTORE PUSH1 0x20 ADD SWAP1 DUP2 MSTORE PUSH1 0x20 ADD PUSH1 0x0 KECCAK256 PUSH1 0x6 ADD DUP2 SWAP1 SSTORE POP POP JUMP JUMPDEST PUSH1 0x0 DUP1 CALLER SWAP1 POP PUSH1 0x0 PUSH1 0x1 PUSH1 0x0 DUP6 PUSH20 0xFFFFFFFFFFFFFFFFFFFFFFFFFFFFFFFFFFFFFFFF AND PUSH20 0xFFFFFFFFFFFFFFFFFFFFFFFFFFFFFFFFFFFFFFFF AND DUP2 MSTORE PUSH1 0x20 ADD SWAP1 DUP2 MSTORE PUSH1 0x20 ADD PUSH1 0x0 KECCAK256 SWAP1 POP PUSH2 0x821 DUP5 DUP4 PUSH2 0x128E JUMP JUMPDEST PUSH2 0x860 JUMPI PUSH1 0x40 MLOAD PUSH32 0x8C379A000000000000000000000000000000000000000000000000000000000 DUP2 MSTORE PUSH1 0x4 ADD PUSH2 0x857 SWAP1 PUSH2 0x18E5 JUMP JUMPDEST PUSH1 0x40 MLOAD DUP1 SWAP2 SUB SWAP1 REVERT JUMPDEST DUP1 PUSH1 0x6 ADD SLOAD TIMESTAMP GT PUSH2 0x8A6 JUMPI PUSH1 0x40 MLOAD PUSH32 0x8C379A000000000000000000000000000000000000000000000000000000000 DUP2 MSTORE PUSH1 0x4 ADD PUSH2 0x89D SWAP1 PUSH2 0x1951 JUMP JUMPDEST PUSH1 0x40 MLOAD DUP1 SWAP2 SUB SWAP1 REVERT JUMPDEST PUSH1 0x0 PUSH1 0x64 DUP3 PUSH1 0x1 ADD PUSH1 0x0 DUP6 PUSH20 0xFFFFFFFFFFFFFFFFFFFFFFFFFFFFFFFFFFFFFFFF AND PUSH20 0xFFFFFFFFFFFFFFFFFFFFFFFFFFFFFFFFFFFFFFFF AND DUP2 MSTORE PUSH1 0x20 ADD SWAP1 DUP2 MSTORE PUSH1 0x20 ADD PUSH1 0x0 KECCAK256 PUSH1 0x0 ADD SLOAD DUP4 PUSH1 0x3 ADD SLOAD PUSH2 0x8FE SWAP2 SWAP1 PUSH2 0x1971 JUMP JUMPDEST PUSH2 0x908 SWAP2 SWAP1 PUSH2 0x19E2 JUMP JUMPDEST SWAP1 POP PUSH1 0x0 DUP4 PUSH20 0xFFFFFFFFFFFFFFFFFFFFFFFFFFFFFFFFFFFFFFFF AND PUSH2 0x8FC DUP4 SWAP1 DUP2 ISZERO MUL SWAP1 PUSH1 0x40 MLOAD PUSH1 0x0 PUSH1 0x40 MLOAD DUP1 DUP4 SUB DUP2 DUP6 DUP9 DUP9 CALL SWAP4 POP POP POP POP SWAP1 POP DUP1 PUSH2 0x983 JUMPI PUSH1 0x40 MLOAD PUSH32 0x8C379A000000000000000000000000000000000000000000000000000000000 DUP2 MSTORE PUSH1 0x4 ADD PUSH2 0x97A SWAP1 PUSH2 0x1A85 JUMP JUMPDEST PUSH1 0x40 MLOAD DUP1 SWAP2 SUB SWAP1 REVERT JUMPDEST DUP2 DUP4 PUSH1 0x1 ADD PUSH1 0x0 DUP7 PUSH20 0xFFFFFFFFFFFFFFFFFFFFFFFFFFFFFFFFFFFFFFFF AND PUSH20 0xFFFFFFFFFFFFFFFFFFFFFFFFFFFFFFFFFFFFFFFF AND DUP2 MSTORE PUSH1 0x20 ADD SWAP1 DUP2 MSTORE PUSH1 0x20 ADD PUSH1 0x0 KECCAK256 PUSH1 0x1 ADD PUSH1 0x0 DUP3 DUP3 SLOAD PUSH2 0x9D7 SWAP2 SWAP1 PUSH2 0x1741 JUMP JUMPDEST SWAP3 POP POP DUP2 SWAP1 SSTORE POP DUP2 DUP4 PUSH1 0x2 ADD PUSH1 0x0 DUP3 DUP3 SLOAD PUSH2 0x9F2 SWAP2 SWAP1 PUSH2 0x1AA5 JUMP JUMPDEST SWAP3 POP POP DUP2 SWAP1 SSTORE POP DUP2 PUSH1 0x3 PUSH1 0x0 DUP3 DUP3 SLOAD PUSH2 0xA0B SWAP2 SWAP1 PUSH2 0x1AA5 JUMP JUMPDEST SWAP3 POP POP DUP2 SWAP1 SSTORE POP SELFBALANCE PUSH1 0x3 SLOAD EQ PUSH2 0xA24 JUMPI PUSH2 0xA23 PUSH2 0x15E5 JUMP JUMPDEST JUMPDEST PUSH1 0x1 SWAP5 POP POP POP POP POP SWAP2 SWAP1 POP JUMP JUMPDEST PUSH1 0x0 DUP1 PUSH1 0x0 SWAP1 SLOAD SWAP1 PUSH2 0x100 EXP SWAP1 DIV PUSH20 0xFFFFFFFFFFFFFFFFFFFFFFFFFFFFFFFFFFFFFFFF AND PUSH20 0xFFFFFFFFFFFFFFFFFFFFFFFFFFFFFFFFFFFFFFFF AND CALLER PUSH20 0xFFFFFFFFFFFFFFFFFFFFFFFFFFFFFFFFFFFFFFFF AND EQ SWAP1 POP SWAP1 JUMP JUMPDEST PUSH2 0xA90 PUSH2 0x3B2 JUMP JUMPDEST PUSH2 0xACF JUMPI PUSH1 0x40 MLOAD PUSH32 0x8C379A000000000000000000000000000000000000000000000000000000000 DUP2 MSTORE PUSH1 0x4 ADD PUSH2 0xAC6 SWAP1 PUSH2 0x1686 JUMP JUMPDEST PUSH1 0x40 MLOAD DUP1 SWAP2 SUB SWAP1 REVERT JUMPDEST PUSH1 0x0 PUSH1 0x1 PUSH1 0x0 CALLER PUSH20 0xFFFFFFFFFFFFFFFFFFFFFFFFFFFFFFFFFFFFFFFF AND PUSH20 0xFFFFFFFFFFFFFFFFFFFFFFFFFFFFFFFFFFFFFFFF AND DUP2 MSTORE PUSH1 0x20 ADD SWAP1 DUP2 MSTORE PUSH1 0x20 ADD PUSH1 0x0 KECCAK256 PUSH1 0x6 ADD SLOAD SUB PUSH2 0xB54 JUMPI PUSH1 0x40 MLOAD PUSH32 0x8C379A000000000000000000000000000000000000000000000000000000000 DUP2 MSTORE PUSH1 0x4 ADD PUSH2 0xB4B SWAP1 PUSH2 0x16F2 JUMP JUMPDEST PUSH1 0x40 MLOAD DUP1 SWAP2 SUB SWAP1 REVERT JUMPDEST PUSH2 0xB5E CALLER DUP4 PUSH2 0x128E JUMP JUMPDEST ISZERO PUSH2 0xB9E JUMPI PUSH1 0x40 MLOAD PUSH32 0x8C379A000000000000000000000000000000000000000000000000000000000 DUP2 MSTORE PUSH1 0x4 ADD PUSH2 0xB95 SWAP1 PUSH2 0x1B4B JUMP JUMPDEST PUSH1 0x40 MLOAD DUP1 SWAP2 SUB SWAP1 REVERT JUMPDEST PUSH1 0x64 DUP2 GT ISZERO PUSH2 0xBE2 JUMPI PUSH1 0x40 MLOAD PUSH32 0x8C379A000000000000000000000000000000000000000000000000000000000 DUP2 MSTORE PUSH1 0x4 ADD PUSH2 0xBD9 SWAP1 PUSH2 0x1BDD JUMP JUMPDEST PUSH1 0x40 MLOAD DUP1 SWAP2 SUB SWAP1 REVERT JUMPDEST PUSH1 0x64 DUP2 PUSH1 0x1 PUSH1 0x0 CALLER PUSH20 0xFFFFFFFFFFFFFFFFFFFFFFFFFFFFFFFFFFFFFFFF AND PUSH20 0xFFFFFFFFFFFFFFFFFFFFFFFFFFFFFFFFFFFFFFFF AND DUP2 MSTORE PUSH1 0x20 ADD SWAP1 DUP2 MSTORE PUSH1 0x20 ADD PUSH1 0x0 KECCAK256 PUSH1 0x4 ADD SLOAD PUSH2 0xC32 SWAP2 SWAP1 PUSH2 0x1741 JUMP JUMPDEST GT ISZERO PUSH2 0xC73 JUMPI PUSH1 0x40 MLOAD PUSH32 0x8C379A000000000000000000000000000000000000000000000000000000000 DUP2 MSTORE PUSH1 0x4 ADD PUSH2 0xC6A SWAP1 PUSH2 0x1C6F JUMP JUMPDEST PUSH1 0x40 MLOAD DUP1 SWAP2 SUB SWAP1 REVERT JUMPDEST PUSH1 0x40 MLOAD DUP1 PUSH1 0x40 ADD PUSH1 0x40 MSTORE DUP1 DUP3 DUP2 MSTORE PUSH1 0x20 ADD PUSH1 0x0 DUP2 MSTORE POP PUSH1 0x1 PUSH1 0x0 CALLER PUSH20 0xFFFFFFFFFFFFFFFFFFFFFFFFFFFFFFFFFFFFFFFF AND PUSH20 0xFFFFFFFFFFFFFFFFFFFFFFFFFFFFFFFFFFFFFFFF AND DUP2 MSTORE PUSH1 0x20 ADD SWAP1 DUP2 MSTORE PUSH1 0x20 ADD PUSH1 0x0 KECCAK256 PUSH1 0x1 ADD PUSH1 0x0 DUP5 PUSH20 0xFFFFFFFFFFFFFFFFFFFFFFFFFFFFFFFFFFFFFFFF AND PUSH20 0xFFFFFFFFFFFFFFFFFFFFFFFFFFFFFFFFFFFFFFFF AND DUP2 MSTORE PUSH1 0x20 ADD SWAP1 DUP2 MSTORE PUSH1 0x20 ADD PUSH1 0x0 KECCAK256 PUSH1 0x0 DUP3 ADD MLOAD DUP2 PUSH1 0x0 ADD SSTORE PUSH1 0x20 DUP3 ADD MLOAD DUP2 PUSH1 0x1 ADD SSTORE SWAP1 POP POP DUP1 PUSH1 0x1 PUSH1 0x0 CALLER PUSH20 0xFFFFFFFFFFFFFFFFFFFFFFFFFFFFFFFFFFFFFFFF AND PUSH20 0xFFFFFFFFFFFFFFFFFFFFFFFFFFFFFFFFFFFFFFFF AND DUP2 MSTORE PUSH1 0x20 ADD SWAP1 DUP2 MSTORE PUSH1 0x20 ADD PUSH1 0x0 KECCAK256 PUSH1 0x4 ADD SLOAD PUSH2 0xD6D SWAP2 SWAP1 PUSH2 0x1741 JUMP JUMPDEST PUSH1 0x1 PUSH1 0x0 CALLER PUSH20 0xFFFFFFFFFFFFFFFFFFFFFFFFFFFFFFFFFFFFFFFF AND PUSH20 0xFFFFFFFFFFFFFFFFFFFFFFFFFFFFFFFFFFFFFFFF AND DUP2 MSTORE PUSH1 0x20 ADD SWAP1 DUP2 MSTORE PUSH1 0x20 ADD PUSH1 0x0 KECCAK256 PUSH1 0x4 ADD DUP2 SWAP1 SSTORE POP PUSH1 0x1 PUSH1 0x0 CALLER PUSH20 0xFFFFFFFFFFFFFFFFFFFFFFFFFFFFFFFFFFFFFFFF AND PUSH20 0xFFFFFFFFFFFFFFFFFFFFFFFFFFFFFFFFFFFFFFFF AND DUP2 MSTORE PUSH1 0x20 ADD SWAP1 DUP2 MSTORE PUSH1 0x20 ADD PUSH1 0x0 KECCAK256 PUSH1 0x5 ADD PUSH1 0x0 DUP2 SLOAD DUP1 SWAP3 SWAP2 SWAP1 PUSH2 0xE06 SWAP1 PUSH2 0x1C8F JUMP JUMPDEST SWAP2 SWAP1 POP SSTORE POP POP POP JUMP JUMPDEST PUSH2 0xE17 PUSH2 0x3B2 JUMP JUMPDEST PUSH2 0xE56 JUMPI PUSH1 0x40 MLOAD PUSH32 0x8C379A000000000000000000000000000000000000000000000000000000000 DUP2 MSTORE PUSH1 0x4 ADD PUSH2 0xE4D SWAP1 PUSH2 0x1686 JUMP JUMPDEST PUSH1 0x40 MLOAD DUP1 SWAP2 SUB SWAP1 REVERT JUMPDEST PUSH1 0x0 PUSH1 0x1 PUSH1 0x0 CALLER PUSH20 0xFFFFFFFFFFFFFFFFFFFFFFFFFFFFFFFFFFFFFFFF AND PUSH20 0xFFFFFFFFFFFFFFFFFFFFFFFFFFFFFFFFFFFFFFFF AND DUP2 MSTORE PUSH1 0x20 ADD SWAP1 DUP2 MSTORE PUSH1 0x20 ADD PUSH1 0x0 KECCAK256 SWAP1 POP DUP1 PUSH1 0x6 ADD SLOAD TIMESTAMP GT PUSH2 0xEDF JUMPI PUSH1 0x40 MLOAD PUSH32 0x8C379A000000000000000000000000000000000000000000000000000000000 DUP2 MSTORE PUSH1 0x4 ADD PUSH2 0xED6 SWAP1 PUSH2 0x1951 JUMP JUMPDEST PUSH1 0x40 MLOAD DUP1 SWAP2 SUB SWAP1 REVERT JUMPDEST PUSH1 0x0 DUP2 PUSH1 0x5 ADD SLOAD EQ PUSH2 0xF26 JUMPI PUSH1 0x40 MLOAD PUSH32 0x8C379A000000000000000000000000000000000000000000000000000000000 DUP2 MSTORE PUSH1 0x4 ADD PUSH2 0xF1D SWAP1 PUSH2 0x1D49 JUMP JUMPDEST PUSH1 0x40 MLOAD DUP1 SWAP2 SUB SWAP1 REVERT JUMPDEST CALLER PUSH20 0xFFFFFFFFFFFFFFFFFFFFFFFFFFFFFFFFFFFFFFFF AND PUSH2 0x8FC DUP3 PUSH1 0x3 ADD SLOAD SWAP1 DUP2 ISZERO MUL SWAP1 PUSH1 0x40 MLOAD PUSH1 0x0 PUSH1 0x40 MLOAD DUP1 DUP4 SUB DUP2 DUP6 DUP9 DUP9 CALL SWAP4 POP POP POP POP ISZERO DUP1 ISZERO PUSH2 0xF70 JUMPI RETURNDATASIZE PUSH1 0x0 DUP1 RETURNDATACOPY RETURNDATASIZE PUSH1 0x0 REVERT JUMPDEST POP PUSH1 0x0 DUP2 PUSH1 0x2 ADD DUP2 SWAP1 SSTORE POP PUSH1 0x0 DUP2 PUSH1 0x3 ADD DUP2 SWAP1 SSTORE POP DUP1 PUSH1 0x3 ADD SLOAD PUSH1 0x3 PUSH1 0x0 DUP3 DUP3 SLOAD PUSH2 0xF9B SWAP2 SWAP1 PUSH2 0x1AA5 JUMP JUMPDEST SWAP3 POP POP DUP2 SWAP1 SSTORE POP POP JUMP JUMPDEST PUSH2 0xFAD PUSH2 0xA31 JUMP JUMPDEST PUSH2 0xFEC JUMPI PUSH1 0x40 MLOAD PUSH32 0x8C379A000000000000000000000000000000000000000000000000000000000 DUP2 MSTORE PUSH1 0x4 ADD PUSH2 0xFE3 SWAP1 PUSH2 0x1533 JUMP JUMPDEST PUSH1 0x40 MLOAD DUP1 SWAP2 SUB SWAP1 REVERT JUMPDEST DUP1 PUSH20 0xFFFFFFFFFFFFFFFFFFFFFFFFFFFFFFFFFFFFFFFF AND PUSH1 0x1 PUSH1 0x0 DUP4 PUSH20 0xFFFFFFFFFFFFFFFFFFFFFFFFFFFFFFFFFFFFFFFF AND PUSH20 0xFFFFFFFFFFFFFFFFFFFFFFFFFFFFFFFFFFFFFFFF AND DUP2 MSTORE PUSH1 0x20 ADD SWAP1 DUP2 MSTORE PUSH1 0x20 ADD PUSH1 0x0 KECCAK256 PUSH1 0x0 ADD PUSH1 0x0 SWAP1 SLOAD SWAP1 PUSH2 0x100 EXP SWAP1 DIV PUSH20 0xFFFFFFFFFFFFFFFFFFFFFFFFFFFFFFFFFFFFFFFF AND PUSH20 0xFFFFFFFFFFFFFFFFFFFFFFFFFFFFFFFFFFFFFFFF AND EQ PUSH2 0x10BC JUMPI PUSH1 0x40 MLOAD PUSH32 0x8C379A000000000000000000000000000000000000000000000000000000000 DUP2 MSTORE PUSH1 0x4 ADD PUSH2 0x10B3 SWAP1 PUSH2 0x1DB5 JUMP JUMPDEST PUSH1 0x40 MLOAD DUP1 SWAP2 SUB SWAP1 REVERT JUMPDEST PUSH1 0x0 PUSH1 0x1 PUSH1 0x0 DUP4 PUSH20 0xFFFFFFFFFFFFFFFFFFFFFFFFFFFFFFFFFFFFFFFF AND PUSH20 0xFFFFFFFFFFFFFFFFFFFFFFFFFFFFFFFFFFFFFFFF AND DUP2 MSTORE PUSH1 0x20 ADD SWAP1 DUP2 MSTORE PUSH1 0x20 ADD PUSH1 0x0 KECCAK256 PUSH1 0x2 ADD SLOAD SWAP1 POP DUP1 PUSH1 0x3 PUSH1 0x0 DUP3 DUP3 SLOAD PUSH2 0x1115 SWAP2 SWAP1 PUSH2 0x1AA5 JUMP JUMPDEST SWAP3 POP POP DUP2 SWAP1 SSTORE POP PUSH1 0x0 DUP3 PUSH20 0xFFFFFFFFFFFFFFFFFFFFFFFFFFFFFFFFFFFFFFFF AND PUSH2 0x8FC DUP4 SWAP1 DUP2 ISZERO MUL SWAP1 PUSH1 0x40 MLOAD PUSH1 0x0 PUSH1 0x40 MLOAD DUP1 DUP4 SUB DUP2 DUP6 DUP9 DUP9 CALL SWAP4 POP POP POP POP SWAP1 POP DUP1 PUSH2 0x1195 JUMPI PUSH1 0x40 MLOAD PUSH32 0x8C379A000000000000000000000000000000000000000000000000000000000 DUP2 MSTORE PUSH1 0x4 ADD PUSH2 0x118C SWAP1 PUSH2 0x1E47 JUMP JUMPDEST PUSH1 0x40 MLOAD DUP1 SWAP2 SUB SWAP1 REVERT JUMPDEST PUSH1 0x0 PUSH1 0x1 PUSH1 0x0 DUP6 PUSH20 0xFFFFFFFFFFFFFFFFFFFFFFFFFFFFFFFFFFFFFFFF AND PUSH20 0xFFFFFFFFFFFFFFFFFFFFFFFFFFFFFFFFFFFFFFFF AND DUP2 MSTORE PUSH1 0x20 ADD SWAP1 DUP2 MSTORE PUSH1 0x20 ADD PUSH1 0x0 KECCAK256 PUSH1 0x2 ADD DUP2 SWAP1 SSTORE POP PUSH1 0x0 PUSH1 0x1 PUSH1 0x0 DUP6 PUSH20 0xFFFFFFFFFFFFFFFFFFFFFFFFFFFFFFFFFFFFFFFF AND PUSH20 0xFFFFFFFFFFFFFFFFFFFFFFFFFFFFFFFFFFFFFFFF AND DUP2 MSTORE PUSH1 0x20 ADD SWAP1 DUP2 MSTORE PUSH1 0x20 ADD PUSH1 0x0 KECCAK256 PUSH1 0x3 ADD DUP2 SWAP1 SSTORE POP PUSH1 0x0 PUSH1 0x1 PUSH1 0x0 DUP6 PUSH20 0xFFFFFFFFFFFFFFFFFFFFFFFFFFFFFFFFFFFFFFFF AND PUSH20 0xFFFFFFFFFFFFFFFFFFFFFFFFFFFFFFFFFFFFFFFF AND DUP2 MSTORE PUSH1 0x20 ADD SWAP1 DUP2 MSTORE PUSH1 0x20 ADD PUSH1 0x0 KECCAK256 PUSH1 0x6 ADD DUP2 SWAP1 SSTORE POP POP POP POP JUMP JUMPDEST PUSH1 0x0 DUP1 DUP3 SUB PUSH2 0x1284 JUMPI PUSH1 0x0 SWAP1 POP PUSH2 0x1289 JUMP JUMPDEST PUSH1 0x1 SWAP1 POP JUMPDEST SWAP2 SWAP1 POP JUMP JUMPDEST PUSH1 0x0 DUP1 PUSH1 0x1 PUSH1 0x0 DUP6 PUSH20 0xFFFFFFFFFFFFFFFFFFFFFFFFFFFFFFFFFFFFFFFF AND PUSH20 0xFFFFFFFFFFFFFFFFFFFFFFFFFFFFFFFFFFFFFFFF AND DUP2 MSTORE PUSH1 0x20 ADD SWAP1 DUP2 MSTORE PUSH1 0x20 ADD PUSH1 0x0 KECCAK256 PUSH1 0x1 ADD PUSH1 0x0 DUP5 PUSH20 0xFFFFFFFFFFFFFFFFFFFFFFFFFFFFFFFFFFFFFFFF AND PUSH20 0xFFFFFFFFFFFFFFFFFFFFFFFFFFFFFFFFFFFFFFFF AND DUP2 MSTORE PUSH1 0x20 ADD SWAP1 DUP2 MSTORE PUSH1 0x20 ADD PUSH1 0x0 KECCAK256 PUSH1 0x0 ADD SLOAD GT SWAP1 POP SWAP3 SWAP2 POP POP JUMP JUMPDEST PUSH1 0x0 DUP1 REVERT JUMPDEST PUSH1 0x0 PUSH20 0xFFFFFFFFFFFFFFFFFFFFFFFFFFFFFFFFFFFFFFFF DUP3 AND SWAP1 POP SWAP2 SWAP1 POP JUMP JUMPDEST PUSH1 0x0 PUSH2 0x134D DUP3 PUSH2 0x1322 JUMP JUMPDEST SWAP1 POP SWAP2 SWAP1 POP JUMP JUMPDEST PUSH2 0x135D DUP2 PUSH2 0x1342 JUMP JUMPDEST DUP2 EQ PUSH2 0x1368 JUMPI PUSH1 0x0 DUP1 REVERT JUMPDEST POP JUMP JUMPDEST PUSH1 0x0 DUP2 CALLDATALOAD SWAP1 POP PUSH2 0x137A DUP2 PUSH2 0x1354 JUMP JUMPDEST SWAP3 SWAP2 POP POP JUMP JUMPDEST PUSH1 0x0 PUSH1 0x20 DUP3 DUP5 SUB SLT ISZERO PUSH2 0x1396 JUMPI PUSH2 0x1395 PUSH2 0x131D JUMP JUMPDEST JUMPDEST PUSH1 0x0 PUSH2 0x13A4 DUP5 DUP3 DUP6 ADD PUSH2 0x136B JUMP JUMPDEST SWAP2 POP POP SWAP3 SWAP2 POP POP JUMP JUMPDEST PUSH1 0x0 DUP2 ISZERO ISZERO SWAP1 POP SWAP2 SWAP1 POP JUMP JUMPDEST PUSH2 0x13C2 DUP2 PUSH2 0x13AD JUMP JUMPDEST DUP3 MSTORE POP POP JUMP JUMPDEST PUSH1 0x0 PUSH1 0x20 DUP3 ADD SWAP1 POP PUSH2 0x13DD PUSH1 0x0 DUP4 ADD DUP5 PUSH2 0x13B9 JUMP JUMPDEST SWAP3 SWAP2 POP POP JUMP JUMPDEST PUSH1 0x0 DUP2 SWAP1 POP SWAP2 SWAP1 POP JUMP JUMPDEST PUSH2 0x13F6 DUP2 PUSH2 0x13E3 JUMP JUMPDEST DUP3 MSTORE POP POP JUMP JUMPDEST PUSH1 0x0 PUSH1 0x20 DUP3 ADD SWAP1 POP PUSH2 0x1411 PUSH1 0x0 DUP4 ADD DUP5 PUSH2 0x13ED JUMP JUMPDEST SWAP3 SWAP2 POP POP JUMP JUMPDEST PUSH2 0x1420 DUP2 PUSH2 0x13E3 JUMP JUMPDEST DUP2 EQ PUSH2 0x142B JUMPI PUSH1 0x0 DUP1 REVERT JUMPDEST POP JUMP JUMPDEST PUSH1 0x0 DUP2 CALLDATALOAD SWAP1 POP PUSH2 0x143D DUP2 PUSH2 0x1417 JUMP JUMPDEST SWAP3 SWAP2 POP POP JUMP JUMPDEST PUSH1 0x0 PUSH1 0x20 DUP3 DUP5 SUB SLT ISZERO PUSH2 0x1459 JUMPI PUSH2 0x1458 PUSH2 0x131D JUMP JUMPDEST JUMPDEST PUSH1 0x0 PUSH2 0x1467 DUP5 DUP3 DUP6 ADD PUSH2 0x142E JUMP JUMPDEST SWAP2 POP POP SWAP3 SWAP2 POP POP JUMP JUMPDEST PUSH1 0x0 DUP1 PUSH1 0x40 DUP4 DUP6 SUB SLT ISZERO PUSH2 0x1487 JUMPI PUSH2 0x1486 PUSH2 0x131D JUMP JUMPDEST JUMPDEST PUSH1 0x0 PUSH2 0x1495 DUP6 DUP3 DUP7 ADD PUSH2 0x136B JUMP JUMPDEST SWAP3 POP POP PUSH1 0x20 PUSH2 0x14A6 DUP6 DUP3 DUP7 ADD PUSH2 0x142E JUMP JUMPDEST SWAP2 POP POP SWAP3 POP SWAP3 SWAP1 POP JUMP JUMPDEST PUSH1 0x0 DUP3 DUP3 MSTORE PUSH1 0x20 DUP3 ADD SWAP1 POP SWAP3 SWAP2 POP POP JUMP JUMPDEST PUSH32 0x4F6E6C7920726567756C61746F722063616E2063616C6C20746869732066756E PUSH1 0x0 DUP3 ADD MSTORE PUSH32 0x6374696F6E000000000000000000000000000000000000000000000000000000 PUSH1 0x20 DUP3 ADD MSTORE POP JUMP JUMPDEST PUSH1 0x0 PUSH2 0x151D PUSH1 0x25 DUP4 PUSH2 0x14B0 JUMP JUMPDEST SWAP2 POP PUSH2 0x1528 DUP3 PUSH2 0x14C1 JUMP JUMPDEST PUSH1 0x40 DUP3 ADD SWAP1 POP SWAP2 SWAP1 POP JUMP JUMPDEST PUSH1 0x0 PUSH1 0x20 DUP3 ADD SWAP1 POP DUP2 DUP2 SUB PUSH1 0x0 DUP4 ADD MSTORE PUSH2 0x154C DUP2 PUSH2 0x1510 JUMP JUMPDEST SWAP1 POP SWAP2 SWAP1 POP JUMP JUMPDEST PUSH32 0x4120736574746C6F722063616E206F6E6C7920626520736574746C6F72206F66 PUSH1 0x0 DUP3 ADD MSTORE PUSH32 0x206F6E65206669647563696172792072656C6174696F6E736869700000000000 PUSH1 0x20 DUP3 ADD MSTORE POP JUMP JUMPDEST PUSH1 0x0 PUSH2 0x15AF PUSH1 0x3B DUP4 PUSH2 0x14B0 JUMP JUMPDEST SWAP2 POP PUSH2 0x15BA DUP3 PUSH2 0x1553 JUMP JUMPDEST PUSH1 0x40 DUP3 ADD SWAP1 POP SWAP2 SWAP1 POP JUMP JUMPDEST PUSH1 0x0 PUSH1 0x20 DUP3 ADD SWAP1 POP DUP2 DUP2 SUB PUSH1 0x0 DUP4 ADD MSTORE PUSH2 0x15DE DUP2 PUSH2 0x15A2 JUMP JUMPDEST SWAP1 POP SWAP2 SWAP1 POP JUMP JUMPDEST PUSH32 0x4E487B7100000000000000000000000000000000000000000000000000000000 PUSH1 0x0 MSTORE PUSH1 0x1 PUSH1 0x4 MSTORE PUSH1 0x24 PUSH1 0x0 REVERT JUMPDEST PUSH32 0x4F6E6C79206120736574746C6F722063616E2063616C6C20746869732066756E PUSH1 0x0 DUP3 ADD MSTORE PUSH32 0x6374696F6E000000000000000000000000000000000000000000000000000000 PUSH1 0x20 DUP3 ADD MSTORE POP JUMP JUMPDEST PUSH1 0x0 PUSH2 0x1670 PUSH1 0x25 DUP4 PUSH2 0x14B0 JUMP JUMPDEST SWAP2 POP PUSH2 0x167B DUP3 PUSH2 0x1614 JUMP JUMPDEST PUSH1 0x40 DUP3 ADD SWAP1 POP SWAP2 SWAP1 POP JUMP JUMPDEST PUSH1 0x0 PUSH1 0x20 DUP3 ADD SWAP1 POP DUP2 DUP2 SUB PUSH1 0x0 DUP4 ADD MSTORE PUSH2 0x169F DUP2 PUSH2 0x1663 JUMP JUMPDEST SWAP1 POP SWAP2 SWAP1 POP JUMP JUMPDEST PUSH32 0x446561646C696E65206861732070617373656400000000000000000000000000 PUSH1 0x0 DUP3 ADD MSTORE POP JUMP JUMPDEST PUSH1 0x0 PUSH2 0x16DC PUSH1 0x13 DUP4 PUSH2 0x14B0 JUMP JUMPDEST SWAP2 POP PUSH2 0x16E7 DUP3 PUSH2 0x16A6 JUMP JUMPDEST PUSH1 0x20 DUP3 ADD SWAP1 POP SWAP2 SWAP1 POP JUMP JUMPDEST PUSH1 0x0 PUSH1 0x20 DUP3 ADD SWAP1 POP DUP2 DUP2 SUB PUSH1 0x0 DUP4 ADD MSTORE PUSH2 0x170B DUP2 PUSH2 0x16CF JUMP JUMPDEST SWAP1 POP SWAP2 SWAP1 POP JUMP JUMPDEST PUSH32 0x4E487B7100000000000000000000000000000000000000000000000000000000 PUSH1 0x0 MSTORE PUSH1 0x11 PUSH1 0x4 MSTORE PUSH1 0x24 PUSH1 0x0 REVERT JUMPDEST PUSH1 0x0 PUSH2 0x174C DUP3 PUSH2 0x13E3 JUMP JUMPDEST SWAP2 POP PUSH2 0x1757 DUP4 PUSH2 0x13E3 JUMP JUMPDEST SWAP3 POP DUP3 DUP3 ADD SWAP1 POP DUP1 DUP3 GT ISZERO PUSH2 0x176F JUMPI PUSH2 0x176E PUSH2 0x1712 JUMP JUMPDEST JUMPDEST SWAP3 SWAP2 POP POP JUMP JUMPDEST PUSH32 0x446561646C696E6520696E76616C696400000000000000000000000000000000 PUSH1 0x0 DUP3 ADD MSTORE POP JUMP JUMPDEST PUSH1 0x0 PUSH2 0x17AB PUSH1 0x10 DUP4 PUSH2 0x14B0 JUMP JUMPDEST SWAP2 POP PUSH2 0x17B6 DUP3 PUSH2 0x1775 JUMP JUMPDEST PUSH1 0x20 DUP3 ADD SWAP1 POP SWAP2 SWAP1 POP JUMP JUMPDEST PUSH1 0x0 PUSH1 0x20 DUP3 ADD SWAP1 POP DUP2 DUP2 SUB PUSH1 0x0 DUP4 ADD MSTORE PUSH2 0x17DA DUP2 PUSH2 0x179E JUMP JUMPDEST SWAP1 POP SWAP2 SWAP1 POP JUMP JUMPDEST PUSH32 0x4120646561646C696E6520616C72656164792065786973747320666F72207468 PUSH1 0x0 DUP3 ADD MSTORE PUSH32 0x69732072656C6174696F6E736869700000000000000000000000000000000000 PUSH1 0x20 DUP3 ADD MSTORE POP JUMP JUMPDEST PUSH1 0x0 PUSH2 0x183D PUSH1 0x2F DUP4 PUSH2 0x14B0 JUMP JUMPDEST SWAP2 POP PUSH2 0x1848 DUP3 PUSH2 0x17E1 JUMP JUMPDEST PUSH1 0x40 DUP3 ADD SWAP1 POP SWAP2 SWAP1 POP JUMP JUMPDEST PUSH1 0x0 PUSH1 0x20 DUP3 ADD SWAP1 POP DUP2 DUP2 SUB PUSH1 0x0 DUP4 ADD MSTORE PUSH2 0x186C DUP2 PUSH2 0x1830 JUMP JUMPDEST SWAP1 POP SWAP2 SWAP1 POP JUMP JUMPDEST PUSH32 0x42656E656669636961727920646F65736E27742065786973747320696E207468 PUSH1 0x0 DUP3 ADD MSTORE PUSH32 0x652072656C6174696F6E73686970000000000000000000000000000000000000 PUSH1 0x20 DUP3 ADD MSTORE POP JUMP JUMPDEST PUSH1 0x0 PUSH2 0x18CF PUSH1 0x2E DUP4 PUSH2 0x14B0 JUMP JUMPDEST SWAP2 POP PUSH2 0x18DA DUP3 PUSH2 0x1873 JUMP JUMPDEST PUSH1 0x40 DUP3 ADD SWAP1 POP SWAP2 SWAP1 POP JUMP JUMPDEST PUSH1 0x0 PUSH1 0x20 DUP3 ADD SWAP1 POP DUP2 DUP2 SUB PUSH1 0x0 DUP4 ADD MSTORE PUSH2 0x18FE DUP2 PUSH2 0x18C2 JUMP JUMPDEST SWAP1 POP SWAP2 SWAP1 POP JUMP JUMPDEST PUSH32 0x54686520646561646C696E65206861736E2774206265656E2070617373656400 PUSH1 0x0 DUP3 ADD MSTORE POP JUMP JUMPDEST PUSH1 0x0 PUSH2 0x193B PUSH1 0x1F DUP4 PUSH2 0x14B0 JUMP JUMPDEST SWAP2 POP PUSH2 0x1946 DUP3 PUSH2 0x1905 JUMP JUMPDEST PUSH1 0x20 DUP3 ADD SWAP1 POP SWAP2 SWAP1 POP JUMP JUMPDEST PUSH1 0x0 PUSH1 0x20 DUP3 ADD SWAP1 POP DUP2 DUP2 SUB PUSH1 0x0 DUP4 ADD MSTORE PUSH2 0x196A DUP2 PUSH2 0x192E JUMP JUMPDEST SWAP1 POP SWAP2 SWAP1 POP JUMP JUMPDEST PUSH1 0x0 PUSH2 0x197C DUP3 PUSH2 0x13E3 JUMP JUMPDEST SWAP2 POP PUSH2 0x1987 DUP4 PUSH2 0x13E3 JUMP JUMPDEST SWAP3 POP DUP3 DUP3 MUL PUSH2 0x1995 DUP2 PUSH2 0x13E3 JUMP JUMPDEST SWAP2 POP DUP3 DUP3 DIV DUP5 EQ DUP4 ISZERO OR PUSH2 0x19AC JUMPI PUSH2 0x19AB PUSH2 0x1712 JUMP JUMPDEST JUMPDEST POP SWAP3 SWAP2 POP POP JUMP JUMPDEST PUSH32 0x4E487B7100000000000000000000000000000000000000000000000000000000 PUSH1 0x0 MSTORE PUSH1 0x12 PUSH1 0x4 MSTORE PUSH1 0x24 PUSH1 0x0 REVERT JUMPDEST PUSH1 0x0 PUSH2 0x19ED DUP3 PUSH2 0x13E3 JUMP JUMPDEST SWAP2 POP PUSH2 0x19F8 DUP4 PUSH2 0x13E3 JUMP JUMPDEST SWAP3 POP DUP3 PUSH2 0x1A08 JUMPI PUSH2 0x1A07 PUSH2 0x19B3 JUMP JUMPDEST JUMPDEST DUP3 DUP3 DIV SWAP1 POP SWAP3 SWAP2 POP POP JUMP JUMPDEST PUSH32 0x5468652062616C616E636520636F756C64206E6F742062652077697468647261 PUSH1 0x0 DUP3 ADD MSTORE PUSH32 0x776E000000000000000000000000000000000000000000000000000000000000 PUSH1 0x20 DUP3 ADD MSTORE POP JUMP JUMPDEST PUSH1 0x0 PUSH2 0x1A6F PUSH1 0x22 DUP4 PUSH2 0x14B0 JUMP JUMPDEST SWAP2 POP PUSH2 0x1A7A DUP3 PUSH2 0x1A13 JUMP JUMPDEST PUSH1 0x40 DUP3 ADD SWAP1 POP SWAP2 SWAP1 POP JUMP JUMPDEST PUSH1 0x0 PUSH1 0x20 DUP3 ADD SWAP1 POP DUP2 DUP2 SUB PUSH1 0x0 DUP4 ADD MSTORE PUSH2 0x1A9E DUP2 PUSH2 0x1A62 JUMP JUMPDEST SWAP1 POP SWAP2 SWAP1 POP JUMP JUMPDEST PUSH1 0x0 PUSH2 0x1AB0 DUP3 PUSH2 0x13E3 JUMP JUMPDEST SWAP2 POP PUSH2 0x1ABB DUP4 PUSH2 0x13E3 JUMP JUMPDEST SWAP3 POP DUP3 DUP3 SUB SWAP1 POP DUP2 DUP2 GT ISZERO PUSH2 0x1AD3 JUMPI PUSH2 0x1AD2 PUSH2 0x1712 JUMP JUMPDEST JUMPDEST SWAP3 SWAP2 POP POP JUMP JUMPDEST PUSH32 0x42656E656669636961727920616C72656164792065786973747320696E207468 PUSH1 0x0 DUP3 ADD MSTORE PUSH32 0x652072656C6174696F6E73686970000000000000000000000000000000000000 PUSH1 0x20 DUP3 ADD MSTORE POP JUMP JUMPDEST PUSH1 0x0 PUSH2 0x1B35 PUSH1 0x2E DUP4 PUSH2 0x14B0 JUMP JUMPDEST SWAP2 POP PUSH2 0x1B40 DUP3 PUSH2 0x1AD9 JUMP JUMPDEST PUSH1 0x40 DUP3 ADD SWAP1 POP SWAP2 SWAP1 POP JUMP JUMPDEST PUSH1 0x0 PUSH1 0x20 DUP3 ADD SWAP1 POP DUP2 DUP2 SUB PUSH1 0x0 DUP4 ADD MSTORE PUSH2 0x1B64 DUP2 PUSH2 0x1B28 JUMP JUMPDEST SWAP1 POP SWAP2 SWAP1 POP JUMP JUMPDEST PUSH32 0x42656E65666963696172792070657263656E746167652063616E6E6F74206265 PUSH1 0x0 DUP3 ADD MSTORE PUSH32 0x2067726561746572207468616E20313030000000000000000000000000000000 PUSH1 0x20 DUP3 ADD MSTORE POP JUMP JUMPDEST PUSH1 0x0 PUSH2 0x1BC7 PUSH1 0x31 DUP4 PUSH2 0x14B0 JUMP JUMPDEST SWAP2 POP PUSH2 0x1BD2 DUP3 PUSH2 0x1B6B JUMP JUMPDEST PUSH1 0x40 DUP3 ADD SWAP1 POP SWAP2 SWAP1 POP JUMP JUMPDEST PUSH1 0x0 PUSH1 0x20 DUP3 ADD SWAP1 POP DUP2 DUP2 SUB PUSH1 0x0 DUP4 ADD MSTORE PUSH2 0x1BF6 DUP2 PUSH2 0x1BBA JUMP JUMPDEST SWAP1 POP SWAP2 SWAP1 POP JUMP JUMPDEST PUSH32 0x546F74616C2070657263656E74616765206F662062656E656669636961726965 PUSH1 0x0 DUP3 ADD MSTORE PUSH32 0x732063616E6E6F74206578636565642031303000000000000000000000000000 PUSH1 0x20 DUP3 ADD MSTORE POP JUMP JUMPDEST PUSH1 0x0 PUSH2 0x1C59 PUSH1 0x33 DUP4 PUSH2 0x14B0 JUMP JUMPDEST SWAP2 POP PUSH2 0x1C64 DUP3 PUSH2 0x1BFD JUMP JUMPDEST PUSH1 0x40 DUP3 ADD SWAP1 POP SWAP2 SWAP1 POP JUMP JUMPDEST PUSH1 0x0 PUSH1 0x20 DUP3 ADD SWAP1 POP DUP2 DUP2 SUB PUSH1 0x0 DUP4 ADD MSTORE PUSH2 0x1C88 DUP2 PUSH2 0x1C4C JUMP JUMPDEST SWAP1 POP SWAP2 SWAP1 POP JUMP JUMPDEST PUSH1 0x0 PUSH2 0x1C9A DUP3 PUSH2 0x13E3 JUMP JUMPDEST SWAP2 POP PUSH32 0xFFFFFFFFFFFFFFFFFFFFFFFFFFFFFFFFFFFFFFFFFFFFFFFFFFFFFFFFFFFFFFFF DUP3 SUB PUSH2 0x1CCC JUMPI PUSH2 0x1CCB PUSH2 0x1712 JUMP JUMPDEST JUMPDEST PUSH1 0x1 DUP3 ADD SWAP1 POP SWAP2 SWAP1 POP JUMP JUMPDEST PUSH32 0x546865726520617265207374696C6C2062656E6566696369617269657320696E PUSH1 0x0 DUP3 ADD MSTORE PUSH32 0x207468652072656C6174696F6E73686970000000000000000000000000000000 PUSH1 0x20 DUP3 ADD MSTORE POP JUMP JUMPDEST PUSH1 0x0 PUSH2 0x1D33 PUSH1 0x31 DUP4 PUSH2 0x14B0 JUMP JUMPDEST SWAP2 POP PUSH2 0x1D3E DUP3 PUSH2 0x1CD7 JUMP JUMPDEST PUSH1 0x40 DUP3 ADD SWAP1 POP SWAP2 SWAP1 POP JUMP JUMPDEST PUSH1 0x0 PUSH1 0x20 DUP3 ADD SWAP1 POP DUP2 DUP2 SUB PUSH1 0x0 DUP4 ADD MSTORE PUSH2 0x1D62 DUP2 PUSH2 0x1D26 JUMP JUMPDEST SWAP1 POP SWAP2 SWAP1 POP JUMP JUMPDEST PUSH32 0x49736E2774206120736574746C6F720000000000000000000000000000000000 PUSH1 0x0 DUP3 ADD MSTORE POP JUMP JUMPDEST PUSH1 0x0 PUSH2 0x1D9F PUSH1 0xF DUP4 PUSH2 0x14B0 JUMP JUMPDEST SWAP2 POP PUSH2 0x1DAA DUP3 PUSH2 0x1D69 JUMP JUMPDEST PUSH1 0x20 DUP3 ADD SWAP1 POP SWAP2 SWAP1 POP JUMP JUMPDEST PUSH1 0x0 PUSH1 0x20 DUP3 ADD SWAP1 POP DUP2 DUP2 SUB PUSH1 0x0 DUP4 ADD MSTORE PUSH2 0x1DCE DUP2 PUSH2 0x1D92 JUMP JUMPDEST SWAP1 POP SWAP2 SWAP1 POP JUMP JUMPDEST PUSH32 0x4661696C656420746F207472616E736665722066756E647320746F2073657474 PUSH1 0x0 DUP3 ADD MSTORE PUSH32 0x6C6F720000000000000000000000000000000000000000000000000000000000 PUSH1 0x20 DUP3 ADD MSTORE POP JUMP JUMPDEST PUSH1 0x0 PUSH2 0x1E31 PUSH1 0x23 DUP4 PUSH2 0x14B0 JUMP JUMPDEST SWAP2 POP PUSH2 0x1E3C DUP3 PUSH2 0x1DD5 JUMP JUMPDEST PUSH1 0x40 DUP3 ADD SWAP1 POP SWAP2 SWAP1 POP JUMP JUMPDEST PUSH1 0x0 PUSH1 0x20 DUP3 ADD SWAP1 POP DUP2 DUP2 SUB PUSH1 0x0 DUP4 ADD MSTORE PUSH2 0x1E60 DUP2 PUSH2 0x1E24 JUMP JUMPDEST SWAP1 POP SWAP2 SWAP1 POP JUMP INVALID LOG2 PUSH5 0x6970667358 0x22 SLT KECCAK256 0xF8 PUSH23 0x58975E9417E6FCDBC051FE1D4BD7CABE68727E8C8DF7BF PUSH15 0x91F0E1AABADD64736F6C6343000813 STOP CALLER "
				},
				"gasEstimates": {
					"creation": {
						"codeDepositCost": "1567400",
						"executionCost": "30918",
						"totalCost": "1598318"
					},
					"external": {
						"addBeneficiary(address,uint256)": "infinite",
						"addDeadline(uint256)": "3189",
						"createFiduciaryRelationship(address)": "54434",
						"getFiduciaryBalance()": "4607",
						"isRegulator()": "2518",
						"isSettlor()": "2627",
						"liquidateFiduciaryRelationship(address)": "infinite",
						"transferRemainingBalance()": "infinite",
						"transferToRelationship()": "infinite",
						"withdraw(address)": "infinite"
					},
					"internal": {
						"containsBeneficiary(address,address)": "2334",
						"isValidDeadline(uint256)": "62"
					}
				},
				"methodIdentifiers": {
					"addBeneficiary(address,uint256)": "96074e70",
					"addDeadline(uint256)": "3bbca190",
					"createFiduciaryRelationship(address)": "02550b78",
					"getFiduciaryBalance()": "28d99d42",
					"isRegulator()": "54ac3e0e",
					"isSettlor()": "0f25077b",
					"liquidateFiduciaryRelationship(address)": "a55453ea",
					"transferRemainingBalance()": "98ee61af",
					"transferToRelationship()": "3595771b",
					"withdraw(address)": "51cff8d9"
				}
			},
			"storageLayout": {
				"storage": [
					{
						"astId": 3,
						"contract": "contracts/Fiduciary.sol:Fiduciary",
						"label": "regulator",
						"offset": 0,
						"slot": "0",
						"type": "t_address"
					},
					{
						"astId": 31,
						"contract": "contracts/Fiduciary.sol:Fiduciary",
						"label": "relations",
						"offset": 0,
						"slot": "1",
						"type": "t_mapping(t_address,t_struct(FiduciaryRelationship)26_storage)"
					},
					{
						"astId": 35,
						"contract": "contracts/Fiduciary.sol:Fiduciary",
						"label": "settlors",
						"offset": 0,
						"slot": "2",
						"type": "t_mapping(t_address,t_uint256)"
					},
					{
						"astId": 37,
						"contract": "contracts/Fiduciary.sol:Fiduciary",
						"label": "totalBalance",
						"offset": 0,
						"slot": "3",
						"type": "t_uint256"
					}
				],
				"types": {
					"t_address": {
						"encoding": "inplace",
						"label": "address",
						"numberOfBytes": "20"
					},
					"t_mapping(t_address,t_struct(Beneficiary)8_storage)": {
						"encoding": "mapping",
						"key": "t_address",
						"label": "mapping(address => struct Fiduciary.Beneficiary)",
						"numberOfBytes": "32",
						"value": "t_struct(Beneficiary)8_storage"
					},
					"t_mapping(t_address,t_struct(FiduciaryRelationship)26_storage)": {
						"encoding": "mapping",
						"key": "t_address",
						"label": "mapping(address => struct Fiduciary.FiduciaryRelationship)",
						"numberOfBytes": "32",
						"value": "t_struct(FiduciaryRelationship)26_storage"
					},
					"t_mapping(t_address,t_uint256)": {
						"encoding": "mapping",
						"key": "t_address",
						"label": "mapping(address => uint256)",
						"numberOfBytes": "32",
						"value": "t_uint256"
					},
					"t_struct(Beneficiary)8_storage": {
						"encoding": "inplace",
						"label": "struct Fiduciary.Beneficiary",
						"members": [
							{
								"astId": 5,
								"contract": "contracts/Fiduciary.sol:Fiduciary",
								"label": "percentage",
								"offset": 0,
								"slot": "0",
								"type": "t_uint256"
							},
							{
								"astId": 7,
								"contract": "contracts/Fiduciary.sol:Fiduciary",
								"label": "balance",
								"offset": 0,
								"slot": "1",
								"type": "t_uint256"
							}
						],
						"numberOfBytes": "64"
					},
					"t_struct(FiduciaryRelationship)26_storage": {
						"encoding": "inplace",
						"label": "struct Fiduciary.FiduciaryRelationship",
						"members": [
							{
								"astId": 10,
								"contract": "contracts/Fiduciary.sol:Fiduciary",
								"label": "settlor",
								"offset": 0,
								"slot": "0",
								"type": "t_address"
							},
							{
								"astId": 15,
								"contract": "contracts/Fiduciary.sol:Fiduciary",
								"label": "beneficiariesP",
								"offset": 0,
								"slot": "1",
								"type": "t_mapping(t_address,t_struct(Beneficiary)8_storage)"
							},
							{
								"astId": 17,
								"contract": "contracts/Fiduciary.sol:Fiduciary",
								"label": "trustBalance",
								"offset": 0,
								"slot": "2",
								"type": "t_uint256"
							},
							{
								"astId": 19,
								"contract": "contracts/Fiduciary.sol:Fiduciary",
								"label": "auxiliarBalance",
								"offset": 0,
								"slot": "3",
								"type": "t_uint256"
							},
							{
								"astId": 21,
								"contract": "contracts/Fiduciary.sol:Fiduciary",
								"label": "percentage",
								"offset": 0,
								"slot": "4",
								"type": "t_uint256"
							},
							{
								"astId": 23,
								"contract": "contracts/Fiduciary.sol:Fiduciary",
								"label": "totalBeneficiaries",
								"offset": 0,
								"slot": "5",
								"type": "t_uint256"
							},
							{
								"astId": 25,
								"contract": "contracts/Fiduciary.sol:Fiduciary",
								"label": "deadline",
								"offset": 0,
								"slot": "6",
								"type": "t_uint256"
							}
						],
						"numberOfBytes": "224"
					},
					"t_uint256": {
						"encoding": "inplace",
						"label": "uint256",
						"numberOfBytes": "32"
					}
				}
			},
			"userdoc": {
				"kind": "user",
				"methods": {},
				"version": 1
			}
		}
	}
}